:020000040800F2
:1000000070070020B5010008B72E0008A12D0008D8
:10001000B52E0008C5170008E531000800000000F3
:10002000000000000000000000000000BB2E0008DF
:100030000B18000800000000B92E0008BD2E0008B3
:10004000CF010008CF010008CF010008CF01000850
:10005000CF010008CF010008CF010008CF01000840
:10006000CF010008CF010008CF010008C917000820
:10007000CF010008CF010008CF010008CF01000820
:10008000CF010008D517000875160008CF01000839
:10009000CF010008CF010008CF010008CF01000800
:1000A000CF010008CF010008CF010008CF010008F0
:1000B000CF010008CF010008CF010008CF010008E0
:1000C000CF010008CF010008CF010008CF010008D0
:1000D000CF010008CF010008D9310008CF01000886
:1000E0000D180008CF010008CF01000800F002F849
:1000F00000F050F80AA090E8000C82448344AAF172
:100100000107DA4501D100F045F8AFF2090EBAE86F
:100110000F0013F0010F18BFFB1A43F0010318473B
:100120006434000084340000103A24BF78C878C1D9
:10013000FAD8520724BF30C830C144BF04680C60ED
:10014000704700000023002400250026103A28BF35
:1001500078C1FBD8520728BF30C148BF0B60704739
:10016000662903F09881652903F09581672903F0DA
:100170009281612903F09181002070471FB500F042
:100180003BFD04000020002103F0E4F8E0601FBD07
:1001900010B510BD00F030FE1146FFF7EFFF03F081
:1001A0004DF800F04EFE03B4FFF7F2FF03BC00F081
:1001B00091FE00000948804709480047FEE7FEE736
:1001C000FEE7FEE7FEE7FEE7FEE7FEE7FEE7FEE707
:1001D00004480549054A064B70470000312F0008C6
:1001E000ED0000087001002070070020700300205F
:1001F000700300200FB41CB50C0007AA009001D0BA
:100200002044401E074B7B4469460190069800F04D
:10021000D2FC002C03D06946002000F0DFFC1CBC9F
:100220005DF814FBDD09000070B5044685690068BF
:10023000C10601D5302600E02026C00707D070BDDA
:10024000D4E9012130469047206A401C20626D1E8F
:10025000F6D570BD70B5044685690078C00707D132
:1002600070BDD4E9012120209047206A401C206203
:100270006D1EF6D570BD00002DE9F05F894604467D
:100280004FF0000ADFF874B1FB44C0F820A020460C
:10029000E1688847002874D0252806D0D4E90121D8
:1002A0009047206A401C2062F1E700265F46204606
:1002B000E16888472028054607DB312D05D27819EB
:1002C00010F8200C08B10643F1E7B00701D526F07D
:1002D0000406C4F81CA00027C4F818A02A2D09D0D1
:1002E000284602F0A4FF38B304EB8708303DC8F875
:1002F000185019E059F8041B204604EB870291615D
:10030000E1688847012F054618D1E069002820DA06
:1003100026F020061DE0D8F8180000EB800005EB61
:1003200040003038C8F818002046E1688847054684
:1003300002F07DFF0028EED1012F0AD02E2D08D12A
:100340002046E16888477F1C0546022F46F02006BC
:10035000C4DBA069002803DA404246F00106A06130
:10036000F00701D026F010066C2D0BD0682D09D0B7
:100370004C2D39D06A2D35D0742D35D07A2D33D00F
:1003800016E038E0E1682F4620468847B842054627
:1003900009D16C2F26D04FF48060E16806432046D7
:1003A0008847054604E06C2F1AD04FF4807006434E
:1003B0000DB3A5F14100192802D8203546F4006696
:1003C0004A462946204626604E46FFF7C9FE80B1C0
:1003D00001280BD0F61D26F0070000F1080956E7AA
:1003E0004020E4E78020D8E70020D6E706F10409A2
:1003F0004DE7284652E7206ABDE8F09F2A32000008
:1004000010B5431C02E010F8011B71B18107FAD14D
:100410004FF0013202C88C1A8C4314EAC211F9D091
:10042000C01A0A0603D0C01E10BDC01A10BD0A04AF
:1004300001D0801E10BD0902FCD0401E10BD4FF03F
:10044000000200B5134694469646203922BFA0E824
:100450000C50A0E80C50B1F12001BFF4F7AF090730
:1004600028BFA0E80C5048BF0CC05DF804EB890021
:1004700028BF40F8042B08BF704748BF20F8022B64
:1004800011F0804F18BF00F8012B7047704770477C
:10049000704770472DE9FF4F0C461E464FF0FF375F
:1004A0008BB0D2E90001DDF860800A908A46C1F382
:1004B0000A5505B93D46002108464FF00000BAF143
:1004C000000F00F4400005DA00EB80004FF440011B
:1004D00001EA50004FEA9059B9F1010F00DDB94629
:1004E0000A9850EA4A000ED044F61050A5F2FF35A3
:1004F00045432F14B8F1000F1ED07542291E1EDD92
:10050000C9F100021CE0B8F1010F4FF0000001D06A
:10051000302103E0F24305E02154401CB042FBDBF4
:1005200030460022002121540B99C1F80880C1E90E
:1005300000200FB0BDE8F08FBD1B6D1CDEE74A4602
:1005400000DA694206A800F0E1FB06AB93E8070079
:1005500003AB83E8070050460A9900F0C2FC8DE81F
:100560000700A0F500501F3800900398002D0ADD09
:1005700042F21F014A460844002303A9039068463B
:1005800000F02BFF09E0A0F500504A461F38002379
:1005900003A90390684600F035FF8DE807000004CA
:1005A000000C03D04FF0FF30410800E01046B8F1D6
:1005B000000F03D00022009215461EE0751E05D4E0
:1005C00000F01EFB303262556D1EF9D5B346012294
:1005D000084302D000227F1C04E02078302801D19B
:1005E00000227F1E002A099784D01DE0112D07DA12
:1005F00000F006FB303262556D1C50EA0102F5D165
:10060000084302D00098C8B10EE00021681E05E042
:10061000235C625C63542254401E491C8142F7DB18
:10062000AB46A81B401E0990002004F80B000B9855
:10063000099AC0F80880C0E9002B7AE711264FF02C
:10064000000857E72DE9F04F88460446D21D22F0F6
:10065000070191B0D1E90001CDE90A0102F0C3FD23
:1006600002460B98C00F01D02D2007E020688107BB
:1006700001D52B2002E0202101EAC000032A0990C5
:1006800001D0072A05DB03464146204600F0FEFA6A
:100690000BE12078800601D5E06900E00620B8F182
:1006A000650F814606D0B8F1660F18D0B8F1670F14
:1006B00070D131E00020B9F1110F009001DB11235E
:1006C00001E009F101030AAA01A90CA8FFF7E2FE63
:1006D000DDE90C70002609F10105834647E00120A1
:1006E0004B4600904FF000470AAA01A90CA8FFF75B
:1006F000D1FEDDE90DB00C995D46002610B909F177
:1007000001000D18B9EB050003D4C0F1FF3609F163
:100710000105A5EB09002BE0B9F1010F01DA4FF05B
:1007200001090020B9F1110F0090484601DD1123A5
:1007300000E003460AAA01A90CA8FFF7ABFEDDE919
:100740000C704D4600268346207800070AD4AB453E
:1007500000DA5D4601A8012D04DD411911F8011CE4
:10076000302907D04F4502DA17F1040F04DA0120CF
:1007700082460FE06D1EEEE7002F02DCED1B3E44CB
:1007800003E0781CA84200DD7D1CB81B00F1010AC3
:100790004FF000472078000703D4AA4501DB4FF053
:1007A000FF3A0021B7F1004F0DF143088DF84310D7
:1007B00024D002202B23002F01DA7F422D230A218F
:1007C000021EA0F1010000DC5FB197FBF1FC97FB7A
:1007D000F1F201FB1C7C17460CF1300C08F801CD3E
:1007E000EEE7A8F1010003702188090501D5452134
:1007F00000E06521A0F1010800F8011C09980FA98B
:10080000A1EB0807FF1D00B10120411901EBEA70BF
:10081000A1693844081A401EA0612078C00602D49D
:100820002046FFF701FD099828B1D4E9012190473E
:10083000206A401C20622078C00622D52046FFF79F
:10084000F3FC1EE0002E04DBB34502DD01A8805D51
:1008500000E03020D4E901219047206A401C20624A
:10086000761CAAF101005FEA000A0AD100F0C4F97F
:10087000C0680168405CD4E901219047206A401CAF
:100880002062281EA5F10105DCDC07E0D4E9012186
:1008900018F8010B9047206A401C2062381EA7F10F
:1008A0000107F3DC2046FFF7D5FC032011B041E639
:1008B0002DE9F04F04460D46D21D22F0070089B005
:1008C000D0E900974846394602F08DFC0246F80F01
:1008D00001D02D2307E02068810701D52B2302E0FA
:1008E000202101EAC0038DF820300BB1012000E087
:1008F0000020032A824601D0072A04DB294620462D
:1009000000F0C4F93FE12078800601D40D2500E015
:10091000E569C7F30A560D2D49DA00214FEA175B46
:1009200008464FF00000002F00F4400007DA00EB0B
:1009300080004FF4400100EBD07001EA60008115A7
:10094000012901DD4FF0FF3100224FEA850CBCF197
:10095000180F06D31346ACF118004FF08052C24076
:1009600003E04FF4801323FA0CF30CF10C0CBCF1F0
:10097000200F04D3ACF1200C09FA0CF001E007FAC7
:100980000CF000294FF0004801DD18B90FE00ED13E
:1009900040450CD319EB02095F4121B9404502D112
:1009A0009F4329EA0209BBEB175F00D0761C208821
:1009B000000502D57B48784402E07A48784419382B
:1009C00008AA302302F80A30037C0AF10101002E44
:1009D0000AF1020A53546A4602DC4FF0300101E08A
:1009E0004FF031014FF001088DF8001002D0A6F24F
:1009F000FF3603E059EA470100D06B4E002D02DCC0
:100A00002178090704D54FF002082E218DF8011036
:100A1000C44600210BE0C7F303433F01C35C491CFC
:100A20006D1E02F80830052908F1010801DA002DD1
:100A3000F1DC00210CE000EB1973491C1B786D1EE2
:100A4000082902F808304FEA091908F1010801DA0B
:100A5000002DF0DC21688B0602D516E0A8F1010814
:100A6000E04505DD02EB080313F8013C302BF5D01F
:100A7000B8F1000F09DD02EB080313F8013C2E2B3F
:100A800003D1090701D4A8F10108002D05DD3E219D
:100A900002F808106D1E08F10108407C002E02F8D3
:100AA000080008F1010804DA2D20764202F8080057
:100AB00002E02B2002F808000A214FF47A708642E7
:100AC00008F101080BDB96FBF0F3303302F8083035
:100AD00096FBF0F308F1010800FB136601E0642EB9
:100AE0000CDB642096FBF0F3303302F8083096FB01
:100AF000F0F308F1010800FB136601E00A2E06DBA3
:100B000096FBF1F0303002F8080008F1010896FB7E
:100B1000F1F001FB1060303002F80800A16908F123
:100B2000010808EB050202EB0A00081AA061207810
:100B3000C00602D42046FFF777FB216A08AE01EB1E
:100B40000A00206204E0D4E9012116F8010B904765
:100B5000BAF1010AF7D22078C00602D52046FFF785
:100B600063FB6E4609E016F8010B3E280FD0D4E96E
:100B700001219047206A401C2062B8F10108F2D29E
:100B80002046FFF767FB09B00320BDE8F08F206A1D
:100B90002844206203E0D4E90121302090476D1EF3
:100BA000EBD3F8E7202B000002FCFFFF01694A1C91
:100BB00002610878704700B58FB0CDE9013100219E
:100BC000059105497944CDE9031011466846FFF7C0
:100BD00053FB0FB000BD0000E5FFFFFF0A6802F8FD
:100BE000010B0A607047D1E900239A4202D2531CDC
:100BF0000B60107070470000004870472C01002007
:100C000030B5B0F10A024FEA900E71F100034EEADE
:100C1000817EB0EB0E0061EB91014FEA101E4EEAAF
:100C2000017E10EB0E0041EB11114FEA102E4EEA3F
:100C3000016E10EB0E0041EB11214FEA104E4EEA0F
:100C4000014E10EB0E0041EB1141401841F1000143
:100C50004FEAD00040EA41704FEAD10110EB800525
:100C60004FEA810444EA907444EB01046D1944EBAB
:100C70000404521BA3414FF0000348BF0A3200D5C1
:100C800030BD401C41F1000130BD00002DE9F041B4
:100C90001F46044603260168072A01F4006004DBAE
:100CA00008B116A505E016A503E008B115A500E0FA
:100CB00015A521F010002060A069C01EA0610FB131
:100CC000401EA0612046FFF7AFFA4FB1D4E90121E1
:100CD00038469047206A401C2062C01C206206E013
:100CE000206AFAE7D4E9012115F8010B9047761E36
:100CF000F8D22046FFF7AEFABDE8F0814E414E0033
:100D00006E616E00494E4600696E66002DE9F0473F
:100D1000814616468AB0354878440DC88DE80D00E6
:100D200032487844801C03AC0DC884E80D0041F6BD
:100D30009B300844372190FBF1F290FBF1F5A5F1CF
:100D4000800501FB12041B3C02D56442012000E037
:100D50000020DFF898A080460027FA44AAF1BE0AD6
:100D60000EE0E0070AD03246684607EB4701012350
:100D70000AEB810100F046FB8DE8070064107F1C40
:100D8000002CEED1194F7F44AE3F19E0E80715D093
:100D900007EB04100DF1180A90E80E008AE80E0027
:100DA000C068F04201D1981908903246012306A983
:100DB00003A800F027FB03AB83E807006D10641C59
:100DC000002DE3D14FF0010332466946B8F1000F20
:100DD00003A802D000F001FB01E000F013FBC9E919
:100DE0000001C9F808200AB0BDE8F08750280000CB
:100DF000004870470C0100207546FFF7F9FFAE462A
:100E000005006946534620F00700854618B020B516
:100E1000FFF7DEF9BDE820404FF000064FF0000775
:100E20004FF000084FF0000B21F00701AC46ACE892
:100E3000C009ACE8C009ACE8C009ACE8C0098D46FF
:100E4000704710B50446AFF300802046BDE810405F
:100E5000FFF7A9B94FF0013C50F8042B51F8043BBF
:100E60009A4221D1A2EB0C03934313EACC1317D17E
:100E700050F8042B51F8043B9A4215D1A2EB0C0315
:100E8000934313EACC130BD150F8042B51F8043BD5
:100E90009A4209D1A2EB0C03934313EACC13DBD0A3
:100EA0004FF00000704700BFD01A01BAB1FA81F1CB
:100EB00001F0180122FA01F0CB40C1F12001DBB2B0
:100EC000C0B2C01A2CFA01F3D11A914311EAC3112E
:100ED000E6D1704701491820ABBEFEE726000200AC
:100EE00070475FEA400C08BF91F0000F4FEA8C2377
:100EF0004FEAC12243EA51514FEA1C5018BF00F596
:100F0000F0404FEA300018BF41F000415FEA6C5CEE
:100F100000F02980BCF1FF3F08BF40F080407047DF
:100F2000130C06BF12044FF0100C4FF0000C130E00
:100F300004BF12020CF1080C130F04BF12010CF1D4
:100F4000040C930F04BF92000CF1020CD30F04BFEA
:100F500052000CF1010C11464FF00002A0F11F00ED
:100F6000A0EB0C00704711F0004F08BF704731F044
:100F700000413FF4D5AF0B0C06BF09044FF0100C35
:100F80004FF0000C0B0E04BF09020CF1080C0B0F04
:100F900004BF09010CF1040C8B0F04BF89000CF194
:100FA000020CCB0F04BF49000CF1010CCCF1200363
:100FB000A0EB0C0022FA03F302FA0CF241EA03015F
:100FC00000F10100704720F07F4C80EA030023F01D
:100FD0007F47ACEB070303F57C5300F0004003F1BF
:100FE000FF032DE980494FEA154B09B44FEA14433A
:100FF00025EA0B4E24EA03480FF2042606EB1327DA
:1010000049083E785FEA320203FB0667C7F500072E
:1010100007FB06F64FEA54374FEAD64606F10206BA
:1010200007FB066CCCF1005C4FEA1C472CEA074C2E
:1010300007FB06F40CFB06F504EB15464FEA961683
:1010400034BF00204FF000404FEAD13706FB07FCC9
:101050004FEA1C4C0CFB0BF7D21B03FB0CF761EBAC
:1010600007010CFB0EF7B0EB074072EB17420CFBCD
:1010700008F734BFA2EB0742B2EB074261EB17411E
:101080004FEA0C444FEA910706FB07FC4FEA1C4C61
:101090000CFB0BF7B0EBC74072EB573203FB0CF7BE
:1010A00034BFA2EBC742B2EBC74261EB57310CFB36
:1010B0000EF7B0EBC70072EB57720CFB08F734BFAA
:1010C000A2EBC702B2EBC70261EB5771039F4FEA75
:1010D000816141EA921104EBCC044FEAD1374FEA27
:1010E000826206FB07FC42EA90124FEA80604FEAF8
:1010F0001C4C0CFB0BF7D21B03FB0CF761EB07013D
:101100000CFB0EF7B0EB074072EB17420CFB08F735
:1011100034BFA2EB0742B2EB074261EB17414FEA43
:101120008C554FEA910704EB9C2406FB07FC4FEA21
:101130001C4C0CFB0BF7B0EBC74072EB573203FBB8
:101140000CF734BFA2EBC742B2EBC74261EB573199
:101150000CFB0EF7B0EBC70072EB57720CFB08F7F5
:1011600034BFA2EBC702B2EBC70261EB577115EBBC
:101170004C254FEA816141EA92114FEA82624FEABF
:10118000D13742EA901206FB07FC44F100044FEA13
:1011900080604FEA1C4C0CFB0BF7D21B03FB0CF7D7
:1011A00061EB07010CFB0EF7B0EB074072EB174247
:1011B0000CFB08F734BFA2EB0742B2EB074261EB2E
:1011C000174115EB1C154FEA813141EA92414FEA74
:1011D000823242EA90424FEA80304FEA0C7644F184
:1011E000000448EA03434EEA0B484FF0000EB2EB0E
:1011F000080C71EB030724BF624639464EEB0E0E16
:101200004FF0000B0018524149414BEB0B0BB2EB76
:10121000080C71EB03077BF1000B24BF62463946D3
:101220004EEB0E0E4FF0000B0018524149414BEBB4
:101230000B0BB2EB080C71EB03077BF1000B24BF27
:10124000624639464EEB0E0E51EA020718BF46F0D1
:10125000010616EB0E7655F1000254F1000103D59C
:10126000BDE88901BDE80088BDE88901BDE8004806
:10127000B619524141EB0101A3F10103704780808F
:101280007F7E7D7C7B7A79787776767574737271E0
:1012900071706F6E6E6D6C6C6B6A6A696868676698
:1012A00066656464636362616160605F5F5E5E5D2A
:1012B0005D5C5C5B5B5A5A5959585857575656559E
:1012C00055555454535352525251515050504F4F00
:1012D0004F4E4E4D4D4D4C4C4C4B4B4B4A4A4A4950
:1012E0004949484848474747474646464545454493
:1012F0004444444343434342424242414141002B20
:101300009C4630D477002BD01CB54FEA370703B486
:101310004FF010004FF01001BAF1000F06D0BCF1F1
:10132000000FDCBF40F0080040F008014FF0000063
:101330000FBCBDE810400BF1010BBBF1010F08BF62
:101340005FEA170722BF12F1010211F101014FF00C
:10135000004143F1000300F0004043EA0000704701
:10136000F9D35708D0E746EA064613F1400F4FEA93
:1013700016461FDD13F1200FDFBF16430A4600217A
:1013800020335B42BED0C3F1200746EA064602FA8C
:1013900007F74FEA164646EA0706C3F1200722FA86
:1013A00003F201FA07F721FA03F14FF0000342EAD2
:1013B0000702A7E746EA020646EA06464FEA16464D
:1013C00046EA0106BCBF46EA0646360C4FF000036B
:1013D0004FF000024FF0000194E72DE9804C9A464F
:1013E000934670B491E8380007C831EA400C48BF12
:1013F00034EA430C03D5FFF7E6FDFFF780FFF0BCAE
:10140000BDE8008C2DE9804C9A46934670B491E873
:10141000380007C810F0804F08BF13F0804F03D189
:1014200000F005F8FFF76BFFF0BCBDE8008C20F082
:101430007F4780EA030023F07F4C07EB0C03A3F502
:101440007C5300F00040A3F1FE0392F0000F00F087
:10145000B38095F0000F00F077802DE901494FEA45
:1014600011404FEA144621EA004800FB06FC24EA3A
:10147000064708FB06F607FB08F800FB07F718EB22
:1014800006484CEB164C4FEA124B18EB07484FEA54
:1014900015464CEB174022EA0B4E0BFB06FC25EAE7
:1014A00006470EFB06F607FB0EFE0BFB07F71EEBCF
:1014B000064E4CEB164C4FF000061EEB074E4CEB65
:1014C000174B18EB0B0840F1000018EB0E0B58EB14
:1014D000000840F100008F1A4FF000013CBFC943E3
:1014E000661B14BFB5EB040C00213CBFC943F61BBF
:1014F0004FEA17444EEA8E0E27EA04454FEA1C478E
:1015000004FB07622CEA074C05FB07F70CFB05F60A
:1015100004FB0CFC16EB074642EB174216EB0C469D
:1015200042EB1C421BEB060658EB0202414146EA25
:101530009E0601D5BDE80189B619524141EB010172
:10154000A3F10103BDE801894FEA14454FEA1147B1
:1015500024EA054621EA074C05FB07F406FB07F7DA
:101560000CFB06F105FB0CFC11EB074144EB1744A7
:101570004FEA124711EB0C4144EB1C4422EA074CA2
:1015800005FB07F206FB07F70CFB06F605FB0CFC58
:1015900016EB074642EB174216EB0C4642EB1C4596
:1015A0006A1854F1000148BF7047B619524141EB27
:1015B0000101A3F10103704795F0000F37D04FEA06
:1015C00011424FEA144721EA024624EA074C02FB83
:1015D00007F106FB07F70CFB06F402FB0CFC14EB0F
:1015E000074441EB17414FEA154714EB0C4441EB1C
:1015F0001C4125EA074C02FB07F506FB07F70CFB2D
:1016000006F602FB0CFC16EB074645EB174516EBFE
:101610000C4645EB1C42121951F1000148BF7047BE
:10162000B619524141EB0101A3F1010370474FEAA2
:1016300014454FEA114724EA054621EA074C05FB09
:1016400007F106FB07F70CFB06F24FF0000605FB5F
:101650000CFC12EB074241EB174112EB0C4251EB31
:101660001C4148BF7047921841EB0101A3F10103EF
:1016700070470000014800F052B90000100000203F
:1016800070B5044600688168C943C90717D18168ED
:1016900021F00101816000F0B9FD05460AE000BFBC
:1016A00000F0B4FD401B022804D920688068C043C4
:1016B000C00706D020688068C043C007F0D0002073
:1016C00070BDA06A40F01000A062E06A40F0010026
:1016D000E062012070BD10B50146406A826A12F0D6
:1016E000500F05D0006A026BBDE810400846104755
:1016F000816A41F40071816201688968C1F34241E5
:1017000007290CD1017B51B9816A21F48071816272
:10171000816AC90403D4816A41F00101816200F049
:10172000FBF810BD10B5406A816A41F0400181624A
:10173000C16A41F00401C16200F0F0F810BD10B5BB
:10174000406A00F0EAF810BDF8B50026044600969D
:1017500000688168C943C9072DD0816841F0010143
:101760008160164816490068B0FBF1F000E0401EA9
:1017700000900028FBD100F049FD054616E000BFAF
:1017800000F044FD401B022810D920688068C04347
:10179000C0070BD0A06A40F01000A062E06A40F0E1
:1017A0000100E06284F824600120F8BD20688068B0
:1017B000C043C007E4D10020F8BD00000C000020A9
:1017C00040420F00FEE70000014800F0F1BA0000BF
:1017D00084000020014800F0EBBA0000C80000209F
:1017E00030B590F840500124AC40C56B6C60046883
:1017F00063604368102B036803D099600068C2607F
:1018000030BD9A600068C16030BD70474FF4005031
:1018100000F0F2BB72B6FEE770470000F8B5002496
:10182000009490F824202546012A12D0012280F845
:1018300024204A681F23072A0DD20668776B521EA0
:1018400002EB820293409F430B6893401F437763F0
:1018500019E00220F8BD06680D2A0AD2376BD21FA4
:1018600002EB820293409F430B6893401F43376310
:1018700009E0F76A0D3A02EB820293409F430B683E
:1018800093401F43F7620A68072306680A2A0AD3AF
:10189000F7680A3A02EB420293409F438B689340F9
:1018A0001F43F76008E0376902EB420293409F4311
:1018B0008B6893401F4337610A68102A01D0112AB0
:1018C00020D1124B02689A4217D193681B0219D497
:1018D000936843F4000393600968102912D10C49FE
:1018E0000C4A0968B1FBF2F101EB8101490000E00B
:1018F000491E00910029FBD104E0816A41F02001DA
:101900008162012480F824502046F8BD0024014063
:101910000C00002040420F0070477047704710B520
:10192000044600684168890626D50168890723D5E1
:10193000A16AC90603D4A16A41F40071A162816859
:10194000C1F34241072910D1217B71B9416821F0CF
:1019500020014160A06A20F48070A062A06AC004E7
:1019600003D4A06A40F00100A0622046FFF7D4FF34
:1019700021686FF0120008602068416809062ED5C2
:10198000016849072BD5A16AC90603D4A16A41F4AD
:101990000051A1628168C1F30231072909D0416871
:1019A000490515D48168C1F34241072910D1217B33
:1019B00071B9416821F080014160A06A20F4805033
:1019C000A062A06AC00503D4A06A40F00100A06232
:1019D0002046FFF721FF21686FF00C0008602068A7
:1019E000416849060DD50068C0070AD0A06A40F4D6
:1019F0008030A062204600F093F821686FF001006B
:101A0000086010BD2DE9F0414FF0000704003D468D
:101A10007ED0A06A002628B9E66284F824602046B9
:101A200000F080F82046FFF72BFEA16AC90600D41B
:101A300020B1A06A40F01000A06269E0A16A21F420
:101A4000885141F00201A1626268E169237B0A4387
:101A500047EA43010A43A1684FF48077B94209D0AD
:101A6000012907D05FF0000194F814C0BCF1010F08
:101A700002D00AE03946F7E7F3B1A36A43F0200346
:101A8000A362E36A43F00103E3622368D3F804C06E
:101A90002CF4694C4CEA010CC3F804C021688B6833
:101AA000DFF870C003EA0C0313438B60A168B942EE
:101AB0000BD0012909D00CE0DFF85CC0A3690CEB66
:101AC00043330B4343F40061DFE7218A0D05A5F59D
:101AD00080152168CB6A23F470032B43CB62216805
:101AE00089680E4B1940914208D1E662A16A21F043
:101AF000020141F00101A162BDE8F081A06A20F07D
:101B0000020040F01000A062E06A40F00100E062D4
:101B10000120F1E7FDF7E1FF00E0FFFFFE0E1FFFF0
:101B20007047000070B586B0002506460095019507
:101B30000295039500681E49884236D11D4988697F
:101B400040F400708861886900F40070049088692E
:101B500040F0040088618869694600F00400049040
:101B60000120009003200190134800F051FA144C1A
:101B70001248C4E900058020C4E9025080002061B9
:101B8000800060612020C4E90605204600F0BAF913
:101B900008B1FFF73FFE3462002211461220666250
:101BA00000F0A0FB122000F08FFB06B070BD00001B
:101BB00000240140001002400008014008000240DB
:101BC000840000202DE9F047894604463B4900681F
:101BD0003B4F0E1D9046884201D0B84207D1306875
:101BE00010F4702F03D001252846BDE8F08794F843
:101BF000240001280CD0012084F824002046FFF79F
:101C0000A3FD05004FF0000004D084F82400EBE7AA
:101C10000220EAE7A16A40F60162914341F4807133
:101C2000A1622168B94218D1326812F4702F14D021
:101C3000A16A41F48011A1623168490505D5A16A04
:101C400021F4005141F48051A162A16AC9040AD56E
:101C5000E16A21F00601E16206E0A26A22F4801244
:101C6000A2624968E9E7E06284F82400216A154825
:101C70008862216A1448C862216A1448086321688E
:101C80006FF0020008602068816841F48071816013
:101C9000216843464A464C31206A00F061F92068C9
:101CA0008168C1F342410729816803D041F4801162
:101CB000816099E741F4A001FAE7000000240140A7
:101CC00000280140D71600083F1700082517000814
:101CD00010B590F821100022022905D0042181635B
:101CE00080F82020012010BD01680B6823F00E034E
:101CF0000B6001680B6823F001030B6090F8403023
:101D0000C46B012101FA03F3636080F8211080F8AD
:101D10002020104610BD000010B590F821100024BE
:101D2000022903D00421816301243DE001680A688F
:101D300022F00E020A6001680A6822F001020A60BD
:101D40001A4A0168914201D1012121E0174A143257
:101D5000914201D110211BE0144A2832914201D155
:101D6000891515E0114A3C32914201D189140FE0E6
:101D70000E4A5032914202D14FF4803108E00B4AB2
:101D80006432914202D14FF4801101E04FF0807132
:101D9000064A083A5160012180F82110002180F89C
:101DA0002010416B01B18847204610BD0800024059
:101DB0002DE9F05FC16B0C6801680B68D0F840C07A
:101DC000042202FA0CF2494DDFF824A1494E4A4F91
:101DD000DFF828B1DFF828E122422CD05A072AD5B3
:101DE0000A68920603D40A6822F004020A600168B5
:101DF000A94201D1042219E0514501D1402215E048
:101E0000B14202D14FF4806210E0B94202D14FF4E6
:101E100080420BE0594502D14FF4802206E0714523
:101E200002D14FF4800201E04FF080622F4908395F
:101E30004A60C16A3BE04FF0020808FA0CF818EA61
:101E4000040F4FF000094FF0010235D05FEA8378AC
:101E500032D50B689B0605D40B6823F00A030B6090
:101E600080F821200168A94201D1022219E05145E0
:101E700001D1202215E0B14202D14FF4007210E0EE
:101E8000B94202D14FF400520BE0594502D14FF450
:101E9000003206E0714502D14FF4001201E04FF02C
:101EA0000072124908394A6080F82090816A00293E
:101EB0001AD0BDE8F05F0847082505FA0CF5254261
:101EC00012D01B0710D50B6823F00E030B6090F89F
:101ED0004010C36B02FA01F15960826380F821203F
:101EE00080F82090016BE2E7BDE8F09F0800024017
:101EF0001C000240300002404400024058000240F2
:101F00006C00024030B528B308C8134914221944A4
:101F1000B1FBF2F18900C16310498163022141776D
:101F20001A6843F6F0718A43D0E900142143D0E9DE
:101F300002452C43214304692143446921438469B8
:101F40002143114319600021416301224277017747
:101F5000084630BD012030BDF8FFFDBF0000024043
:101F600070B5044690F82000002501280CD001200F
:101F700084F8200094F821600020012E06D084F817
:101F800020000225284670BD022070BD022684F87C
:101F90002160A0632068066826F0010606602046DE
:101FA000FFF71EFCE06A00282068016802D041F0BB
:101FB0000E0106E021F0040101602068016841F093
:101FC0000A0101602068016841F001010160D9E760
:101FD00070B5044600F01AF90546601C02D00448AA
:101FE0000078044400F012F9401BA042FAD370BDFF
:101FF0000000002070470000044910B50A68024242
:1020000002D00860FFF7F6FF10BD00001404014085
:102010002DE9F84FDFF8B891002409F1040A0AF11C
:10202000040B23460F270BF1040EC9E00125A54040
:102030002A40AA427DD1674ED1F804C0ACEB060815
:10204000B44532D014DCBCF1030F3AD009DCBCF14A
:10205000000F2AD0BCF1010F1CD0BCF1020F31D10E
:102060001DE0BCF1110F17D0BCF1120F2AD119E0FD
:10207000B8F5881F19D006DCB8F5803F15D0B8F543
:10208000801F1FD111E0B8F5001F0ED0B8F5041F56
:1020900018D10AE0CB6815E0CB681B1D12E0CB68B5
:1020A00008330FE0CB680C330CE08B682BB1012BAD
:1020B0004FF0080303D0456104E0042302E005610A
:1020C00000E00023FF2A01D8064601E000F10406E3
:1020D0004FEA840501D9A5F12005D6F8008007FA5A
:1020E00005FC28EA0C0803FA05F548EA0508C6F8D5
:1020F00000804D68ED0062D5374DAE6946F00106AF
:10210000AE61AD6924F0030605F001050095334D7D
:1021100006EB050CDCF80850A607360F07FA06F8A0
:1021200025EA0805DFF8B880404503D14FF00008E4
:1021300017E044E0DFF8AC80404502D14FF00108E1
:102140000FE0DFF8A480404502D14FF0020808E01C
:10215000DFF89880404502D14FF0030801E04FF0CE
:10216000040808FA06F848EA0508CCF808804D6823
:10217000D9F80060ED034D4601D5164300E09643C3
:102180002E604D68DAF80060AD03554601D5164360
:1021900000E096432E604D68DBF80060ED025D467E
:1021A00001D5164300E096432E604D68DEF80060CE
:1021B000AD02754601D5164300E096432E60641CBF
:1021C0000D682A46E5407FF431AFBDE8F88F000086
:1021D0000004014000001110001002400000014006
:1021E00000080140000C01400010014000140140B3
:1021F000C26821EA02030A4043EA024101617047D2
:102200000AB1016170470904FBE7000001488068DA
:1022100070470000000000200248816802781144E5
:102220008160704700000020074810B5016841F048
:1022300010010160032000F075F8002000F006F89E
:1022400000F024F8002010BD0020024070B50D4DB4
:1022500004464FF47A712878B1FBF0F00A49096816
:10226000B1FBF0F000F062FB48B9102C07D200225D
:102270002146501E00F036F800206C6070BD012031
:1022800070BD0000000000200C0000200C4808B5C4
:10229000816941F001018161816901F001010091D1
:1022A000C16941F08051C161C06900F08050009067
:1022B0000448416821F0E06141F00071416008BDCF
:1022C0000010024000000140002809DB00F01F025E
:1022D000012191404009800000F1E020C0F8001188
:1022E00070470000F0B40E4B1B680C46C3F302238A
:1022F000C3F10705042D00D90425191D072901D2B2
:10230000002300E0DB1E012606FA05F1491E2140EC
:1023100099409E40761E16403143F0BC00F077BFD6
:102320000CED00E0064900F0070208684FF6FF03D5
:10233000184040EA0220034A10430860704700003A
:102340000CED00E00000FA052DE9F84305460078A1
:10235000354CC00754D0E0690026C00008D4E069BD
:1023600040F08050E061E069012600F0805000906C
:102370002E480168C90512D40168804641F4807175
:102380000160FFF743FF074605E000BFFFF73EFF90
:10239000C01B642823D8D8F80000C005F6D5206AF1
:1023A00010F4407021D0A98801F4407181421CD002
:1023B000206A1F49012220F440700A6000220A604E
:1023C0002062C00711D0FFF721FF074641F288388D
:1023D00008E000BFFFF71AFFC11B414502D90320E7
:1023E000BDE8F883206A8007F4D5206A696820F484
:1023F0004070084320621EB1E06920F08050E06127
:102400002878800705D56068A96820F44040084313
:1024100060602878C00605D56068E96820F480000F
:10242000084360600020DBE70010024000700040BD
:10243000400442422DE9F0470F46050061D0434E6B
:10244000306800F00700B84209D2306820F0070079
:1024500038433060306800F00700B84251D1286836
:102460003B4C810712D5400703D5606840F4E0601B
:1024700060602878000703D5606840F460506060B1
:102480006068A96820F0F000084360602878C00701
:1024900028D06868012810D02168022810D0890748
:1024A00000292EDA616821F0030101436160FFF722
:1024B000ADFE804641F288390DE021688903EFE7DF
:1024C0008901EDE7FFF7A2FEA0EB0801494502D91B
:1024D0000320BDE8F0876068696800F00C00B0EB8D
:1024E000810FEFD1306800F00700B8420BD9306897
:1024F00020F0070038433060306800F00700B84231
:1025000001D00120E5E72878400705D56068E96833
:1025100020F4E060084360602878000706D5606812
:10252000296920F4605040EAC100606000F038F88A
:102530006168084AC1F30311515CC840064908604C
:1025400006480068FFF782FE0020C2E70020024034
:10255000001002409E3400080C00002004000020FF
:102560000448054900684968044AC1F30221515CE6
:10257000C84070470C00002000100240AE34000834
:102580000448054900684968044AC1F3C221515C06
:10259000C84070470C00002000100240AE34000814
:1025A00012A185B00FC98DE80F0014A0144A00686D
:1025B00004905168134801F00C03042B10D0082B31
:1025C0000ED1C1F38343C9031DF803000AD5516836
:1025D00004AAC1F34041515C0A4A5043B0FBF1F0F8
:1025E00005B0704708494843FAE7000002030405B4
:1025F000060708090A0B0C0D0E0F1010010200004F
:102600000010024000127A0000093D002DE9F84F49
:10261000040070D02078C04DC00749D06868C0F36E
:102620008100012807D06868C0F38100022809D121
:102630006868C00306D52868800339D5606800281B
:10264000E7D035E06068B0F5803F0BD010B1B0F551
:10265000A02F11D0286820F480302860286820F44A
:10266000802002E0286840F480302860606890B1E3
:10267000FFF7CCFD06460AE0286840F48020286079
:10268000F0E700BFFFF7C2FD801B642873D82868FD
:102690008003F7D50CE0FFF7B9FD064605E000BF63
:1026A000FFF7B4FD801B6428F0D828688003F7D4B6
:1026B00020789A4E80074FF001094FF0000839D575
:1026C000686810F00C0F07D06868C0F3810002281A
:1026D00009D16868C00306D42868800714D520692A
:1026E000012808D110E02069B0B1C6F80090FFF7CA
:1026F0008DFD074605E00AE1FFF788FDC01B0228B3
:10270000C4D828688007F7D52868616920F0F800E8
:1027100040EAC10028600DE0C6F80080FFF776FDB2
:10272000074604E0FFF772FDC01B022823D8286883
:102730008007F7D4207800072CD57948A169D9B152
:10274000C0F80090FFF762FD074604E0FFF75EFD6A
:10275000C01B02280FD8686A8007F7D571484FF46C
:10276000FA510068B0FBF1F0009000BF0098411EE4
:102770000091FAD20EE080E0C0F80080FFF746FD3D
:10278000074604E0FFF742FDC01B022875D8686ABF
:102790008007F7D42078400760D5E8690027C0009B
:1027A00008D4E86940F08050E861E869012700F04A
:1027B000805000905C480168C90513D401688346C5
:1027C00041F480710160FFF721FD824606E000BF01
:1027D000FFF71CFDA0EB0A0064284ED8DBF80000D0
:1027E000C005F5D5E06801280AD008B1052813D046
:1027F000286A20F001002862286A20F0040002E024
:10280000286A40F001002862E06841F2883B98B1F4
:10281000FFF7FCFC82460BE0286A40F004002862C7
:10282000EEE700BFFFF7F2FCA0EB0A0159455AD8CA
:10283000286A8007F6D50CE0FFF7E8FC824605E041
:10284000FFF7E4FCA0EB0A0159454CD8286A800741
:10285000F6D41FB1E86920F08050E861E06988B3E0
:102860006968C1F38101022944D00228C6F860805A
:1028700004D0FFF7CBFC044638E034E0FFF7C6FC99
:10288000074604E0FFF7C2FCC01B02282BD82868CB
:102890008001F7D4206AB0F5803F05D16868A1684F
:1028A00020F4003008436860D4E9080108436968EF
:1028B00021F4741108436860C6F86090FFF7A6FC25
:1028C000044606E025E000BFFFF7A0FC001B02283D
:1028D00009D828688001F7D51BE000BFFFF796FCF8
:1028E000001B022802D90320BDE8F88F2868800168
:1028F000F4D40EE00128F7D06868226A00F4803131
:10290000914204D1616A00F47010884201D0012024
:10291000EAE70020E8E70000001002400000424221
:10292000800442420C0000200070004010B5401EA0
:10293000B0F1807F01D3012010BD4FF0E024606131
:102940000F21601700F063FC0020A06107202061C8
:10295000002010BD70477047F8B502680446106843
:10296000D168536910F00F0F4FF0000553D003F0FA
:10297000010601F4907737435FD0C20705D0CA053E
:1029800003D5226C42F001022264420705D5DA0722
:1029900003D0226C42F002022264820705D5DA07D6
:1029A00003D0226C42F004022264020707D501F032
:1029B0002002324303D0226C42F008022264226CCF
:1029C000002A34D0800604D5880602D5204600F0BF
:1029D0001AFB20684069216CC0F38010090700D4FD
:1029E00030B3204600F0EEFA2068416949061BD555
:1029F000416921F040014161A06BA8B15849416390
:102A0000A06BFFF789F9002811D0A06B416B01B0D2
:102A1000BDE8F040084783060FD58B060DD520464C
:102A2000BDE8F84000F0EFBA2046FFF794FFF8BD8C
:102A30002046FFF790FF2564F8BD266B2023012E6A
:102A400052D1C60650D5CE064ED5106850680090BB
:102A5000506940062AD5A16B086840680004000C44
:102A6000EAD0A68D8642E7D9E0858869202818D06B
:102A7000D06820F48070D0602068416921F00101A5
:102A800041612068416921F04001416184F83E3094
:102A900025632068C16821F01001C160A06BFFF7B9
:102AA00017F9A08DE18D401A81B219E0A08DE18D5A
:102AB000401A81B2E08D0028BED00029BCD0D06879
:102AC00020F49070D0602068426922F001024261D7
:102AD00084F83E3025632068C26822F01002C2608C
:102AE0002046FFF737FFF8BD05062BD50D0629D583
:102AF00094F83D002128F6D1A068B0F5805F01D19F
:102B00002069B0B1206A411C2162216800784860C8
:102B1000E08C401E0004000CE084E4D12068C16811
:102B200021F08001C1602068C16841F04001C160AE
:102B3000F8BD206A0088C0F308005060206A801C3D
:102B40002062E5E74006F3D54806F1D5D168204676
:102B500021F04001D16084F83D3000F01FF9F8BD4C
:102B6000332F000870B5040004D094F83D00002510
:102B700010B106E0012070BD84F83C50204600F002
:102B800023F8242084F83D002068C16821F4005116
:102B9000C160204600F092FA2068016921F490415A
:102BA00001612068416921F02A0141612068C16802
:102BB00041F40051C1602564202084F83D0084F870
:102BC0003E00002070BD000070B586B000250646AE
:102BD000009501950295039500681D49884235D1FD
:102BE0001C49C86940F40030C861C86900F400306D
:102BF0000490886940F0040088618869694600F0A3
:102C0000040004900C2000900220019003901248D0
:102C1000FFF7FEF9124C114820601020C4E90105AD
:102C20008020C4E903056561A5612046E561FFF7E1
:102C300069F908B1FEF7EEFD746300221146262003
:102C40006662FFF74FFB2620FFF73EFB06B070BD24
:102C50000044004000100240000801408000024093
:102C6000C8000020704700002DE9F843044690F8A2
:102C70003D001F4616460D4620284CD1C5B1BEB1B9
:102C800094F83C00012846D0012084F83C004FF025
:102C90000008C4F84080212084F83D00FFF7B6FA10
:102CA000A6848146E684A068B0F5805F03D004E086
:102CB0000120BDE8F883206928B12E465FF00005A9
:102CC00084F83C800EE00026FAE78021204600F0E0
:102CD00051FAA0B9AEB116F8010B21684860E08C3A
:102CE000401EE084E08C4B464FF000020097002825
:102CF000EBD14FF04001204600F03CFA30B1032008
:102D0000D7E735F8020BC0F30800E6E7202084F887
:102D10003D000020CDE70220CBE7000070B504465F
:102D200090F83D00202830D169B362B394F83C009C
:102D300001282AD0012084F83C002162A284E28488
:102D400000252564212084F83D00636B10489862BB
:102D5000636B1048D862636B0F481863606B13464F
:102D600045632668606B321DFFF7FAF821686FF043
:102D70004000086084F83C502068416941F08001BF
:102D80004161002070BD012070BD022070BD0000B7
:102D90008D2F0008BB2F0008432F00087047704795
:102DA000FEE70000FEB50024174800940194154981
:102DB000029401608915816001250573047502265E
:102DC00006614FF460214460C161FEF71BFE08B14B
:102DD00072B6FEE707200094CDE9015069460A4823
:102DE000FEF71CFD08B172B6FEE71020CDE9000623
:102DF00069460548FEF712FD002801D072B6FEE7CD
:102E0000FEBD0000002401401000002030B585B058
:102E1000002424480094019402940394816941F0B1
:102E200010018161816901F010010491816941F013
:102E300020018161816901F020010491816941F0E3
:102E400004018161816901F004010491816941F00B
:102E5000080181618069144D00F00800049000228F
:102E600020212846FFF7CCF9681400900F48CDE9DF
:102E7000010469460E48FFF7CBF82020009001209E
:102E8000CDE901040220039069462846FFF7C0F807
:102E9000002211462820FFF725FA2820FFF714FA10
:102EA00005B030BD001002400008014000001110C4
:102EB00000100140FEE7FEE770477047FFF7ACB92E
:102EC00030B593B028216846FDF7B9FA14210AA855
:102ED000FDF7B5FA002401200F9402250490009517
:102EE00010200590109411941294CDE9075468466F
:102EF0000994FFF78BFB08B172B6FEE70F20CDE90E
:102F00000A054FF48060CDE90C4000210AA80E9418
:102F1000FFF790FA08B172B6FEE70FA80F9511946B
:102F2000FFF712FA002801D072B6FEE713B030BDE9
:102F3000704710B5406A0021C185C184FFF70BFDC1
:102F400010BD70B5446A2068406994F83D10C0F324
:102F5000C0100025212904D118B1E584204600F0D5
:102F600049F82068406994F83E10C0F38010222987
:102F700004D118B1E585204600F024F8206C40F01B
:102F8000100020642046FFF7E6FC70BD10B5014636
:102F9000406A0968096889060CD40021C184016867
:102FA0004A6922F080024A610068C16841F040012C
:102FB000C16010BDFFF7F2FE10BD10B5406AFFF70B
:102FC000EEFE10BD0168CA6822F49072CA60016802
:102FD0004A6922F001024A61016B012904D10168AA
:102FE000CA6822F01002CA60202180F83E10002139
:102FF000016370470168CA6822F0C002CA602021DC
:1030000080F83D10704708B590F83E10222901D095
:10301000022008BD82684FF480539A4201D10169B1
:1030200021B1816A9A421BD04AB10AE00268816AE2
:103030005268C2F308020A80816A891C08E00269AA
:1030400072B10268526802F07F020A70816A491CFC
:103050008162C18D491E0904090CC18503D019E0A4
:1030600002685268F1E70168CA6822F02002CA606B
:103070000168CA6822F48072CA6001684A6922F055
:1030800001024A61202180F83E10016B012903D022
:10309000FFF7E8FD002008BD002101630168CA6850
:1030A00022F01002CA6001680A68D20602D50A68D6
:1030B00049680091818DFFF74DFCEBE770B5044640
:1030C00000680169E26821F44051114301612169FE
:1030D000A0680843616908432168CA6841F20C632B
:1030E0009A430243CA6020684169A26921F4407191
:1030F000114341611E492068884202D1FFF740FA1E
:1031000001E0FFF72DFA00EBC00101EB001260684F
:1031100064218000B2FBF0F3B3FBF1F36FF018060B
:103120007343B2FBF0F5B2FBF0F605EB83053223F7
:1031300003EB0515B5FBF1F5B6FBF1F605F0F0056F
:1031400005EB0615B2FBF0F6B2FBF0F0B0FBF1F0C8
:103150006FF01802504306EB800003EB0010B0FB49
:10316000F1F0216800F00F002844886070BD000075
:10317000003801402DE9F041984617460E460446B6
:10318000069D1DE0681C1BD02DB1FFF73FF8A0EB9A
:103190000800A84214D92068C16821F4D071C16028
:1031A0002068416921F001014161202084F83D003F
:1031B00084F83E00002084F83C000320BDE8F08144
:1031C0002068006836EA000004D00020B842D9D058
:1031D0000020F3E70120F9E70148FFF7BDBB00003D
:1031E00040000020FEE7490050EAC12018BF04203B
:1031F0004A0D18BF40F0010040F2FF72B2EB515F80
:1032000008BF40F00200012808BF052070470907E9
:10321000090E002804DB00F1E02080F8001470475C
:1032200000F00F0000F1E02080F8141D70473038E6
:103230000A2801D201207047002070479AB0FEF79B
:10324000F3FFFFF73DFEFFF7E1FD3848416941F02C
:10325000010141614069002200F001000090114627
:103260000B20FFF73FF80B20FFF72EF80022114646
:103270001120FFF737F81120FFF726F8FFF792FD2E
:103280002C482B490C2201604FF4E13141600021B0
:103290008160C160C0E904128161C161FFF762FC15
:1032A00008B172B6FEE72348022216A93038FEF7AD
:1032B00089FC21A1224CD1E900014FF0FF35CDE975
:1032C0001801169800F08EF800F060F8CDE90001C2
:1032D00018AA502102A8FCF78DFF02A8FDF790F86C
:1032E00082B202A91348FFF719FD98B1022816D03F
:1032F00014A2502102A8FCF77DFF02A8FDF780F878
:1033000082B22B4602A90B48FFF7AEFC3220FEF733
:103310005FFED6E720212046FEF76AFFF6E700228F
:1033200020212046FEF76CFF08A2E2E700100240D1
:10333000004400404000002025362E366600000084
:1033400000080140656C73650000000042757379E8
:103350000000000010B500290AD00878002807D026
:1033600005487844FDF776FD002801D0002010BD07
:103370000248784410BD0000420200003A020000FA
:103380000808A0F500114FEA3101704743004FEAE9
:10339000D30C4FEA3C0C43401FBF40070CF1605177
:1033A00013F0FE4F70471CF0006F03D100200CF0AB
:1033B000004170470CF0004343EA507010B540EAFA
:1033C000CC0000F022F800BF000000924FEA00019C
:1033D000FFF7D6BF4FF000414FF00000A1F50021EC
:1033E00070470000B0FA80F310FA03F2C3F19D03B6
:1033F0000AD0D90501EB1220530638BF704700F1FF
:10340000010008BF20F0010070470EF1020E2EF0FF
:10341000030E5EF8044B244204D44FEA4102B2F199
:103420007F4F11D84FEA4003B3F17F4F0CD80ED134
:103430004FEAD07CB2F17F4F0CEB4C0C0CF1020C3C
:1034400008BF4CEBD17C04E04FF0080C01E04FEAE0
:10345000D17C0CEB4C0324FA03F404F00704B4F120
:10346000040C06D20EEB840CBDE810404CF0010CAD
:103470006047DFE80CF0070802024FF00040A0F5BB
:10348000800010BD0846420018BFD2F1807288BF8C
:1034900000F0004010BDFDF7D5B8FDF709BA0000F7
:1034A00000000000000001020304060708090000F4
:1034B00000000102030404000008000000000000F6
:1034C0000002000100001030313233343536373815
:1034D0003961626364656678700030313233343547
:1034E00036373839414243444546585000000000C1
:1034F00002400000000000A00000000005400000A5
:10350000000000C8000000000C4000000000409CCB
:1035100000000000194000000020BCBE00000000B8
:1035200034400000BFC91B8E00000004B5400000FD
:10353000504BCFD06607E2CF010000006C41000085
:103540003E8251AADFEEA73401000000D9420000FC
:10355000DCB5A0E23A301F97FFFFFFFFB445000043
:10356000FD25A0C8E9A3C14FFFFFFFFFFF3F0000FB
:103570000000008000000000FF3F0000000000800D
:1035800000000000C035000800000020100000000E
:1035900028010008D0350008100000206007000056
:1035A000440100081C00000043000000F8FFFFFF7A
:1035B0000C0000000E0000000F0000002E000000B4
:1035C0000100000010000000000000000024F400D2
:04000005080000ED02
:00000001FF
