:020000040800F2
:10000000C0070020D10100088D24000885240008C5
:10001000892400089D0A00086D26000800000000E1
:10002000000000000000000000000000952400080F
:10003000C50A000800000000912400089924000867
:10004000EB010008EB010008EB010008EB010008E0
:10005000EB010008EB010008EB010008EB010008D0
:10006000EB010008EB010008EB010008A10A000801
:10007000EB010008EB010008EB010008EB010008B0
:10008000AD0A0008B90A000865090008EB0100087C
:10009000EB010008EB010008EB010008EB01000890
:1000A000EB010008EB010008EB010008EB01000880
:1000B000EB010008EB010008EB010008EB01000870
:1000C000EB010008EB010008EB010008EB01000860
:1000D000EB010008EB01000861260008EB010008B5
:1000E000C90A0008EB010008EB01000800F002F863
:1000F00000F05FF80AA090E8000C82448344AAF163
:100100000107DA4501D100F054F8AFF2090EBAE860
:100110000F0013F0010F18BFFB1A43F0010318473B
:100120005828000078280000103A24BF78C878C109
:10013000FAD8520724BF30C830C144BF04680C60ED
:10014000704700000023002400250026103A28BF35
:1001500078C1FBD8520728BF30C148BF0B60704739
:10016000692900F0D780642900F0D480752900F057
:10017000D1806F2900F06881782900F08F810368B1
:10018000DB0928BF41F08001632900F01D83E329CA
:1001900000F03083002070471FB500F089FB040099
:1001A0000020002102F09CFB401C60601FBD10B5C8
:1001B00010BD00F057FB1146FFF7EEFF02F058FAB2
:1001C00000F07AFB03B4FFF7F2FF03BC00F0C2FBC0
:1001D0000948804709480047FEE7FEE7FEE7FEE7DB
:1001E000FEE7FEE7FEE7FEE7FEE7FEE70448054917
:1001F000054A064B704700009D240008ED000008EA
:10020000C0010020C0070020C0030020C003002060
:100210000FB41CB50C0007AA009007D04142A142C0
:1002200002D32044401E01E04FF0FF30074B7B44D7
:1002300069460190069800F0A2FA0020002C01D037
:10024000009908701CBC5DF814FB000073050000E9
:1002500070B5044685690068C10601D5302600E006
:100260002026C00707D070BDD4E901213046904751
:10027000206A401C20626D1EF6D570BD70B5044624
:1002800085690078C00707D170BDD4E9012120201D
:100290009047206A401C20626D1EF6D570BD09682B
:1002A0004A0501D540B27047C905FCD500B2704778
:1002B00009684A0501D5C0B27047C905FCD580B2AE
:1002C000704770B50C460546012A05D0287880068F
:1002D00000D5EA69002302E0012305E05B1C93429C
:1002E00002D2E05C0028F9D1A869E618C01AA8611A
:1002F000286A184428622846FFF7AAFF04E0D5E9D7
:10030000012114F8010B9047B442F8D32846FFF7B7
:10031000B5FF70BD2DE9F04106460024106875292F
:10032000314616A510D0FFF7BAFF002802DA404286
:1003300013A507E031688A0701D512A502E0490735
:1003400004D511A5012401E0FFF7B2FF00210A2224
:1003500006F1240709E0B0FBF2FCB0FBF2F302FB6C
:100360001C00303078541846491C0028F3D123462D
:100370002A463046BDE8F04100F0A2B90000000076
:100380002D0000002B000000200000002DE9FF5F81
:1003900015468A460446DFF8AC80F8440027D8E9C1
:1003A00000103E46CDE9001010E03AF816106A46FB
:1003B00002A800F02BFA411C07D02178890603D54A
:1003C000E269391891420DD80744761C20788006DE
:1003D00002D5E069B84205DDAE42E6DB3AF8160028
:1003E0000028E2D1A069C01BA0612046FFF730FFC2
:1003F000D8E90010CDE90010002017E03AF81810F5
:100400006A4602A800F002FAB0F1FF3F81460BD025
:1004100000250DF1080B05E0D4E901211BF80500CA
:1004200090476D1C4D45F7D308F10100B04280465E
:10043000E4DB206A384420622046FFF71FFFBDE856
:10044000FF9F00006E25000070B50446214610682D
:10045000FFF72EFF002104F1240505E000F007025C
:100460003032C0086A54491C0028F7D120680023A4
:1004700008A2050708D500F02000084304D0E06971
:10048000012305A2401EE0612046BDE8704000F057
:1004900017B90000000000003000000070B50446ED
:1004A0000D4621461068FFF703FF2188090502D594
:1004B0000F4A7A4402E00E4A7A440E32002104F1D7
:1004C000240305E000F00F060009965D5E54491C08
:1004D0000028F7D120780023000704D5702D02D022
:1004E00009B1022311322046BDE8704000F0E8B89F
:1004F0005E2400002DE9F05F894604464FF0000AB3
:10050000DFF874B1FB44C0F820A02046E1688847BA
:10051000002874D0252806D0D4E901219047206A0C
:10052000401C2062F1E700265F462046E1688847CC
:100530002028054607DB312D05D2781910F8200C4C
:1005400008B10643F1E7B00701D526F00406C4F868
:100550001CA00027C4F818A02A2D09D0284602F0B4
:10056000B8F938B304EB8708303DC8F8185019E0E3
:1005700059F8041B204604EB87029161E168884723
:10058000012F054618D1E069002820DA26F0200660
:100590001DE0D8F8180000EB800005EB4000303873
:1005A000C8F818002046E1688847054602F091F92E
:1005B0000028EED1012F0AD02E2D08D12046E16867
:1005C00088477F1C0546022F46F02006C4DBA06941
:1005D000002803DA404246F00106A061F00701D08E
:1005E00026F010066C2D0BD0682D09D04C2D39D07B
:1005F0006A2D35D0742D35D07A2D33D016E038E001
:10060000E1682F4620468847B842054609D16C2F3D
:1006100026D04FF48060E1680643204688470546AF
:1006200004E06C2F1AD04FF4807006430DB3A5F18F
:100630004100192802D8203546F400664A4629466A
:10064000204626604E46FFF78BFD80B101280BD077
:10065000F61D26F0070000F1080956E74020E4E700
:100660008020D8E70020D6E706F104094DE72846A8
:1006700052E7206ABDE8F09F3424000010B5431C07
:1006800002E010F8011B71B18107FAD14FF001327D
:1006900002C88C1A8C4314EAC211F9D0C01A0A0697
:1006A00003D0C01E10BDC01A10BD0A0401D0801EA8
:1006B00010BD0902FCD0401E10BD70477047704746
:1006C0002DE9F0470D4699469246044600F124086C
:1006D0000168880604D5E06921F01001216000E07E
:1006E0000120A84201DD471B00E00027A1697A191B
:1006F00002EB0900081AA0612078C00602D4204647
:10070000FFF7A6FD002608E0D4E901211AF806004B
:100710009047206A401C761C20624E45F4DB20780E
:10072000C0060AD52046FFF793FD06E0D4E9012173
:1007300030209047206A401C2062381EA7F1010734
:10074000F4DC07E0D4E9012118F805009047206A9D
:10075000401C2062281EA5F10105F3DC2046FFF7AE
:100760008DFD2078000602D50220BDE8F08701202B
:10077000FBE7000001694A1C02610878704700B578
:100780008FB0CDE901310021059105497944CDE9CA
:10079000031011466846FFF7ADFE0FB000BD000024
:1007A000E5FFFFFFD1E900239A4202D2531C0B6000
:1007B0001070704710B5436913B1AFF3008001E0CA
:1007C000FFF77FFD012010BD127800F124010A70AF
:1007D00000224A700122EDE711684FF0FF32E9E78D
:1007E00010B5436913B1AFF3008001E0FFF7CEFD10
:1007F000012010BD128800F1240182840022C284ED
:100800000122EDE711684FF0FF32E9E72DE9F041F1
:1008100016460C46054600F01DF8036893F80101E2
:10082000012807D0FF2C12D8185D80B101202C7050
:10083000BDE8F081D3F807013246214603F20713E1
:10084000C7182846BC46BDE8F041002360474FF07A
:10085000FF30EDE710B500F02BF8001D10BD00BF14
:1008600081200000754600F031F8AE46050069466B
:10087000534620F00700854618B020B5FFF7B6FCB8
:10088000BDE820404FF000064FF000074FF0000891
:100890004FF0000BAC46ACE8C009ACE8C009ACE8CE
:1008A000C009ACE8C00921F007018D46704700007F
:1008B000004870473800002010B50446AFF30080B0
:1008C0002046BDE81040FFF77DBC0000004870479F
:1008D000180000204FF0013C50F8042B51F8043B65
:1008E0009A4221D1A2EB0C03934313EACC1317D104
:1008F00050F8042B51F8043B9A4215D1A2EB0C039B
:10090000934313EACC130BD150F8042B51F8043B5A
:100910009A4209D1A2EB0C03934313EACC13DBD028
:100920004FF00000704700BFD01A01BAB1FA81F150
:1009300001F0180122FA01F0CB40DBB2C0B2C01ABC
:10094000C1F120012CFA01F3D11A914311EAC3112C
:10095000E6D1704701491820ABBEFEE72600020031
:100960007047000040F27C00C2F2000000F088B93D
:100970000146406A826A12F0500F03D0006A026B8F
:10098000084610470168826A42F4007282628968F0
:1009900001F46021B1F5602F01D1017B11B100F0AC
:1009A00069B900BF816A21F480718162816AC904DA
:1009B00048BF00F05FB9816A41F00101816200F037
:1009C00059B90000406A816A41F040018162C16A00
:1009D00041F00401C16200F051B90000406A00F02A
:1009E0004BB90000B0B582B00446002001902168E8
:1009F0008A68D2074FD1886840F00100886040F2D1
:100A00000800C2F2000000684DF68361C4F21B3199
:100A1000A0FB0101880C01900198A0B10198013858
:100A20000190019878B1019801380190019850B176
:100A3000019801380190019828B10198013801907E
:100A400001980028EAD100F021FE21688968C907D1
:100A50001CD1054603E000BF8068C0071AD100F032
:100A600015FE411B20680329F6D38168C907F3D11D
:100A7000A06A40F01000A062E06A40F00100E0626D
:100A8000002084F82400012002B0B0BD002002B094
:100A9000B0BD00BF002002B0B0BD0000FEE7000006
:100AA00040F2F000C2F2000000F07ABB40F23410D5
:100AB000C2F2000000F074BB40F27810C2F20000F5
:100AC00000F06EBB704700004FF4005000F0C2BC55
:100AD000EFF3108072B600BFFEE700007047000021
:100AE00010B581B00022009290F82420012A03D191
:100AF0000221084601B010BD4B680122062B80F888
:100B0000242015D8026803EB8303A3F1050E1F23ED
:100B1000D2F834C003FA0EF40B682CEA040C03FA82
:100B20000EF444EA0C045463092B17D937E000BFD4
:100B300002680C2B20D803EB8303A3F123041F23AB
:100B4000D2F830C003FA04FE0B682CEA0E0C03FA4C
:100B500004F444EA0C041463092B20D8D2F810C022
:100B600003EB4303072489689C402CEA0404994062
:100B700021431161002136E003EB8303A3F141041B
:100B80001F23D2F82CC003FA04FE0B682CEA0E0CCB
:100B900003FA04F444EA0C04D462092BDED903EB13
:100BA0004304D2F80CC0A4F11E0E0724896804FA8D
:100BB0000EF42CEA040401FA0EF1214323F001049F
:100BC000102CD1600ED142F20841C4F20101A1F112
:100BD0000804A2420ED0816A41F020018162012105
:100BE00001E000BF0021002280F82420084601B067
:100BF00010BD00BF0A68120230D40A68102B42F4FC
:100C000000020A602CD140F20801C2F2000109681A
:100C10004DF68362C4F21B32A1FB0212910C01EB70
:100C20008101490000910099E1B1009901390091D9
:100C30000099C9B10099013900910099B1B10099A9
:100C400001390091009999B10099013900910099F9
:100C500000294FF00001E8D1C5E700BF0021C2E73D
:100C60000021C0E70021BEE70021BCE70021BAE770
:100C70000021B8E77047000070470000704700008F
:100C800010B5044600684168890644BF01685FEA00
:100C900081710BD44168090644BF01685FEA417164
:100CA0002AD4416849065BD410BD00BFA16AC906B9
:100CB00003D4A16A41F40071A162816801F460214A
:100CC000B1F5602F10D1217B71B9416821F020016D
:100CD0004160A06A20F48070A062A06AC00403D4BE
:100CE000A06A40F00100A0622046FFF7C3FF206821
:100CF0006FF012010160CDE7A16AC90603D4A16AB1
:100D000041F40051A162816801F4E041B1F5E04F86
:100D100010D1416821F080014160A06A20F4805028
:100D2000A062A06AC00511D4A06A40F00100A062D0
:100D30000CE000BF4168490508D4816801F46021D6
:100D4000B1F5602F02D1217B0029E2D02046FFF7C8
:100D5000C5FE20686FF00C01016041684906A3D50B
:100D60000068C00708BF10BDA06A40F48030A062D0
:100D7000204600F0B3F820686FF00101016010BD5B
:100D8000B0B5002800F0A8800446806A20B1216830
:100D90008868C0070BD114E00020E06284F82400CA
:100DA000204600F09DF821688868C00709D088684F
:100DB00020F00100886000F069FC21688A68D20791
:100DC00026D1A06AC0063AD4A06A41F2021290432A
:100DD0000230A062E069D4E9013240EA030C531EFC
:100DE000B3FA83F35D091346B2F5807F18BF2B0277
:100DF000207D257B01284CEA450030D135B3A56A1A
:100E000045F02005A562E56A45F00105E56226E0AA
:100E1000054602E08868C007D3D000F037FC401BCD
:100E200021680328F6D38868C007F3D0A06A40F091
:100E30001000A062E06A40F00100E062A06AA06ACF
:100E400040F01000A0620120B0BD00BFD4F818C06F
:100E50004EF60005CFF6FF7505EB4C352B434D687C
:100E6000B2F5807F25F4694543EA05034B608B6842
:100E70004FF2FD75CFF6E17503EA050343EA00037F
:100E80008B6001D0012A07D122690023CFF6F073CD
:100E900003EB025201E000BF0022CB6A23F470038F
:100EA0001A43CA62896840F6FE62CFF61F7211408B
:100EB000814207D10020E062A16A012262F30101B0
:100EC000A162B0BDA06A40F0100020F00200A06254
:100ED000E06A40F00100E0620120B0BD7047000010
:100EE00070B586B0044640F60000C4F201002168E7
:100EF00000F5E052002691420596049602D006B015
:100F000070BD00BF41F21801C4F202010A6842F448
:100F100000720A600A6802F400720192019A0A687B
:100F200042F004020A60096801F00401019101998C
:100F3000012102910321039102A900F097FA40F2E6
:100F4000F0050820C2F20005C4F202004FF400725E
:100F5000C5E9000605F1100080214FF400634FF051
:100F6000200C80E80C102846C5E90261EE6100F013
:100F7000E5F9002818BFFFF7ABFD12200021002281
:100F800025626C6200F000FC122000F0EDFB06B060
:100F900070BD000070B515460446006842F60002B8
:100FA000C4F2010290420E4605D042F20041C4F262
:100FB0000101884209D142F20440C4F201000068F4
:100FC00010F4702F1CBF012070BD94F8240001287C
:100FD00004BF022070BD012084F824002046FFF7E2
:100FE00001FD18B1002184F8241070BD42F20440C4
:100FF0002168A26AC4F2010040F601739A4300F529
:101000007F7302F580729942A26243D0A06A20F4F5
:101010008010A0624868400504D5A06A012262F3EE
:101020000D30A062A26A0020D2044FF0000244BF3B
:10103000E26A22F00602E26284F82400206A40F6A6
:101040007112C0F6000240F6DD1340F6C51C00F137
:10105000280EC0F60003C0F6000C8EE80C106FF0EE
:1010600002020A608A682B4642F480728A604C3120
:10107000324600F09FF92068816801F4602281689F
:10108000B2F5602F0CBF41F4A00141F480118160E2
:10109000002070BD026812F4702FB7D0A26A42F42B
:1010A0008012A26200684005BCD5B6E7014690F800
:1010B0002100022816D10868D1E90FC3026822F086
:1010C0000E020260026822F001020260012000FAB2
:1010D00003F2CCF8042081F821000020002281F8DE
:1010E00020207047042088630120002281F82020FE
:1010F0007047000080B590F82110022924D10268C1
:10110000116821F00E0111602F211368C4F2020151
:101110008A4240F20401C4F2020123F00103136089
:1011200016DD3023C4F202039A421DD04423C4F2D8
:1011300002039A421CD05823C4F202039A421DD1E2
:101140004FF4803322E000BF04218163012080BD81
:101150000823C4F202039A420ED01C23C4F20203F5
:101160009A420BD1102311E04FF480730EE000BFC0
:101170004FF480530AE000BF012307E001F1680C3F
:101180004FF08073624508BF4FF480130B60416BD2
:101190004FF48072028401B18847002080BD0000B6
:1011A00010B5D0E90FCE0168DCF800300A6823FAE8
:1011B0000EF35C072AD512F0040427D00A689206C1
:1011C00003D40A6822F004020A602F22C4F2020249
:1011D000914240F20402C4F2020259DD3023C4F20B
:1011E0000203994270D04423C4F20203994271D0A1
:1011F0005823C4F20203994278D14FF4802313603C
:10120000C16A002940F097806EE000BF9C0727D597
:1012100012F0020424D00A68920606D40A6822F06A
:101220000A020A60012280F821202F22C4F2020261
:10123000914240F20402C4F2020239DD3023C4F2CA
:10124000020399425ED04423C4F2020399425DD066
:101250005823C4F2020399425ED14FF4003363E095
:101260001B0741D512F0080208BF10BD0A6822F022
:101270000E020A60012101FA0EF2CCF8042081630B
:10128000016B4FF480720029028454D12CE000BF1E
:101290000823C4F20203994222D01C23C4F20203A1
:1012A000994223D140231360C16A002943D11BE036
:1012B0000823C4F2020399422CD01C23C4F2020377
:1012C000994229D120232FE04FF480631360C16A33
:1012D00089BB09E04FF480431360C16A59BB03E046
:1012E00004231360C16A31BB10BD00BF02F1680462
:1012F0004FF08063A14208BF4FF480031360C16ABE
:10130000C9B9F1E74FF400730EE000BF4FF400538A
:101310000AE000BF022307E002F168044FF0007307
:10132000A14208BF4FF400131360816A0022002914
:1013300080F82020D8D0BDE810400847002804BF1E
:10134000012070472DE9F04101684FF6F872CBF6A5
:10135000FD724CF6CD430A44CCF6CC43A2FB0323EA
:101360006FF0030707EA93030027C4F2020700F1B6
:10137000040E00F11008C0E90F739EE8045098E8CD
:1013800070010B6843F6F077BB431A4342EA0C0244
:1013900042EA0E0222432A43324342EA08020A602A
:1013A00000214FF4807281630284BDE8F041084659
:1013B00070470000F0B590F820C0BCF1010F32D0AA
:1013C00090F821C04FF0010EBCF1010F80F820E031
:1013D00026D14FF0020C80F821C04FF0000CC0F86D
:1013E00038C0D0E900C4C56AC66BDCF80070102CA8
:1013F00027F00107CCF80070006C0EFA00F0706066
:101400000846CCF8043004BF10460A46CCF8080061
:10141000CCF80C20DCF8000045B140F00E000DE0E7
:10142000002180F820100220F0BD00BF20F0040051
:10143000CCF80000DCF8000040F00A00CCF8000016
:10144000DCF8000040F00100CCF800000020F0BD06
:101450007047000040F21441C4F201010A680242E0
:1014600014BF08607047FFF7F3BF00002DE9F04F8D
:1014700082B041F20042C4F201020E68042390429D
:1014800008BF0323002E009300F0F68040F20C4EBC
:101490004FF6FF7CC4F2010E00220124C1F2100CB1
:1014A0004FF0000A4FF0000943E000BF012502F0B1
:1014B0000C040F27A7402BEA070705FA04F43C4366
:1014C00043F82640D1F804B040F20045C4F20105CB
:1014D0005FEACB332B6854BF23EA080343EA0803CF
:1014E0002B606B685FEA8B3454BF23EA080343EA3E
:1014F00008036B605FEACB24AB6854BF23EA0803A0
:1015000043EA08035FEA8B24AB60DEF800304FF05B
:10151000010454BF23EA080343EA0803CEF800306D
:101520000E680AF1010A36FA0AF302F1040200F029
:10153000A38004FA0AF816EA080FF1D04B68634555
:1015400012DC122B56D8DFE803F0350B4549555510
:1015500055555555555555555555554D510000BF87
:10156000D1F80C9046E000BF4FF6FF77C1F221079B
:10157000BB420FDC0027C1F21107BB421AD0002783
:10158000C1F21207BB4215D00027C1F22107BB42AE
:1015900010D02FE00027C1F22207BB420AD000275B
:1015A000C1F23107BB4205D00027C1F23207BB426E
:1015B00020D100BF8B684BB1012B14BFC0F8148041
:1015C000C0F810804FF0080914E000BF4FF0040984
:1015D00010E000BFCB6803F108090BE04FF00009F1
:1015E00008E000BFCB6803F1040903E0CB6803F116
:1015F0000C0900BF13460546BAF1080F24BF203B73
:1016000004352E680F279F40BE4309FA03F3334386
:101610002B60CB79DB067FF583AF41F21804C4F26F
:10162000020423684FEA9A0643F00103236023680B
:1016300040F6000403F001030193019B40F20043D4
:10164000C4F20103A3F57E7353F826B0C4F201047B
:10165000A0420FD040F60044C4F20104A0423FF47F
:1016600025AF41F20004C4F20104009DA04208BF6E
:1016700002251CE700251AE702B0BDE8F08F000044
:10168000002A08BF090401617047000040F2BC1045
:10169000C2F200000068704740F2000040F2BC1146
:1016A000C2F20000C2F2000100780A68104408602B
:1016B0007047000080B542F20000C4F202000168E9
:1016C00041F010010160032000F08AF8002000F0D2
:1016D00005F800F027F8002080BD000070B540F24A
:1016E0000006C2F2000640F208013278C2F20001A0
:1016F0004FF47A730968B3FBF2F20446B1FBF2F1DE
:10170000084600F0E5FB0F2C4FF0010508D838B96A
:101710004FF0FF3021460022002500F035F87460BC
:10172000284670BD82B041F21800C4F20200016880
:10173000022241F001010160016801F00101019103
:101740000199416841F080514160406800F080504B
:10175000009000980420C4F20100016862F31A614D
:10176000016002B070470000002848BF704700F0D9
:101770001F01012202FA01F14EF200124009CEF2DD
:10178000000242F82010704710B54EF60C5CCEF205
:10179000000CDCF80030C3F3022E8EF00704042C9A
:1017A00028BF0424BEF103034FF0FF3E0EFA04F4F9
:1017B00038BF0023A14399400EFA03F39A43114323
:1017C00000F00F02043A624409010C3200F1604358
:1017D000B0F1FF3FC8BF03F56442117010BD0000B7
:1017E0004EF60C51CEF200010A684FF6FF031A4084
:1017F00060F30A2242F0806040F0FD70086070479C
:101800002DE9F04182B00446007841F21C06C00781
:10181000C4F202064AD0306810F0805808D130680F
:1018200040F080503060306800F0805001900198A6
:1018300047F20007C4F200073868C00512D43868C0
:1018400040F480703860FFF721FF05463868C00516
:1018500008D4FFF71BFF401B6428F7D9032002B010
:10186000BDE8F081706810F4407012D0616801F436
:10187000407188420DD0706840F24042C4F242226A
:10188000012320F4407113600023C00713607160CE
:101890002AD17068616820F440700843B8F1000FE5
:1018A000706003D1306820F080503060206881077C
:1018B00007D556F8181CA26821F44041114346F898
:1018C000181CC00604D4002002B0BDE8F08100BF9F
:1018D00056F8180CE16820F48000084346F8180C0C
:1018E000002002B0BDE8F081FFF7D0FE054641F2CE
:1018F000883700BF70688007CBD4FFF7C7FE401B56
:10190000B8424FF00300F5D9EBE700002DE9F043B2
:1019100081B0002800F0858042F20008C4F202087D
:101920000446D8F800000D4600F0070088420CD2AB
:10193000D8F8000020F007002843C8F80000D8F8C5
:10194000000000F00700A8426BD1206841F20409B2
:101950008107C4F2020917D5410705D5D9F800104F
:1019600041F4E061C9F80010010705D5D9F800106D
:1019700041F46051C9F80010D9F80010A26821F0B4
:10198000F0011143C9F80010C00741D1D8F8000098
:1019900000F00700A8420CD9D8F8000020F007009A
:1019A0002843C8F80000D8F8000000F00700A8425B
:1019B00037D12068410707D5D9F80010E26821F433
:1019C000E0611143C9F80010000708D5D9F80000FC
:1019D000216920F4605040EAC100C9F80000D9F83C
:1019E000002002F00C00082841F20020C0F27A002A
:1019F00050D142F66713C2F38341C0F60003595C2D
:101A0000D2033BD440F60010C0F23D00484341E011
:101A1000606802280AD001282AD159F8041C8903D9
:101A200008D4012001B0BDE8F08300BF59F8041CC0
:101A30008901F6D5D9F8001021F003010843C9F84F
:101A40000000FFF723FE064641F28837D9F8000070
:101A5000616800F00C00B0EB810F97D0FFF716FE25
:101A6000801BB842F2D9032001B0BDE8F08300BF6B
:101A700059F8041C8907D4D5DCE700BFD9F8002049
:101A800042F64D13C2F34042C0F600039A5C48434D
:101A9000B0FBF2F0D9F8001042F64F12C1F3031177
:101AA000C0F60002515C40F2080220FA01F140F257
:101AB0000400C2F200000068C2F200021160FFF7E9
:101AC0000DFE002001B0BDE8F083000040F20800E8
:101AD00041F20401C2F20000C4F202010068096888
:101AE00042F65F12C1F30221C0F60002515CC84009
:101AF0007047000040F2080041F20401C2F2000009
:101B0000C4F202010068096842F65F12C1F3C22103
:101B1000C0F60002515CC840704700002DE9F0415A
:101B200082B0002868D00446007841F20006C00761
:101B3000C4F2020625D0706800F00C0004281BD007
:101B4000706800F00C00082802D17068C00313D43C
:101B50006068002800F06881B0F5A02F00F07C815B
:101B6000B0F5803F00F07C81306820F48030306038
:101B7000306820F4802076E13068800301D5606809
:101B8000D0B32078800718D5706810F00C0F07D0FC
:101B9000706800F00C0008286ED17068C0036BD428
:101BA0003068800702D52069012825D13068616935
:101BB00020F0F80040EAC1003060207800071FD410
:101BC0002078400732D4E56995B1706800F00C00C8
:101BD000082840F08F80012D0ED07068216A00F433
:101BE00080328A4208D1616A00F47010884203D1C1
:101BF000002002B0BDE8F081012002B0BDE8F08114
:101C0000A069002862D00020C4F242200121C0F85F
:101C10008014FFF73BFD0546706A800700F18C8059
:101C2000FFF734FD401B0228F6D92AE1F06910F0D5
:101C3000805808D1F06940F08050F061F06900F000
:101C400080500090009847F20007C4F200073868FF
:101C5000C00529D4386840F480703860FFF716FD5D
:101C6000054600BF3868C0051ED4FFF70FFD401BB6
:101C70006428F7D905E100BF2069002840F2000080
:101C8000C4F2422000F0828001210160FFF7FEFCD7
:101C9000054600BF306880073FF588AFFFF7F6FCC8
:101CA000401B0228F6D9ECE0E068002800F08080B4
:101CB000052800F09780012800F09880306A20F015
:101CC00001003062306A20F0040092E00020C4F28B
:101CD00042200021C0F88014FFF7D8FC054600BF61
:101CE000706A80077FF56CAFFFF7D0FC401B0228BD
:101CF000F6D9C6E00027C4F2422700203866FFF775
:101D0000C5FC022D05460BD13068800140F1BE8034
:101D1000FFF7BCFC401B02284FF00300F4D968E732
:101D2000306880017FF564AFFFF7B0FC401B0228EC
:101D30004FF00300F4D95CE740F20800C2F2000063
:101D4000006844F6D351C1F26201A0FB0101480AC8
:101D5000019000BF00BF0198411E002801913FF48F
:101D60002FAF00BF0198411E002801913FF428AF1A
:101D700000BF0198411E002801913FF421AF00BF30
:101D80000198411E00280191E4D119E7002101606A
:101D9000FFF77CFC054600BF306880077FF50DAF7C
:101DA000FFF774FC401B02284FF00300F4D920E732
:101DB000306A20F001003062306A20F004003062A6
:101DC000FFF764FC054641F2883700BF306A8007A0
:101DD00020D5FFF75BFC401BB8424FF00300F5D95C
:101DE00007E700BF306A40F004003062306A40F01C
:101DF00001003062FFF74AFC054641F2883700BF18
:101E0000306A800706D4FFF741FC401BB842F7D97F
:101E100037E000BFB8F1000F7FF4D5AEF06920F0D5
:101E20008050F061CFE600BF306820F48030306031
:101E3000306820F480203060FFF728FC054600BFA2
:101E4000306880037FF59DAEFFF720FC401B6428BF
:101E50004FF00300F4D9CCE6306840F480203060C5
:101E6000306840F480303060FFF710FC054600BF5A
:101E7000306880033FF585AEFFF708FC401B6428FF
:101E8000F6D9032002B0BDE8F08100BF206AB0F5AA
:101E9000803F05D17168A26821F40031114371605F
:101EA0007168626A21F47411104308437060012064
:101EB0003866FFF7EBFB0446306880013FF598AECB
:101EC000FFF7E4FB001B02284FF00300F4D990E673
:101ED000411E0020B0EB116F1CBF012070474EF275
:101EE0001002CEF2000251604EF62351CEF20001F4
:101EF000F0230B700721906011607047704700005D
:101F000070470000B0B582B0026805461068D3681B
:101F1000546900F02F01202903F0200106D129B1D6
:101F2000284602B0BDE8B04000F03EBB5FEA007C4E
:101F30001EBF04F0010E03F4907414EB0E0455D18F
:101F4000296B012905D110F0100118BF13F0100101
:101F500036D1010622D513F080011FD095F83D003F
:101F6000212841D1A868B0F5805F03D128690028F5
:101F700000F0F680286A411C296200785060E88CE5
:101F800001380104E8842FD1D06820F08000D060AF
:101F9000D06840F04000D06002B0B0BD400623D50C
:101FA00013F0400020D0D068202120F04000D06005
:101FB000284685F83D1002B0BDE8B04000F05EBA9A
:101FC00000200190106801905068019001985069BC
:101FD000400613D4A88DE98DEB8D002B1CBF401A51
:101FE0005FEA004140F0A48002B0B0BDC40718BF52
:101FF00013F480732CD1430730D436E0A86B01680A
:102000004B689CB2002CEFD0A98D8C42ECD2EB85B2
:102010008369202B17D0D16821F48071D160516978
:1020200021F001015161516921F0400151612021EC
:1020300085F83E1000212963D16821F01001D1609C
:10204000FFF734F8A98DE88D081A81B2284682E09E
:102050002B6C43F001032B64430706D5BEF1000F40
:1020600003D02B6C43F002032B64830706D5BEF12B
:10207000000F03D02B6C43F004032B64BCF1000F62
:1020800006D551EA0E0303D02B6C43F008032B64F2
:102090002B6C002BA8D010F0200018BF002903D013
:1020A000284600F081FA2A685069296C00F0400047
:1020B00001F0080140182DD0D06820F49070D06055
:1020C000506920F001005061286B012803D1D068CD
:1020D00020F01000D060202085F83E00002028630A
:1020E000506940061ED5506920F040005061A86B31
:1020F000C0B142F2A141C0F600014163FEF7FAFF10
:1021000000283FF471AFA86B416B02B0BDE8B0404E
:10211000084700BF2846FFF7F3FE0020286402B0FE
:10212000B0BD00BF284602B0BDE8B040FFF7E8BE32
:10213000D16821F49071D160516921F001015161A0
:10214000202185F83E1000212963D16821F0100379
:1021500081B22846D36002B0BDE8B040FFF7CEBEE2
:10216000286A30F8021B6FF35F215160286206E78E
:10217000002804BF0120704710B5044690F83D00C8
:1021800028B9002084F83C00204600F05FF82420A5
:1021900084F83D002068D4E90212C36823F4005398
:1021A000C360036923F440531A430261D4E9042352
:1021B0001143C268194341F20C639A431143C16051
:1021C0004169A26921F44071114343F60002C4F24F
:1021D00001029042416103D0FFF778FC02E000BFAA
:1021E000FFF788FC6268192148439100B0FBF1F0C9
:1021F00048F21F51C5F2EB11A0FB01235A096FF001
:10220000630302FB0300322303EB0010A0FB010178
:10221000F02303EA5113206803EB0212C1F34311C8
:1022200011448160016921F490410161416921F00B
:102230002A014161C16841F40051C16000202021A0
:10224000206484F83D1084F83E1010BD2DE9F04163
:1022500086B0044644F200402168C4F20000002623
:102260008142049602D006B0BDE8F08141F2180127
:10227000C4F202014A6840F26C0842F400324A603B
:102280004A6800F5444002F400320192019A0A685B
:10229000C4F2020842F004020A60096801F0040175
:1022A000019101990C21029102210391059102A94A
:1022B000FFF7DCF840F23415C2F20005802728460B
:1022C000C5E90086C5E90267C5E90466C5E9066691
:1022D000FFF734F8002818BFFEF7FAFBA5636C621D
:1022E00040F2781508F11400C2F200051021002216
:1022F00085E887002846C5E90422C5E90622FFF7DC
:102300001DF8002818BFFEF7E3FB2620002100225D
:1023100065636C62FFF738FA2620FFF725FA06B0EE
:10232000BDE8F08170B582B0054690F83E002028E7
:102330000ED113460A4600294FF0010418BF002BA6
:1023400002D1204602B070BD95F83C00012803D1AF
:102350000224204602B070BD012085F83C00002414
:1023600022202C63AA62AB852C6485F83E00296884
:10237000A86B42F2195C42F2655E42F2AD46C0F6CD
:10238000000CC0F6000EC0F600060431C0E90ACE0B
:10239000C0E90C64FFF70EF8019428680168019108
:1023A00041680191019985F83C40C16841F4807110
:1023B000C160416941F001014161416941F0400161
:1023C0004161204602B070BDB0B540F27801C2F262
:1023D000000101F1340420460122FFF7A3FF40F27F
:1023E0000C05C2F200052846FEF748F982B22046E5
:1023F0002946BDE8B04000F003B800007047000077
:1024000070B5044690F83D00202808D14FF0010532
:1024100091B3134682B394F83C00012802D1022004
:1024200070BD00BF012084F83C00002521202162FE
:10243000A384E384256484F83D002268606B42F243
:10244000795C42F2A15E42F2AD46C0F6000CC0F6E5
:10245000000EC0F600060432C0E90ACEC0E90C65E1
:10246000FEF7A8FF20686FF04001016084F83C503F
:10247000416941F080014161284670BD704700000C
:1024800070470000FEE70000FEE70000FEE70000E6
:102490007047000070470000FFF7FEB8704700006B
:1024A000406A0021C185C184FFF72ABD406A0168E6
:1024B0004A6990F83D30212B0BD112F0800208D0F0
:1024C0000022C284CA6822F0C002CA60202280F8BA
:1024D0003D204A6990F83E30222B17D112F040027D
:1024E00014D00022C285CB6823F49073CB604B6973
:1024F00023F001034B61036B012B03D1CB6823F065
:102500001003CB60202180F83E100263016C41F083
:1025100010010164FFF7F4BC0168406A096889068C
:1025200018D40021C1850168CA6822F48072CA608B
:102530004A6922F001024A614A6922F040024A6176
:10254000202280F83E20026B012A03D1CA6822F0C3
:102550001002CA60016B012918BFFFF735BF818DDA
:10256000FFF7CCBC406A016B012918BFFFF746BFDB
:10257000818D4908FFF7C2BC0168406A0968890675
:1025800048BFFFF77BBF0021C1840068416921F08B
:1025900080014161C16841F04001C16070470000A5
:1025A000406AFFF76DBF000081B090F83E1022290D
:1025B00020D18368B3F5805F08D10169002941D03B
:1025C00000F128010A6803685B680AE0014651F8D7
:1025D000282F13B90369002BF5D003685B6803F05B
:1025E0007F0313700A6801320A60C18D01390A0441
:1025F000C18501D001B070470168CA6822F020028D
:10260000CA60CA6822F48072CA604A6922F0010274
:102610004A61202280F83E20026B012A1CD1002250
:102620000263CB6823F01003CB600B68DB0605D593
:1026300000920A680092496800910099818D01B06A
:10264000FFF75CBC0168826A49686FF35F2122F87A
:10265000021B8262C9E700BF01B0FFF7B5BE0000F0
:1026600040F2AC00C2F20000FFF74CBCFEE70000F5
:1026700094B0FFF71FF800240120CDE90F44CDE905
:102680000D440E90102002250F900AA8CDE90B44AE
:102690000394CDE901440A95CDE911541394FFF751
:1026A0003DFA28B1EFF3108072B600BFFEE700BF1D
:1026B0000F20CDE905054FF48060CDE9080405A899
:1026C00000210794FFF722F920B1EFF3108072B6D2
:1026D000FEE700BF4FF0020A00276846CDF800A0D1
:1026E0000297FFF78DF828B1EFF3108072B600BFA4
:1026F000FEE700BF41F218040D97C4F202042068FF
:1027000040F6000940F0100020602068C4F2010982
:1027100000F01000059005982068202140F020006E
:1027200020602068002200F02000059005982068B5
:10273000202640F004002060206800F0040005908E
:102740000598206840F008002060206800F008002C
:10275000059005984846FEF793FF4FF400500A9005
:102760000020C1F211000AADCDE90B0709F50060A8
:102770002946FEF77BFE4FF00108484629460A9697
:10278000CDE90B87CDF834A0FEF770FE282000219C
:102790000022FEF7F9FF2820FEF7E6FF54F8040CAC
:1027A000002140F0010044F8040C54F8040C00220D
:1027B00000F001000A900A980B20FEF7E5FF0B20BD
:1027C000FEF7D2FF102000210022FEF7DDFF1020CF
:1027D000FEF7CAFF112000210022FEF7D5FF1120CD
:1027E000FEF7C2FF40F27805C2F2000509F5E0519C
:1027F000284640F8041F4FF480714FF4602280F89F
:102800000C800775C261C0E90171C0F810A0FEF725
:10281000B7FA28B1EFF3108072B600BFFEE700BF31
:102820000020CDE90A0807202E1D0C900AA9304689
:10283000FEF756F920B1EFF3108072B6FEE700BF45
:1028400010200A9002200B900AA93046FEF748F9A2
:1028500020B1EFF3108072B6FEE700BFA9F5444146
:10286000284640F8341F4FF4E13100270C22C0E91C
:102870000117C0E90377C0E90527C761FFF778FCB6
:1028800020B1EFF3108072B6FEE700BF05A9304615
:102890000222FEF77FFB05F134042046294601227F
:1028A000FFF740FD43F22510C6F630100AAD6E4624
:1028B00001970090059B28460B213246FDF7A8FCA6
:1028C0002846FDF7DBFE82B220462946FFF798FD39
:1028D000F0E730380A2801D2012070470020704705
:1028E00010B500290AD00878002807D00548784498
:1028F000FDF7F0FF002801D0002010BD0248784409
:1029000010BD0000AA000000A200000000000000AE
:102910000000000030313233343536373839414227
:102920004344454640305800303132333435363731
:1029300038396162636465664030780004000008DD
:102940000000000000000002000100001001020071
:10295000000000000000000102030406070809004F
:102960000000000102030402030405060708090A27
:102970000B0C0D0E0F101000A82A000800000020FC
:102980001800000028010008C02A000818000020D4
:10299000A8070000440100081001000043000000E7
:1029A000F8FFFFFF00404040404040404040414170
:1029B0004141414040404040404040404040404014
:1029C00040404040400502020202020202020202AE
:1029D00002020202022020202020202020202002AB
:1029E000020202020202909090909090101010103B
:1029F00010101010101010101010101010101010D7
:102A0000020202020202888888888888080808086A
:102A10000808080808080808080808080808080836
:102A2000020202024000000000000000000000005E
:102A30000000000000000000000000000000000096
:102A40000000000000000000000000000000000086
:102A50000000000000000000000000000000000076
:102A60000000000000000000000000000000000066
:102A70000000000000000000000000000000000056
:102A80000000000000000000000000000000000046
:102A90000000000000000000000000000000000036
:102AA0000000000000000000010000001000000015
:102AB0000024F40061636B0A0000000000000000C5
:04000005080000ED02
:00000001FF
