:020000040800F2
:1000000038070020AD010008A52600089D2600083D
:10001000A1260008ED0D0008892700080000000057
:10002000000000000000000000000000AD260008F5
:10003000FD0D000800000000A9260008B1260008F8
:10004000C7010008C7010008C7010008C701000870
:10005000C7010008C7010008C7010008C701000860
:10006000C7010008C7010008C7010008F10D00081A
:10007000C7010008C7010008C7010008C701000840
:10008000C7010008C7010008C7010008C701000830
:10009000C7010008C7010008C7010008C701000820
:1000A000C7010008C7010008C7010008C701000810
:1000B000C7010008C7010008C7010008C701000800
:1000C000C7010008C7010008C7010008C7010008F0
:1000D000C7010008C70100087D270008C701000804
:1000E000C7010008C7010008C701000800F002F8B6
:1000F00000F04DF80AA090E8000C82448344AAF175
:100100000107DA4501D100F042F8AFF2090EBAE872
:100110000F0013F0010F18BFFB1A43F0010318473B
:100120004837000068370000103A24BF78C878C10B
:10013000FAD8520724BF30C830C144BF04680C60ED
:10014000704700000023002400250026103A28BF35
:1001500078C1FBD8520728BF30C148BF0B60704739
:10016000662903F00B83642900F08480732900F072
:100170002C84002070471FB500F02CFC04000020E8
:10018000002103F039F8E0601FBD10B510BD00F08C
:1001900021FD1146FFF7EFFF02F0F8FA00F03FFDF6
:1001A00003B4FFF7F2FF03BC00F082FD094880476B
:1001B00009480047FEE7FEE7FEE7FEE7FEE7FEE749
:1001C000FEE7FEE7FEE7FEE704480549054A064B61
:1001D00070470000B5260008ED0000083801002037
:1001E0003807002038030020380300200FB41CB566
:1001F0000C0007AA009001D02044401E074B7B440E
:1002000069460190069800F0AEFB002C03D06946C9
:10021000002000F0BBFB1CBC5DF814FB9507000040
:1002200070B50C460546012A05D02878800600D511
:10023000EA69002302E0012305E05B1C934202D23D
:10024000E05C0028F9D1A869E618C01AA861286AFC
:10025000184428622846AFF3008004E0D5E9012164
:1002600014F8010B9047B442F8D32846AFF300804E
:1002700070BD00002DE9F041064600241068752984
:10028000314616A510D0AFF30080002802DA4042B4
:1002900013A507E031688A0701D512A502E04907D6
:1002A00004D511A5012401E0AFF3008000210A224A
:1002B00006F1240709E0B0FBF2FCB0FBF2F302FB0D
:1002C0001C00303078541846491C0028F3D12346CE
:1002D0002A463046BDE8F04100F0D8B800000000E2
:1002E0002D0000002B000000200000002DE9F04749
:1002F0004FF0000A89460446C0F820A02046E16875
:100300008847002876D0252806D0D4E901219047D7
:10031000206A401C2062F1E7E168204600258847FA
:10032000C4F81CA006460027C4F818A02A2E09D03D
:10033000304602F059FF38B304EB8708303EC8F866
:10034000186019E059F8041B204604EB87029161FC
:10035000E1688847012F064618D1E069002820DAB5
:1003600025F020051DE0D8F8180000EB800006EB12
:1003700040003038C8F818002046E1688847064633
:1003800002F032FF0028EED1012F0AD02E2E08D124
:100390002046E16888477F1C0646022F45F020056D
:1003A000C4DBA069002803DA404245F00105A061E2
:1003B000E80701D025F01005B6B1A6F141001928D3
:1003C00002D8203645F400654A463146204625606D
:1003D0004D46FFF7C5FE58B1012806D0ED1D25F0AA
:1003E000070000F1080989E704E005F1040985E741
:1003F00030468AE7206ABDE8F08710B5431C02E06A
:1004000010F8011B71B18107FAD14FF0013202C817
:100410008C1A8C4314EAC211F9D0C01A0A0603D010
:10042000C01E10BDC01A10BD0A0401D0801E10BD30
:100430000902FCD0401E10BD4FF0000200B513466B
:1004400094469646203922BFA0E80C50A0E80C50F4
:10045000B1F12001BFF4F7AF090728BFA0E80C50A5
:1004600048BF0CC05DF804EB890028BF40F8042B9E
:1004700008BF704748BF20F8022B11F0804F18BF0B
:1004800000F8012B70477047704770472DE9F0471F
:100490000D4699469246044600F1240801688806F4
:1004A00004D5E06921F01001216000E00120A8429C
:1004B00001DD471B00E00027A1697A1902EB090062
:1004C000081AA0612078C00602D42046AFF300804D
:1004D000002608E0D4E901211AF806009047206AB6
:1004E000401C761C20624E45F4DB2078C0060AD5FD
:1004F0002046AFF3008006E0D4E901213020904788
:10050000206A401C2062381EA7F10107F4DC07E0D6
:10051000D4E9012118F805009047206A401C2062A8
:10052000281EA5F10105F3DC2046AFF300802078FA
:10053000000602D50220BDE8F0870120FBE72DE987
:10054000FF4F0C461E464FF0FF378BB0D2E900013B
:10055000DDF860800A908A46C1F30A5505B93D4628
:10056000002108464FF00000BAF1000F00F44000EF
:1005700005DA00EB80004FF4400101EA50004FEA39
:100580009059B9F1010F00DDB9460A9850EA4A00C6
:100590000ED044F61050A5F2FF3545432F14B8F1A4
:1005A000000F1ED07542291E1EDDC9F100021CE09D
:1005B000B8F1010F4FF0000001D0302103E0F24309
:1005C00005E02154401CB042FBDB304600220021F4
:1005D00021540B99C1F80880C1E900200FB0BDE893
:1005E000F08FBD1B6D1CDEE74A4600DA694206A8A3
:1005F00000F07AFA06AB93E8070003AB83E8070044
:1006000050460A9902F014FA8DE80700A0F5005050
:100610001F3800900398002D0ADD42F21F014A4660
:100620000844002303A90390684602F07DFC09E01A
:10063000A0F500504A461F38002303A903906846DE
:1006400002F087FC8DE807000004000C03D04FF097
:10065000FF30410800E01046B8F1000F03D000223F
:10066000009215461EE0751E05D400F0B7F9303231
:1006700062556D1EF9D5B3460122084302D000220F
:100680007F1C04E02078302801D100227F1E002A40
:10069000099784D01DE0112D07DA00F09FF9303260
:1006A00062556D1C50EA0102F5D1084302D0009852
:1006B000C8B10EE00021681E05E0235C625C635453
:1006C0002254401E491C8142F7DBAB46A81B401E4A
:1006D0000990002004F80B000B98099AC0F80880D4
:1006E000C0E9002B7AE711264FF0000857E72DE903
:1006F000F04F88460446D21D22F0070191B0D1E99F
:100700000001CDE90A0102F05BFD02460B98C00F23
:1007100001D02D2007E02068810701D52B2002E0C1
:10072000202101EAC000032A099001D0072A05DB35
:1007300003464146204600F097F90BE120788006F9
:1007400001D5E06900E00620B8F1650F814606D0CA
:10075000B8F1660F18D0B8F1670F70D131E0002002
:10076000B9F1110F009001DB112301E009F1010340
:100770000AAA01A90CA8FFF7E2FEDDE90C70002629
:1007800009F10105834647E001204B4600904FF0F8
:1007900000470AAA01A90CA8FFF7D1FEDDE90DB0B8
:1007A0000C995D46002610B909F101000D18B9EB4E
:1007B000050003D4C0F1FF3609F10105A5EB0900DE
:1007C0002BE0B9F1010F01DA4FF001090020B9F176
:1007D000110F0090484601DD112300E003460AAAEC
:1007E00001A90CA8FFF7ABFEDDE90C704D46002611
:1007F0008346207800070AD4AB4500DA5D4601A89D
:10080000012D04DD411911F8011C302907D04F4595
:1008100002DA17F1040F04DA012082460FE06D1EA0
:10082000EEE7002F02DCED1B3E4403E0781CA842FB
:1008300000DD7D1CB81B00F1010A4FF00047207855
:10084000000703D4AA4501DB4FF0FF3A0021B7F1BE
:10085000004F0DF143088DF8431024D002202B23C4
:10086000002F01DA7F422D230A21021EA0F1010090
:1008700000DC5FB197FBF1FC97FBF1F201FB1C7C04
:1008800017460CF1300C08F801CDEEE7A8F1010095
:1008900003702188090501D5452100E06521A0F1FB
:1008A000010800F8011C09980FA9A1EB0807FF1D1A
:1008B00000B10120411901EBEA70A1693844081A1E
:1008C000401EA0612078C00602D42046AFF300800D
:1008D000099828B1D4E901219047206A401C206280
:1008E0002078C00622D52046AFF300801EE0002EFF
:1008F00004DBB34502DD01A8805D00E03020D4E9CF
:1009000001219047206A401C2062761CAAF1010058
:100910005FEA000A0AD100F05DF8C0680168405C37
:10092000D4E901219047206A401C2062281EA5F1CD
:100930000105DCDC07E0D4E9012118F8010B904740
:10094000206A401C2062381EA7F10107F3DC204614
:10095000AFF30080032011B041E6000001694A1C9A
:1009600002610878704700B58FB0CDE901310021F0
:10097000059105497944CDE9031011466846FFF712
:10098000B5FC0FB000BD0000E5FFFFFF0A6802F8EC
:10099000010B0A607047D1E900239A4202D2531C2E
:1009A0000B601070704710B5436913B1AFF300804E
:1009B00001E0FFF735FC012010BD127800F12401A1
:1009C0000A7000224A700122EDE711684FF0FF32F1
:1009D000E9E70000004870473000002030B5B0F172
:1009E0000A0271F100034FEA900E4EEA817EB0EBED
:1009F0000E0061EB91014FEA101E4EEA017E10EBF2
:100A00000E0041EB11114FEA102E4EEA016E10EB71
:100A10000E0041EB11214FEA104E4EEA014E10EB51
:100A20000E0041EB1141401841F100014FEAD000A6
:100A300040EA41704FEAD1014FEA810444EA9074E0
:100A400010EB800544EB01046D1944EB0404521BC8
:100A5000A3414FF0000348BF0A3200D530BD401C0F
:100A600041F1000130BD00002DE9F0411F46044670
:100A700003260168072A01F4006004DB08B116A50B
:100A800005E016A503E008B115A500E015A521F0C5
:100A900010002060A069C01EA0610FB1401EA061BF
:100AA0002046AFF300804FB1D4E90121384690478A
:100AB000206A401C2062C01C206206E0206AFAE71F
:100AC000D4E9012115F8010B9047761EF8D2204693
:100AD000AFF30080BDE8F0814E414E006E616E00C4
:100AE000494E4600696E66002DE9F047814616467C
:100AF0008AB0354878440DC88DE80D0032487844F6
:100B0000801C03AC0DC884E80D0041F69B300844FE
:100B1000372190FBF1F290FBF1F5A5F1800501FB87
:100B200012041B3C02D56442012000E00020DFF8E3
:100B300098A080460027FA44AAF1BE0A0EE0E0071A
:100B40000AD03246684607EB470101230AEB8101D0
:100B500002F0FFF98DE8070064107F1C002CEED135
:100B6000194F7F44AE3F19E0E80715D007EB04109A
:100B70000DF1180A90E80E008AE80E00C068F042F5
:100B800001D1981908903246012306A903A802F062
:100B9000E0F903AB83E807006D10641C002DE3D17E
:100BA0004FF0010332466946B8F1000F03A802D0A6
:100BB00002F0BAF901E002F0CCF9C9E90001C9F884
:100BC00008200AB0BDE8F087042D000000487047F7
:100BD000100000207546FFF7F9FFAE460500694694
:100BE000534620F00700854618B020B5FFF7ECFA11
:100BF000BDE820404FF000064FF000074FF000081E
:100C00004FF0000BAC46ACE8C009ACE8C009ACE85A
:100C1000C009ACE8C00921F007018D46704710B546
:100C20000446AFF300802046BDE81040FFF7B8BA95
:100C30004FF0013C50F8042B51F8043B9A4221D16B
:100C4000A2EB0C03934313EACC1317D150F8042BF7
:100C500051F8043B9A4215D1A2EB0C03934313EADB
:100C6000CC130BD150F8042B51F8043B9A4209D114
:100C7000A2EB0C03934313EACC13DBD04FF000003C
:100C8000704700BFD01A01BAB1FA81F101F0180122
:100C900022FA01F0CB40DBB2C0B2C01AC1F1200190
:100CA0002CFA01F3D11A914311EAC311E6D170472E
:100CB00001491820ABBEFEE7260002007047000085
:100CC0000146406A826A12F0500F03D0006A026B3C
:100CD000084610470168826A42F40072826289689D
:100CE00001F46021B1F5602F01D1017B11B100F059
:100CF00049B900BF816A21F480718162816AC904A7
:100D000048BF00F03FB9816A41F00101816200F003
:100D100039B90000406A816A41F040018162C16ACC
:100D200041F00401C16200F031B90000406A00F0F6
:100D30002BB90000B0B582B00446002001902168B4
:100D40008A68D2074FD1886840F00100886040F27D
:100D50000800C2F2000000684DF68361C4F21B3146
:100D6000A0FB0101880C01900198A0B10198013805
:100D70000190019878B1019801380190019850B123
:100D8000019801380190019828B10198013801902B
:100D900001980028EAD100F085FD21688968C9071B
:100DA0001CD1054603E000BF8068C0071AD100F0DF
:100DB00079FD411B20680329F6D38168C907F3D167
:100DC000A06A40F01000A062E06A40F00100E0621A
:100DD000002084F82400012002B0B0BD002002B041
:100DE000B0BD00BF002002B0B0BD0000FEE70000B3
:100DF00040F2EC00C2F2000000F0D6BA70470000EA
:100E0000EFF3108072B600BFFEE70000B0B581B00E
:100E10000022009290F82420012A03D102210846E2
:100E200001B0B0BD4B680122062B80F8242023D8E6
:100E3000D0F800C003EB830362465D1F1F2352F806
:100E400034EF03FA05F40B682EEA040E03FA05F4F6
:100E500044EA0E05092B15602DD8DCF8102003EBB1
:100E60004303072589689D40AA4399401143CCF864
:100E7000101000213FE000BFD0F800C00C2B6246EC
:100E800006D852F830EF03EB8303A3F1230405E007
:100E900052F82CEF03EB8303A3F141041F2303FA61
:100EA00004F50B682EEA050E03FA04F444EA0E0575
:100EB000092B1560D1D903EB4305DCF80C201E3D4E
:100EC00007248968AC40A243A940114323F00102E2
:100ED000102ACCF80C100DD142F20841C4F20101E5
:100EE000A1F1080294450DD0816A41F02001816290
:100EF000012100E00021002280F82420084601B0F2
:100F0000B0BD00BF0A68120230D40A68102B42F448
:100F100000020A602CD140F20801C2F20001096807
:100F20004DF68362C4F21B32A1FB0212910C01EB5D
:100F30008101490000910099E1B1009901390091C6
:100F40000099C9B10099013900910099B1B1009996
:100F500001390091009999B10099013900910099E6
:100F600000294FF00001E8D1C5E700BF0021C2E72A
:100F70000021C0E70021BEE70021BCE70021BAE75D
:100F80000021B8E77047000070470000704700007C
:100F9000002804BF0120704770B50646044656F885
:100FA000280F28B121688868C0070CD115E000BF60
:100FB0000020E06284F82400204600F09DF82168BB
:100FC0008868C00709D0886820F00100886000F0B8
:100FD00069FC21688A68D20726D13068C0063AD4F5
:100FE000A06A41F2021290430230A062E069D4E9A3
:100FF000013240EA030C531EB3FA83F35D09134632
:10100000B2F5807F18BF2B02207D257B01284CEA9A
:10101000450030D135B3A56A45F02005A562E56AE3
:1010200045F00105E56226E0054602E08868C00754
:10103000D3D000F037FC401B21680328F6D3886822
:10104000C007F3D0A06A40F01000A062E06A40F050
:101050000100E062A06A306840F0100101203160B8
:1010600070BD00BFD4F818C04EF60005CFF6FF756E
:1010700005EB4C352B434D68B2F5807F25F469456F
:1010800043EA05034B608B684FF2FD75CFF6E175BF
:1010900003EA050343EA00038B6001D0012A07D16C
:1010A00022690023CFF6F07303EB025201E000BF88
:1010B0000022CB6A23F470031A43CA62896840F69F
:1010C000FE62CFF61F721140814207D10020E0621C
:1010D000A16A012262F30101316070BDA06A40F093
:1010E000100020F00200A06254F82C0F40F0010123
:1010F00001202646316070BD70B586B0044640F6CA
:101100000000C4F20100216800F5E052002691427F
:101110000596049602D006B070BD00BF41F21801DA
:10112000C4F202010A6842F400720A600A6802F41A
:1011300000720192019A0A6842F004020A6009688A
:1011400001F00401019101991221029103210391FF
:1011500002A900F09FFA40F2EC050820C2F2000557
:10116000C4F202004FF40072C5E9000605F1100058
:1011700080214FF400634FF0200C80E80C102846CB
:10118000C5E90261EE6100F0E7F9002818BFFFF73A
:1011900037FE25626C6206B070BD000070B5154662
:1011A0000446006842F60002C4F2010290420E4674
:1011B00005D042F20041C4F20101884209D142F255
:1011C0000440C4F20100006810F4702F1CBF01201D
:1011D00070BD94F82400012804BF022070BD0120D6
:1011E00084F824002046FFF7A5FD18B1002184F8FB
:1011F000241070BD42F204402168A26AC4F20100CA
:1012000040F601739A4300F57F7302F580729942AC
:10121000A26243D0A06A20F48010A0624868400512
:1012200004D5A06A012262F30D30A062A26A0020F8
:10123000D2044FF0000244BFE26A22F00602E262EA
:1012400084F82400206A40F6C142C0F6000240F64D
:101250002D5340F6155C00F1280EC0F60003C0F6D1
:10126000000C8EE80C106FF002020A608A682B46B0
:1012700042F480728A604C31324600F0A9F920684D
:10128000816801F460228168B2F5602F0CBF41F4DF
:10129000A00141F480118160002070BD026812F449
:1012A000702FB7D0A26A42F48012A2620068400593
:1012B000BCD5B6E7014690F82100022816D108688F
:1012C000D1E90FC3026822F00E020260026822F028
:1012D00001020260012000FA03F2CCF8042081F838
:1012E00021000020002281F820207047042088631C
:1012F0000120002281F820207047000080B590F87E
:101300002110022924D10268116821F00E01116018
:101310002F211368C4F202018A4240F20401C4F290
:10132000020123F00103136016DD3023C4F202032F
:101330009A421DD04423C4F202039A421CD058237F
:10134000C4F202039A421DD14FF4803322E000BF61
:1013500004218163012080BD0823C4F202039A4264
:101360000ED01C23C4F202039A420BD1102311E0C9
:101370004FF480730EE000BF4FF480530AE000BFCB
:10138000012307E001F1680C4FF08073624508BF4C
:101390004FF480130B60416B4FF48072028401B1F3
:1013A0008847002080BD000010B50168D0E90FCE4D
:1013B000DCF800200B685C072CD5042404FA0EF43A
:1013C000144027D00A68920603D40A6822F0040267
:1013D0000A602F22C4F20202914240F20402C4F2D7
:1013E00002025FDD3023C4F20203994276D0442327
:1013F000C4F20203994277D05823C4F202039942FF
:1014000040F07E804FF480231360C16A002940F0D1
:1014100082809FE09C0729D5022404FA0EF4144030
:1014200024D00A68920606D40A6822F00A020A60EA
:10143000012280F821202F22C4F20202914240F2C0
:101440000402C4F202023DDD3023C4F202039942D9
:1014500064D04423C4F20203994263D05823C4F2F7
:101460000203994264D14FF4003369E01B0771D540
:10147000082303FA0EF31A4008BF10BD0A6822F0D1
:101480000E020A60012101FA0EF2CCF804208163F9
:10149000016B4FF48072002902845BD0BDE81040DC
:1014A000084700BF0823C4F20203994222D01C233C
:1014B000C4F20203994223D140231360C16A51BB95
:1014C00048E000BF0823C4F2020399422ED01C2337
:1014D000C4F2020399422BD1202331E04FF4806300
:1014E0001360C16AB9B935E04FF480431360C16A33
:1014F00089B92FE004231360C16A61B92AE000BFF3
:1015000002F168044FF08063A14208BF4FF48003EA
:101510001360C16AF1B1BDE8104008474FF4007391
:101520000EE000BF4FF400530AE000BF022307E0C3
:1015300002F168044FF00073A14208BF4FF400139A
:101540001360816A002280F8202019B1BDE81040A4
:10155000084700BF10BD0000002804BF01207047ED
:101560002DE9F04101684FF6F872CBF6FD724CF6AA
:10157000CD430A44CCF6CC43A2FB03236FF0030710
:1015800007EA93030027C4F2020700F1040E00F1FA
:101590001008C0E90F739EE8045098E870010B68CA
:1015A00043F6F077BB431A4342EA0C0242EA0E02CA
:1015B00022432A43324342EA08020A6000214FF4E0
:1015C000807281630284BDE8F041084670470000E4
:1015D000F0B590F820C0BCF1010F32D090F821C0D6
:1015E0004FF0010EBCF1010F80F820E026D14FF042
:1015F000020C80F821C04FF0000CC0F838C0D0E9D0
:1016000000C4C56AC66BDCF80070102C27F0010717
:10161000CCF80070006C0EFA00F070600846CCF850
:10162000043004BF10460A46CCF80800CCF80C2061
:10163000DCF8000045B140F00E000DE0002180F81C
:1016400020100220F0BD00BF20F00400CCF8000004
:10165000DCF8000040F00A00CCF80000DCF80000E4
:1016600040F00100CCF800000020F0BDB0B5044609
:1016700000F018F9054640F20000C2F200000078C0
:10168000611C18BF044400BF00F00CF9401BA042CD
:10169000FAD3B0BD2DE9F04F82B00E68002E00F0F5
:1016A000FD8041F20042C4F20102042340F2004EE8
:1016B000904208BF03234FF6FF7CC4F2010E009353
:1016C00000240123C1F2100C4FF0000A4FF0000972
:1016D00046E000BF012504F00C030F279F402BEAD2
:1016E000070705FA03F33B4342F82630D1F804B06C
:1016F0005FEACB32DEF8002054BF22EA080242EA59
:101700000802CEF80020DEF804205FEA8B3354BFD5
:1017100022EA080242EA0802CEF804205FEACB235C
:10172000DEF8082054BF22EA080242EA08025FEA13
:101730008B2340F20C43CEF80820C4F201031A6850
:1017400054BF22EA080242EA08021A6001230E6826
:101750000AF1010A36FA0AF204F1040400F09E804C
:1017600003FA0AF816EA080FF1D04A68624511DC5C
:10177000122A55D8DFE802F0340A4448545454542D
:101780005454545454545454544C5000D1F80C9064
:1017900046E000BF4FF6FF75C1F22105AA420FDCFB
:1017A0000025C1F21105AA421AD00025C1F2120586
:1017B000AA4215D00025C1F22105AA4210D02FE07F
:1017C0000025C1F22205AA420AD00025C1F2310546
:1017D000AA4205D00025C1F23205AA4220D100BF9D
:1017E0008A684AB1012A14BFC0F81480C0F810807A
:1017F0004FF0080914E000BF4FF0040910E000BFEB
:10180000CA6802F108090BE04FF0000908E000BFC8
:10181000CA6802F1040903E0CA6802F10C0900BFBA
:1018200022460546BAF1080F24BF203A04352E6837
:101830000F279740BE4309FA02F232432A60CA7961
:10184000D2067FF584AF41F21803C4F202031A688E
:101850004FEA9A0642F001021A601A6840F6000345
:1018600002F001020192019AAEF57E7252F826B0A2
:10187000C4F2010398420FD040F60043C4F20103C2
:1018800098423FF427AF41F20003C4F20103009DE8
:10189000984208BF02251EE700251CE702B0BDE8FC
:1018A000F08F000040F23010C2F200000068704774
:1018B00040F2000040F23011C2F20000C2F200011A
:1018C00000780A68104408607047000080B542F252
:1018D0000000C4F20200016841F010010160032021
:1018E00000F08AF80F2000F005F800F027F800203B
:1018F00080BD000070B540F20006C2F2000640F262
:1019000008013278C2F200014FF47A730968B3FB20
:10191000F2F20446B1FBF2F1084600F0E5FB0F2CB1
:101920004FF0010508D838B94FF0FF3021460022AA
:10193000002500F035F87460284670BD82B041F291
:101940001800C4F202000168042241F001010160A4
:10195000016801F0010101910199416841F0805154
:101960004160406800F08050009000980420C4F26C
:101970000100016862F31A61016002B07047000063
:10198000002848BF704700F01F01012202FA01F150
:101990004EF200124009CEF2000242F820107047C9
:1019A00010B54EF60C5CCEF2000CDCF80030C3F340
:1019B000022E8EF00704042C28BF0424BEF103037A
:1019C0004FF0FF3E0EFA04F438BF0023A1439940C4
:1019D0000EFA03F39A4300F00F03043B11436344F0
:1019E00009010C3300F16042B0F1FF3FC8BF02F5BE
:1019F0006443197010BD00004EF60C51CEF2000188
:101A00000A684FF6FF031A4060F30A2242F0806032
:101A100040F0FD70086070472DE9F04182B0044647
:101A2000007841F21C06C007C4F202064AD03068B2
:101A300010F0805808D1306840F080503060306835
:101A400000F080500190019847F20007C4F20007AF
:101A50003868C00512D4386840F480703860FFF7E9
:101A600021FF05463868C00508D4FFF71BFF401B5F
:101A70006428F7D9032002B0BDE8F081706810F443
:101A8000407012D0616801F4407188420DD07068D6
:101A900040F24042C4F24222012320F4407113601C
:101AA0000023C007136071602AD17068616820F458
:101AB00040700843B8F1000F706003D1306820F027
:101AC000805030602068810707D556F8181CA2683E
:101AD00021F44041114346F8181CC00604D40020EC
:101AE00002B0BDE8F08100BF56F8180CE16820F4A0
:101AF0008000084346F8180C002002B0BDE8F081D1
:101B0000FFF7D0FE054641F2883700BF70688007B6
:101B1000CBD4FFF7C7FE401BB8424FF00300F5D906
:101B2000EBE700002DE9F04381B0002800F085804C
:101B300042F20008C4F202080446D8F800000D463C
:101B400000F0070088420CD2D8F8000020F007000F
:101B50002843C8F80000D8F8000000F00700A842A9
:101B60006BD1206841F204098107C4F2020917D53C
:101B7000410705D5D9F8001041F4E061C9F800101B
:101B8000010705D5D9F8001041F46051C9F80010DB
:101B9000D9F80010A26821F0F0011143C9F8001033
:101BA000C00741D1D8F8000000F00700A8420CD9C6
:101BB000D8F8000020F007002843C8F80000D8F843
:101BC000000000F00700A84237D12068410707D580
:101BD000D9F80010E26821F4E0611143C9F800105F
:101BE000000708D5D9F80000216920F4605040EAC8
:101BF000C100C9F80000D9F8002002F00C00082844
:101C000041F20020C0F27A0050D143F65003C2F3F3
:101C10008341C0F60003595CD2033BD440F6001068
:101C2000C0F23D00484341E0606802280AD0012824
:101C30002AD159F8041C890308D4012001B0BDE859
:101C4000F08300BF59F8041C8901F6D5D9F80010BB
:101C500021F003010843C9F80000FFF723FE064600
:101C600041F28837D9F80000616800F00C00B0EB51
:101C7000810F97D0FFF716FE801BB842F2D90320E0
:101C800001B0BDE8F08300BF59F8041C8907D4D522
:101C9000DCE700BFD9F8002043F61403C2F340424A
:101CA000C0F600039A5C4843B0FBF2F0D9F800108C
:101CB00043F63802C1F30311C0F60002515C40F252
:101CC000080220FA01F140F20400C2F200000068AC
:101CD000C2F200021160FFF70DFE002001B0BDE866
:101CE000F083000040F2080041F20401C2F200005B
:101CF000C4F202010068096843F64802C1F30221F8
:101D0000C0F60002515CC8407047000040F2080075
:101D100041F20401C2F20000C4F202010068096845
:101D200043F64802C1F3C221C0F60002515CC8402C
:101D3000704700002DE9F04182B0002868D00446C9
:101D4000007841F20006C007C4F2020625D0706890
:101D500000F00C0004281BD0706800F00C0008286C
:101D600002D17068C00313D46068002800F0688155
:101D7000B0F5A02F00F07C81B0F5803F00F07C81B1
:101D8000306820F480303060306820F4802076E1C4
:101D90003068800301D56068D0B32078800718D5FB
:101DA000706810F00C0F07D0706800F00C00082865
:101DB0006ED17068C0036BD43068800702D520698B
:101DC000012825D13068616920F0F80040EAC1009F
:101DD0003060207800071FD42078400732D4E569AE
:101DE00095B1706800F00C00082840F08F80012D3C
:101DF0000ED07068216A00F480328A4208D1616A8C
:101E000000F47010884203D1002002B0BDE8F081D8
:101E1000012002B0BDE8F081A069002862D0002056
:101E2000C4F242200121C0F88014FFF73BFD0546B3
:101E3000706A800700F18C80FFF734FD401B022898
:101E4000F6D92AE1F06910F0805808D1F06940F025
:101E50008050F061F06900F080500090009847F2E7
:101E60000007C4F200073868C00529D4386840F478
:101E700080703860FFF716FD054600BF3868C00562
:101E80001ED4FFF70FFD401B6428F7D905E100BF02
:101E90002069002840F20000C4F2422000F0828055
:101EA00001210160FFF7FEFC054600BF3068800796
:101EB0003FF588AFFFF7F6FC401B0228F6D9ECE0AF
:101EC000E068002800F08080052800F09780012855
:101ED00000F09880306A20F001003062306A20F013
:101EE000040092E00020C4F242200021C0F88014D7
:101EF000FFF7D8FC054600BF706A80077FF56CAF1E
:101F0000FFF7D0FC401B0228F6D9C6E00027C4F238
:101F1000422700203866FFF7C5FC022D05460BD18D
:101F20003068800140F1BE80FFF7BCFC401B0228F6
:101F30004FF00300F4D968E7306880017FF564AFA3
:101F4000FFF7B0FC401B02284FF00300F4D95CE718
:101F500040F20800C2F20000006844F6D351C1F21A
:101F60006201A0FB0101480A019000BF00BF019877
:101F7000411E002801913FF42FAF00BF0198411E80
:101F8000002801913FF428AF00BF0198411E0028AE
:101F900001913FF421AF00BF0198411E002801913B
:101FA000E4D119E700210160FFF77CFC054600BF82
:101FB000306880077FF50DAFFFF774FC401B0228E7
:101FC0004FF00300F4D920E7306A20F001003062BE
:101FD000306A20F004003062FFF764FC054641F2ED
:101FE000883700BF306A800720D5FFF75BFC401BB5
:101FF000B8424FF00300F5D907E700BF306A40F060
:1020000004003062306A40F001003062FFF74AFCA1
:10201000054641F2883700BF306A800706D4FFF7D3
:1020200041FC401BB842F7D937E000BFB8F1000FC0
:102030007FF4D5AEF06920F08050F061CFE600BFAC
:10204000306820F480303060306820F480203060C8
:10205000FFF728FC054600BF306880037FF59DAE82
:10206000FFF720FC401B64284FF00300F4D9CCE6B6
:10207000306840F480203060306840F48030306058
:10208000FFF710FC054600BF306880033FF585AEC2
:10209000FFF708FC401B6428F6D9032002B0BDE816
:1020A000F08100BF206AB0F5803F05D17168A26859
:1020B00021F40031114371607168626A21F4741176
:1020C00010430843706001203866FFF7EBFB0446BD
:1020D000306880013FF598AEFFF7E4FB001B022853
:1020E0004FF00300F4D990E6411E0020B0EB116FD1
:1020F0001CBF012070474EF21002CEF20002516068
:102100004EF62351CEF20001F0230B7007219060B0
:10211000116070477047000070470000B0B582B092
:10212000026805461068D168546900F02F03202B1F
:1021300001F0200306D12BB1284602B0BDE8B04023
:1021400000F0C0BA5FEA007C1EBF04F0010E01F48B
:10215000907414EB0E042DD12B6B0840C10617D5DB
:10216000012B15D10020019010680190506801905A
:1021700001985069400625D4A88DE98DEB8D002B80
:102180001CBF401A5FEA004140F0CA8002B0B0BDF7
:10219000010645D44006F9D5D068202120F0400042
:1021A000D060284685F83D1002B0BDE8B04000F090
:1021B00073BA00BFC40718BF11F4807442D144073A
:1021C00046D44CE0A86B01684B689CB2002CDDD073
:1021D000A98D8C42DAD2EB858369202B17D0D16888
:1021E00021F48071D160516921F00101516151697F
:1021F00021F040015161202185F83E100021296322
:10220000D16821F01001D160FFF754F8A98DE88D55
:10221000081A81B2284602B0BDE8B040FFF77ABF85
:1022200095F83D002128B1D1A868B0F5805F03D1B1
:102230002869002800F08C80286A411C29620078F7
:1022400050608CE02C6C44F001042C64440706D5EB
:10225000BEF1000F03D02C6C44F002042C64840700
:1022600006D5BEF1000F03D02C6C44F004042C649E
:10227000BCF1000F06D553EA0E0303D02B6C43F0DC
:1022800008032B642B6C002B3FF480AF08408006C2
:1022900003D5284600F016FA2A685069296C00F028
:1022A000400001F00801401832D0D06820F490704E
:1022B000D060506920F001005061286B012803D1E3
:1022C000D06820F01000D060202085F83E0000206B
:1022D00028635069400615D5506920F040005061D0
:1022E000A86B78B142F2B961C0F600014163FFF713
:1022F00005F800283FF44AAFA86B416B02B0BDE877
:10230000B0400847284602B0BDE8B040FFF704BF20
:102310002846FFF701FF0020286402B0B0BD00BFCF
:10232000D16821F49071D160516921F001015161AE
:10233000202185F83E1000212963D16821F0100387
:1023400081B22846D36002B0BDE8B040FFF7E2BEDC
:10235000286A30F8021B6FF35F2151602862E88C15
:1023600001380104E8847FF411AFD06820F08000C8
:10237000D060D06840F04000D06002B0B0BD000036
:10238000002804BF0120704710B5044690F83D00B6
:1023900028B9002084F83C00204600F05FF8242093
:1023A00084F83D002068D4E90212C36823F4005386
:1023B000C360036923F440531A430261D4E9042340
:1023C0001143C268194341F20C639A431143C1603F
:1023D0004169A26921F44071114343F60002C4F23D
:1023E00001029042416103D0FFF77CFC02E000BF94
:1023F000FFF78CFC6268192148439100B0FBF1F0B3
:1024000048F21F51C5F2EB11A0FB01235A096FF0EE
:10241000630302FB0300322303EB0010A0FB010166
:10242000F02303EA5113206803EB0212C1F34311B6
:1024300011448160016921F490410161416921F0F9
:102440002A014161C16841F40051C160002020218E
:10245000206484F83D1084F83E1010BD70B586B03D
:1024600040F60004C4F201040068A4F544410026CB
:102470008842049602D006B070BD00BF41F2180039
:10248000C4F20200416802AD41F40031416041688C
:1024900001F4003101910199016841F004010160EA
:1024A0000068294600F00400019001980420029081
:1024B00002200390032005902046FFF7EBF8082048
:1024C000CDE90206204629460496FFF7E3F82620C8
:1024D00000210022FFF764FA2620FFF751FA06B028
:1024E00070BD0000704700002DE9F04381B0044644
:1024F00090F83D0020280DD10F4600294FF0010033
:1025000000F092801646002A00F08E8094F83C007D
:10251000012803D1022001B0BDE8F083012084F836
:102520003C004FF0000921201D46C4F8409084F87B
:102530003D00FFF7B7F9A684E684A1688046B1F5AF
:10254000805F25D1206900281CBF38464F463E4693
:10255000074684F83C90E08C00B3681C20D0002D26
:1025600066D120680BE000BF36F8021B00276FF32E
:102570005F214160E18C0139E184E18C81B3016824
:10258000090675D5002FEFD017F8011BF1E700BF42
:10259000002684F83C90E08C0028DED120681FE003
:1025A000206802E00168090609D4016809065FBFD6
:1025B00001685FEA016101685FEA0161F2D51FB15C
:1025C00017F8011B05E000BF36F8021B00276FF368
:1025D0005F214160E18C0139E184E18C0029E4D183
:1025E000016849061CD4002D42D0691C0ED1016837
:1025F000490615D4016849065CBF01685FEA41617C
:102600000ED401684906F2D50AE000BFFFF74AF987
:10261000A0EB08012068A9422AD800684006F5D539
:10262000202084F83D00002001B0BDE8F08300BF09
:10263000206800BF0168090608D4FFF733F9A0EB52
:1026400008012068A942F5D912E000BF17B117F8B8
:10265000011B04E036F8021B00276FF35F21416085
:10266000E18C0139E184E18C0029E3D1B8E700BFB6
:10267000C16821F4D071C160416921F0010141615B
:10268000202084F83D0084F83E00002084F83C00BF
:10269000032001B0BDE8F08370470000FEE70000B2
:1026A000FEE70000FEE700007047000070470000F2
:1026B000FFF7FEB870470000406A0021C185C18461
:1026C000FFF72ABD81B090F83E10222920D18368FF
:1026D000B3F5805F08D10169002941D000F12801DC
:1026E0000A6803685B680AE0014651F8282F13B9AD
:1026F0000369002BF5D003685B6803F07F03137058
:102700000A6801320A60C18D01390A04C18501D00D
:1027100001B070470168CA6822F02002CA60CA6826
:1027200022F48072CA604A6922F001024A612022C2
:1027300080F83E20026B012A1CD100220263CB6884
:1027400023F01003CB600B68DB0605D500920A6806
:102750000092496800910099818D01B0FFF7DABCC1
:102760000168826A49686FF35F2122F8021B826266
:10277000C9E700BF01B0FFF7B5BE000040F2A800F6
:10278000C2F20000FFF7CABCFEE70000F0B503AFDD
:1027900095B0FFF79BF8A7F13804201D2421FDF721
:1027A0004BFE022047F8380C012047F8280C102077
:1027B000002547F8240C204647F83C5C47E91155B2
:1027C00047E9135547E9155547E9175547F81C5C84
:1027D000FFF7B0FA20B1EFF3108072B6FEE700BF4A
:1027E0000F2047E91305A7F14C00002147E91155D7
:1027F00047F83C5CFFF796F920B1EFF3108072B612
:10280000FEE700BF02250026A7F15C0047F85C5CEC
:1028100047F8546CFFF700F920B1EFF3108072B65F
:10282000FEE700BF41F21400C4F20200416844F226
:10283000004841F0040141604168002201F00401B8
:1028400047F8381C57F8381C0168C4F2000841F0FA
:10285000010101600068002100F0010047F8380C18
:1028600057F8380C0B20FFF79BF80B20FFF788F880
:1028700040F27004C2F2000408F56041204640F8BE
:10288000081F4FF480714FF001094FF4602280F867
:102890000C900675C261C0E901610561FEF778FB25
:1028A00020B1EFF3108072B6FEE700BF042047E9C5
:1028B0000E09072004F1080547F8300CA7F138018C
:1028C0002846FEF7A3FA28B1EFF3108072B600BFD6
:1028D000FEE700BF012047F8380C022047F8340C0F
:1028E000A7F138012846FEF791FA28B1EFF31080DE
:1028F00072B600BFFEE700BF204640F8388F4FF4A5
:10290000E13100220C23C0E90112C0E90322C0E931
:102910000532C261FFF734FD20B1EFF3108072B6CB
:10292000FEE700BF284621460222FEF737FC3DA500
:1029300025E000BF43F6180180F00400C0F6000156
:1029400051F8203084B030460C212A46CDE900A948
:10295000CDF80CB00293FDF749FC04B03046FDF70A
:102960004CFD04F1380182B2084631464FF0FF3386
:10297000FFF7BAFD4FF4FA60FEF778FEC546E84669
:10298000ADF11006B546D4E9000B00F0EDFD0023D3
:102990000022C4F2270300F051FC00230022C4F2FD
:1029A00024038246894600F0E2FE28B10320BBF1F1
:1029B0000A0F0ED224E000BF0023504649460022F1
:1029C000C4F2590300F0D3FE50B10220BBF10A0F4C
:1029D00016D3BBF1640F17D202214018AAD11BE015
:1029E00044F20003504649460022C4F28F0300F02F
:1029F000BEFE00280CBF00200120BBF10A0FE8D268
:102A00000321401896D107E00021BBF57A7F38BF3B
:102A1000012140187FF48EAF43F66603C0F6000331
:102A200090E700BF252E3166257325640000000065
:102A30005FEA400C08BF91F0000F4FEA8C234FEA89
:102A4000C12243EA51514FEA1C5018BF00F5F04033
:102A50004FEA300018BF41F000415FEA6C5C00F0C3
:102A60002980BCF1FF3F08BF40F080407047130C45
:102A700006BF12044FF0100C4FF0000C130E04BFF1
:102A800012020CF1080C130F04BF12010CF1040C1C
:102A9000930F04BF92000CF1020CD30F04BF52003D
:102AA0000CF1010C11464FF00002A0F11F00A0EB49
:102AB0000C00704711F0004F08BF704731F0004123
:102AC0003FF4D5AF0B0C06BF09044FF0100C4FF0CC
:102AD000000C0B0E04BF09020CF1080C0B0F04BF15
:102AE00009010CF1040C8B0F04BF89000CF1020CDE
:102AF000CB0F04BF49000CF1010CCCF1200322FAEA
:102B000003F341EA030102FA0CF2A0EB0C0000F11E
:102B10000100704723F07F4720F07F4C80EA0300DC
:102B200000F00040ACEB070303F57C5303F1FF0317
:102B30002DE9804909B44FEA144324EA03484FEAD7
:102B4000154B25EA0B4E0FF2042606EB13273E78B1
:102B500003FB0667C7F5000707FB06F64FEAD646F4
:102B600006F102064FEA543707FB066CCCF1005C15
:102B70004FEA1C472CEA074C0CFB06F507FB06F452
:102B800004EB15464FEA961649085FEA320234BF55
:102B900000204FF000404FEAD13706FB07FC4FEA18
:102BA0001C4C0CFB0BF7D21B03FB0CF761EB070172
:102BB0000CFB0EF7B0EB074072EB17420CFB08F76B
:102BC00034BFA2EB0742B2EB074261EB17414FEA79
:102BD0000C444FEA910706FB07FC4FEA1C4C0CFB28
:102BE0000BF7B0EBC74072EB573203FB0CF734BF67
:102BF000A2EBC742B2EBC74261EB57310CFB0EF7B9
:102C0000B0EBC70072EB57720CFB08F734BFA2EBB6
:102C1000C702B2EBC70261EB57714FEA816141EA2B
:102C200092114FEA826242EA90124FEA806004EB0E
:102C3000CC04039F4FEAD13706FB07FC4FEA1C4C3C
:102C40000CFB0BF7D21B03FB0CF761EB07010CFB32
:102C50000EF7B0EB074072EB17420CFB08F734BFDE
:102C6000A2EB0742B2EB074261EB17414FEA8C55EA
:102C700004EB9C244FEA910706FB07FC4FEA1C4C2F
:102C80000CFB0BF7B0EBC74072EB573203FB0CF7B2
:102C900034BFA2EBC742B2EBC74261EB57310CFB2A
:102CA0000EF7B0EBC70072EB57720CFB08F734BF9E
:102CB000A2EBC702B2EBC70261EB57714FEA816129
:102CC00041EA92114FEA826242EA90124FEA806032
:102CD00015EB4C2544F100044FEAD13706FB07FC05
:102CE0004FEA1C4C0CFB0BF7D21B03FB0CF761EB00
:102CF00007010CFB0EF7B0EB074072EB17420CFB21
:102D000008F734BFA2EB0742B2EB074261EB174171
:102D10004FEA813141EA92414FEA823242EA9042DF
:102D20004FEA80304FEA0C7615EB1C1544F1000495
:102D300048EA03434EEA0B484FF0000EB2EB080C92
:102D400071EB030724BF624639464EEB0E0E4FF07F
:102D5000000B0018524149414BEB0B0BB2EB080C36
:102D600071EB03077BF1000B24BF624639464EEB43
:102D70000E0E4FF0000B0018524149414BEB0B0B6C
:102D8000B2EB080C71EB03077BF1000B24BF62462A
:102D900039464EEB0E0E51EA020718BF46F0010607
:102DA00016EB0E7655F1000254F1000103D5BDE893
:102DB0008901BDE80088BDE88901BDE80048B61971
:102DC000524141EB0101A3F10103704780807F7EF6
:102DD0007D7C7B7A79787776767574737271717091
:102DE0006F6E6E6D6C6C6B6A6A6968686766666543
:102DF0006464636362616160605F5F5E5E5D5D5CD1
:102E00005C5B5B5A5A595958585757565655555541
:102E10005454535352525251515050504F4F4F4EA1
:102E20004E4D4D4D4C4C4C4B4B4B4A4A4A494949EF
:102E30004848484747474746464645454544444431
:102E40004443434343424242424141419C46002B5A
:102E500030D477002BD04FEA37071CB503B44FF0BE
:102E600010004FF01001BAF1000F06D0BCF1000FB6
:102E7000DCBF40F0080040F008014FF000000FBC3C
:102E8000BDE810400BF1010BBBF1010F08BF5FEA79
:102E9000170722BF12F1010211F101014FF00041A9
:102EA00043F1000300F0004043EA00007047F9D30B
:102EB0005708D0E746EA06464FEA164613F1400F98
:102EC0001FDD13F1200FDFBF16430A460021203318
:102ED0005B42BED0C3F1200746EA06464FEA1646DB
:102EE00002FA07F746EA070622FA03F2C3F12007BF
:102EF00001FA07F742EA070221FA03F14FF0000353
:102F0000A7E746EA020646EA06464FEA164646EABA
:102F10000106BCBF46EA0646360C4FF000034FF0F0
:102F200000024FF0000194E72DE9804C70B49A46FE
:102F3000934691E8380007C831EA400C48BF34EAAC
:102F4000430C03D5FFF7E6FDFFF780FFF0BCBDE8BB
:102F5000008C2DE9804C70B49A46934691E8380075
:102F600007C810F0804F08BF13F0804F03D100F066
:102F700005F8FFF76BFFF0BCBDE8008C20F07F4741
:102F800023F07F4C80EA030000F0004007EB0C03C5
:102F9000A3F57C53A3F1FE0392F0000F00F0B38081
:102FA00095F0000F00F077802DE901494FEA1140BC
:102FB00021EA00484FEA144624EA064700FB06FCD3
:102FC00008FB06F607FB08F818EB06484CEB164C16
:102FD00000FB07F718EB07484CEB17404FEA124B82
:102FE00022EA0B4E4FEA154625EA06470BFB06FC84
:102FF0000EFB06F607FB0EFE1EEB064E4CEB164CC8
:103000000BFB07F71EEB074E4CEB174B18EB0B08AF
:1030100040F1000018EB0E0B58EB000840F10000E7
:103020008F1A4FF000014FF000063CBFC943661BEA
:1030300014BFB5EB040C00213CBFC943F61B4FEA9B
:10304000174427EA04454FEA1C472CEA074C04FBC7
:10305000076205FB07F70CFB05F616EB074642EB8C
:10306000174204FB0CFC16EB0C4642EB1C421BEB1C
:10307000060658EB020241414EEA8E0E46EA9E06D3
:1030800001D5BDE80189B619524141EB0101A3F117
:103090000103BDE801894FEA144524EA05464FEAD9
:1030A000114721EA074C05FB07F406FB07F70CFB69
:1030B00006F111EB074144EB174405FB0CFC11EB47
:1030C0000C4144EB1C444FEA124722EA074C05FB33
:1030D00007F206FB07F70CFB06F616EB074642EB7A
:1030E000174205FB0CFC16EB0C4642EB1C456A181C
:1030F00054F1000148BF7047B619524141EB01013C
:10310000A3F10103704795F0000F37D04FEA114249
:1031100021EA02464FEA144724EA074C02FB07F172
:1031200006FB07F70CFB06F414EB074441EB1741D1
:1031300002FB0CFC14EB0C4441EB1C414FEA15471D
:1031400025EA074C02FB07F506FB07F70CFB06F622
:1031500016EB074645EB174502FB0CFC16EB0C463D
:1031600045EB1C42121951F1000148BF7047B619D6
:10317000524141EB0101A3F1010370474FEA1445AD
:1031800024EA05464FEA114721EA074C05FB07F1FF
:1031900006FB07F70CFB06F212EB074241EB174167
:1031A00005FB0CFC12EB0C4251EB1C414FF00006EE
:1031B00048BF7047921841EB0101A3F1010370472A
:1031C000490050EAC12018BF04204A0D18BF40F042
:1031D000010040F2FF72B2EB515F08BF40F0020005
:1031E000012808BF0520704730380A2801D2012085
:1031F000704700207047000010B500290AD00878F9
:10320000002807D005487844FDF712FD002801D0BA
:10321000002010BD0248784410BD00008206000066
:103220007A060000491058BFC1F140415B1058BFF9
:10323000C3F140438B42EFF3008070472DE9C0415A
:1032400030B4DFF8A4C23CEA111418BF3CEA1314EE
:1032500000F0ED801CEA111481EA030544EAD574FC
:1032600018BF1CEA131500F0C880A4EB050404F194
:103270007F7404F500344FF0004545EAC12145EA6A
:10328000C32341EA505143EA52534FEAC0204FEA68
:10329000C222994208BF904200F09D804FEA136518
:1032A0000FF24416765D4FEA134506FB05F7C7F1AA
:1032B000807706FB07F74FEAD737A7FB036876420C
:1032C000A7FB06CEC8F5803838BFA8F1010807FB78
:1032D00008E6A6FB028C4FF0000EE6FB03CEDCF105
:1032E000000CCEF1004E38BFAEF1010EA6FB0C581B
:1032F0004FF00007E6FB0E87A1FB08C6A0FB07CE38
:1033000016EB0E064FF0000545F10005E1FB0765E1
:1033100015F1E04E7EBFA4F580345FEA46066D41AC
:1033200016F1800745F100054FEA172747EA0567C0
:103330004FEA15254FEA0666A6F1DE46B6F1805F34
:1033400020D9384605EBC47124F0010C01EB0C11B7
:10335000BCF1FE6F02D8F0BCBDE8008124425CBF26
:1033600001F5801E9EEAC47F02D4F0BCBDE8008156
:10337000244200F13980A1F1C041F0BCBDE8004118
:1033800000F0CCB94FEAD02040EA41504FEAD121B9
:103390004FEAD22242EA43524FEAD323A7FB0286E6
:1033A00007FB036605FB02661EEA0E0F58BFA6EB7D
:1033B0000056B6EB00564FEA520E4EEAC37E18EBAB
:1033C0000E0E56EB530EBCD518EB02085E417F1C67
:1033D00055F10005B5E74FF480154FF000074FF0A9
:1033E00000064FF00008ACE701F1C04101F00041D8
:1033F0004FF00000F0BCBDE800810CEA131511EAA3
:103400000C1F00D00CE013EA0C1F00F026804FF0D8
:10341000000081EA030101F00041F0BCBDE8008139
:10342000F0BCBDE8004181EA030100F077B9F0BCCF
:10343000BDE8004170B500F023F900BF097EFC3EF5
:1034400000F007B84FF0000081EA030101F00041ED
:10345000704781EA030100F061B9F0BCBDE80041AA
:1034600022494FF000007047FFFDFBF9F7F5F4F239
:10347000F0EEEDEBE9E8E6E4E3E1E0DEDDDBDAD80F
:10348000D7D5D4D3D1D0CFCDCCCBCAC8C7C6C5C46D
:10349000C2C1C0BFBEBDBCBBBAB9B8B7B6B5B4B384
:1034A000B2B1B0AFAEADACABAAA9A8A8A7A6A5A46F
:1034B000A3A3A2A1A09F9F9E9D9C9C9B9A99999833
:1034C0009797969595949393929191908F8F8E8ED6
:1034D0008D8C8C8B8B8A8989888887878685858463
:1034E00084838382828181800000FF070000F87F4F
:1034F00051EA030C17D41CF5801F58BFBCF5801F80
:1035000000F10680994218BF704708BF904270478B
:1035100007D711F5801F58BF13F5801F19D49942A2
:103520007047894270471CF5801F08D5BCF5801F85
:10353000F7D58B4218BF704708BF824270474FF4DF
:10354000001C1CEB410F38BF1CEB430F01D28B4218
:10355000704770B500F094F8922449004FF0005184
:103560004FF08053FFF75EBEB0FA80F310FA03F11C
:103570000AD0C3F11D0303F580634FEA03524FEAFB
:10358000415002EBD12170474FF00000704700001E
:1035900051EA030C17D41CF5801F58BFBCF5801FDF
:1035A00000F10680994218BF704708BF90427047EB
:1035B00007D711F5801F58BF13F5801F19D4994202
:1035C0007047894270471CF5801F08D5BCF5801FE5
:1035D000F7D58B4218BF704708BF824270474FF43F
:1035E000001C1CEB410F38BF1CEB430F01D28B4278
:1035F000704770B500F044F8922449004FF08051B4
:103600004FF00053FFF70EBE51EA030C17D41CF520
:10361000801F58BFBCF5801F00F10680994218BF7B
:10362000704708BF9042704707D711F5801F58BFF9
:1036300013F5801F19D499427047894270471CF5D1
:10364000801F08D5BCF5801FF7D58B4218BF704787
:1036500008BF824270474FF4001C1CEB410F38BF7B
:103660001CEB430F01D28B42704770B500F008F895
:10367000922449004FF000514FF08053FFF7D2BD24
:103680000EF1020E2EF0030E5EF8046B364205D4E6
:10369000012A43EB030515F5001F12D8012841EB61
:1036A000010C1CF5001F0CD80ED14FEAD17C0CEB9D
:1036B0004C0C0CF1020C15F5001F08BF4CEBD37C31
:1036C00004E04FF0080C01E04FEAD37C0CEB4C0512
:1036D00026FA05F606F00706B6F1040C06D20EEB44
:1036E000860CBDE870404CF0010C6047DFE80CF040
:1036F000090B02024FF00041A1F500214FF000003C
:1037000070BD19461046012851EB010418BFD4F5CD
:10371000001484BF002001F0004170BD0808A0F52E
:1037200000114FEA3101704710B5FFF7E1FE0CBF01
:103730000120002010BD10B5FFF7DAFE14BF0120F4
:10374000002010BD10B5FFF723FF8CBF0120002023
:1037500010BD10B5FFF71CFF2CBF0120002010BDCD
:1037600010B5FFF751FF94BF0120002010BD10B528
:10377000FFF74AFF34BF0120002010BDFCF7B7BFA0
:1037800002400000000000A0000000000540000012
:10379000000000C8000000000C4000000000409C39
:1037A00000000000194000000020BCBE0000000026
:1037B00034400000BFC91B8E00000004B54000006B
:1037C000504BCFD06607E2CF010000006C410000F3
:1037D0003E8251AADFEEA73401000000D94200006A
:1037E000DCB5A0E23A301F97FFFFFFFFB4450000B1
:1037F000FD25A0C8E9A3C14FFFFFFFFFFF3F000069
:103800000000008000000000FF3F0000000000807A
:103810000000000001020000623800086138000862
:103820006038000860380008603800086538000813
:103830006438000863380008000000000000000041
:103840000102030406070809000000000102030446
:1038500002030405060708090A0B0C0D0E0F1010D1
:103860002020202020202000A83800080000002070
:103870001000000028010008B838000810000020DF
:1038800028070000440100081C000000430000005D
:10389000F8FFFFFF0C0000000E0000000F0000000A
:1038A0002E000000000000000100000010000000D9
:0838B0000024F40000000000F8
:04000005080000ED02
:00000001FF
