:020000040800F2
:10000000B8070020D1010008AF210008992000089E
:10001000AD210008F50A00085D2500080000000079
:10002000000000000000000000000000B3210008F4
:10003000470B000800000000B1210008B5210008AE
:10004000EB010008EB010008EB010008EB010008E0
:10005000EB010008EB010008EB010008EB010008D0
:10006000EB010008EB010008EB010008F90A0008A9
:10007000EB010008EB010008EB010008EB010008B0
:10008000050B0008110B0008A5090008EB0100088A
:10009000EB010008EB010008EB010008EB01000890
:1000A000EB010008EB010008EB010008EB01000880
:1000B000EB010008EB010008EB010008EB01000870
:1000C000EB010008EB010008EB010008EB01000860
:1000D000EB010008EB01000851250008EB010008C6
:1000E000490B0008EB010008EB01000800F002F8E2
:1000F00000F05FF80AA090E8000C82448344AAF163
:100100000107DA4501D100F054F8AFF2090EBAE860
:100110000F0013F0010F18BFFB1A43F0010318473B
:10012000842C0000A42C0000103A24BF78C878C1A9
:10013000FAD8520724BF30C830C144BF04680C60ED
:10014000704700000023002400250026103A28BF35
:1001500078C1FBD8520728BF30C148BF0B60704739
:10016000692900F0D180642900F0CE80752900F063
:10017000CB806F2900F06281782900F087810368C5
:10018000DB0928BF41F08001632900F04083E329A7
:1001900000F05383002070471FB500F0A9FB040056
:1001A0000020002102F0AEFA401C60601FBD10B5B7
:1001B00010BD00F077FB1146FFF7EEFF02F0E6F905
:1001C00000F09AFB03B4FFF7F2FF03BC00F0E2FB80
:1001D0000948804709480047FEE7FEE7FEE7FEE7DB
:1001E000FEE7FEE7FEE7FEE7FEE7FEE70448054917
:1001F000054A064B7047000029220008ED00000860
:10020000B8010020B8070020B8030020B803002080
:100210000FB41CB50C0007AA009001D02044401E6A
:10022000074B7B4469460190069800F0C6FA002C03
:1002300003D06946002000F0D3FA1CBC5DF814FB23
:10024000C505000070B5044685690068C10601D582
:10025000302600E02026C00707D070BDD4E9012178
:1002600030469047206A401C20626D1EF6D570BD56
:1002700070B5044685690078C00707D170BDD4E920
:10028000012120209047206A401C20626D1EF6D577
:1002900070BD09684A0501D540B27047C905FCD553
:1002A00000B2704709684A0501D5C0B27047C90558
:1002B000FCD580B2704770B50C460546012A05D0C2
:1002C0002878800600D5EA69002302E0012305E0D2
:1002D0005B1C934202D2E05C0028F9D1A869E618C1
:1002E000C01AA861286A184428622846FFF7AAFFA6
:1002F00004E0D5E9012114F8010B9047B442F8D38A
:100300002846FFF7B5FF70BD2DE9F04106460024F1
:1003100010687529314616A510D0FFF7BAFF0028DE
:1003200002DA404213A507E031688A0701D512A519
:1003300002E0490704D511A5012401E0FFF7B2FF4F
:1003400000210A2206F1240709E0B0FBF2FCB0FB11
:10035000F2F302FB1C00303078541846491C002888
:10036000F3D123462A463046BDE8F04100F0C7B934
:10037000000000002D0000002B0000002000000005
:100380002DE9FF5F15468A460446DFF8AC80F84445
:100390000027D8E900103E46CDE9001010E03AF8F9
:1003A00016106A4602A800F054FA411C07D02178C2
:1003B000890603D5E269391891420DD80744761CA5
:1003C0002078800602D5E069B84205DDAE42E6DB62
:1003D0003AF816000028E2D1A069C01BA0612046AF
:1003E000FFF730FFD8E90010CDE90010002017E03A
:1003F0003AF818106A4602A800F02BFAB0F1FF3F55
:1004000081460BD000250DF1080B05E0D4E9012150
:100410001BF8050090476D1C4D45F7D308F101000E
:10042000B0428046E4DB206A384420622046FFF771
:100430001FFFBDE8FF9F0000CE29000070B50446F5
:1004400021461068FFF72EFF002104F1240505E086
:1004500000F007023032C0086A54491C0028F7D166
:100460002068002307A2050707D5800600D421B124
:10047000E069012304A2401EE0612046BDE870400F
:1004800000F03DB9000000003000000070B50446E7
:100490000D4621461068FFF705FF2188090502D5A2
:1004A0000F4A7A4402E00E4A7A440E32002104F1E7
:1004B000240305E000F00F060009965D5E54491C18
:1004C0000028F7D120780023000704D5702D02D032
:1004D00009B1022311322046BDE8704000F00FB987
:1004E000C22800002DE9F05F894604464FF0000A5B
:1004F000DFF874B1FB44C0F820A02046E1688847CB
:10050000002874D0252806D0D4E901219047206A1C
:10051000401C2062F1E700265F462046E1688847DC
:100520002028054607DB312D05D2781910F8200C5C
:1005300008B10643F1E7B00701D526F00406C4F878
:100540001CA00027C4F818A02A2D09D0284602F0C4
:1005500016F838B304EB8708303DC8F8185019E096
:1005600059F8041B204604EB87029161E168884733
:10057000012F054618D1E069002820DA26F0200670
:100580001DE0D8F8180000EB800005EB4000303883
:10059000C8F818002046E1688847054601F0EFFFDB
:1005A0000028EED1012F0AD02E2D08D12046E16877
:1005B00088477F1C0546022F46F02006C4DBA06951
:1005C000002803DA404246F00106A061F00701D09E
:1005D00026F010066C2D0BD0682D09D04C2D39D08B
:1005E0006A2D35D0742D35D07A2D33D016E038E011
:1005F000E1682F4620468847B842054609D16C2F4E
:1006000026D04FF48060E1680643204688470546BF
:1006100004E06C2F1AD04FF4807006430DB3A5F19F
:100620004100192802D8203546F400664A4629467A
:10063000204626604E46FFF793FD80B101280BD07F
:10064000F61D26F0070000F1080956E74020E4E710
:100650008020D8E70020D6E706F104094DE72846B8
:1006600052E7206ABDE8F09F9828000010B5431CAF
:1006700002E010F8011B71B18107FAD14FF001328D
:1006800002C88C1A8C4314EAC211F9D0C01A0A06A7
:1006900003D0C01E10BDC01A10BD0A0401D0801EB8
:1006A00010BD0902FCD0401E10BD4FF0000200B585
:1006B000134694469646203922BFA0E80C50A0E885
:1006C0000C50B1F12001BFF4F7AF090728BFA0E833
:1006D0000C5048BF0CC05DF804EB890028BF40F8FF
:1006E000042B08BF704748BF20F8022B11F0804F41
:1006F00018BF00F8012B70477047704770472DE90D
:10070000F0470D4699469246044600F124080168D8
:10071000880604D5E06921F01001216000E0012085
:10072000A84201DD471B00E00027A1697A1902EB0E
:100730000900081AA0612078C00602D42046FFF7FD
:1007400081FD002608E0D4E901211AF8060090474F
:10075000206A401C761C20624E45F4DB2078C006DF
:100760000AD52046FFF76EFD06E0D4E901213020CE
:100770009047206A401C2062381EA7F10107F4DC74
:1007800007E0D4E9012118F805009047206A401CD1
:100790002062281EA5F10105F3DC2046FFF768FD65
:1007A0002078000602D50220BDE8F0870120FBE793
:1007B00001694A1C02610878704700B58FB0CDE925
:1007C00001310021059105497944CDE90310114615
:1007D0006846FFF787FE0FB000BD0000E5FFFFFF92
:1007E0000A6802F8010B0A607047D1E900239A42B7
:1007F00002D2531C0B601070704710B5436913B1DF
:10080000AFF3008001E0FFF756FD012010BD127824
:1008100000F124010A7000224A700122EDE71168FC
:100820004FF0FF32E9E710B5436913B1AFF3008031
:1008300001E0FFF7A5FD012010BD128800F12401A1
:1008400082840022C2840122EDE711684FF0FF325A
:10085000E9E770B516460C46054600F01BF803683C
:1008600093F80101012806D0FF2C0FD8185D68B15C
:1008700001202C7070BDD3F807013246214603F2E7
:10088000071303442846BDE8704018474FF0FF3077
:1008900070BD000010B500F02BF8001D10BD00BFAA
:1008A000651E0000754600F031F8AE460500694649
:1008B000534620F00700854618B020B5FFF796FC98
:1008C000BDE820404FF000064FF000074FF0000851
:1008D0004FF0000B21F00701AC46ACE8C009ACE8D2
:1008E000C009ACE8C009ACE8C0098D4670470000FB
:1008F000004870477801002010B50446AFF300802F
:100900002046BDE81040FFF75DBC0000004870477E
:10091000580100204FF0013C50F8042B51F8043BE3
:100920009A4221D1A2EB0C03934313EACC1317D1C3
:1009300050F8042B51F8043B9A4215D1A2EB0C035A
:10094000934313EACC130BD150F8042B51F8043B1A
:100950009A4209D1A2EB0C03934313EACC13DBD0E8
:100960004FF00000704700BFD01A01BAB1FA81F110
:1009700001F0180122FA01F0CB40C1F12001DBB2F5
:10098000C0B2C01A2CFA01F3D11A914311EAC31173
:10099000E6D1704701491820ABBEFEE726000200F1
:1009A00070470000014800F058B90000180000200E
:1009B00070B5044600688168C943C90717D18168CA
:1009C00021F00101816000F0B7FD05460AE000BF9B
:1009D00000F0B2FD401B022804D920688068C043A3
:1009E000C00706D020688068C043C007F0D0002050
:1009F00070BDA06A40F01000A062E06A40F0010003
:100A0000E062012070BD10B50146406A826A12F0B2
:100A1000500F05D0006A026BBDE810400846104731
:100A2000816A41F40071816201688968C1F34241C1
:100A300007290CD1017B51B9816A21F4807181624F
:100A4000816AC90403D4816A41F00101816200F026
:100A500001F910BD10B5406A816A41F04001816220
:100A6000C16A41F00401C16200F0F6F810BD10B592
:100A7000406A00F0F0F810BDF8B500260446009674
:100A800000688168C943C9072DD0816841F0010120
:100A90008160164816490068B0FBF1F000E0401E86
:100AA00000900028FBD100F047FD054616E000BF8E
:100AB00000F042FD401B022810D920688068C04326
:100AC000C0070BD0A06A40F01000A062E06A40F0BE
:100AD0000100E06284F824600120F8BD206880688D
:100AE000C043C007E4D10020F8BD0000140000207E
:100AF00040420F00FEE70000014800F0F7BA000096
:100B00008C000020014800F0F1BA0000D000002065
:100B1000014800F0EBBA00001401002030B590F855
:100B200040500124AC40C56B6C600468636043684E
:100B3000102B036803D099600068C26030BD9A60D2
:100B40000068C16030BD70474FF4005000F0F2BB48
:100B500072B6FEE770470000F8B50024009490F8E4
:100B600024202546012A12D0012280F824204A6838
:100B70001F23072A0DD20668776B521E02EB8202F2
:100B800093409F430B6893401F43776319E0022013
:100B9000F8BD06680D2A0AD2376BD21F02EB82021B
:100BA00093409F430B6893401F43376309E0F76A04
:100BB0000D3A02EB820293409F430B6893401F4320
:100BC000F7620A68072306680A2A0AD3F7680A3A0E
:100BD00002EB420293409F438B6893401F43F760B0
:100BE00008E0376902EB420293409F438B689340D1
:100BF0001F4337610A68102A01D0112A20D1124BF5
:100C000002689A4217D193681B0219D4936843F47F
:100C1000000393600968102912D10C490C4A096835
:100C2000B1FBF2F101EB8101490000E0491E0091A6
:100C30000029FBD104E0816A41F020018162012496
:100C400080F824502046F8BD002401401400002004
:100C500040420F0070477047704710B50446006867
:100C60004168890626D50168890723D5A16AC90686
:100C700003D4A16A41F40071A1628168C1F34241C9
:100C8000072910D1217B71B9416821F02001416011
:100C9000A06A20F48070A062A06AC00403D4A06A95
:100CA00040F00100A0622046FFF7D4FF21686FF0FA
:100CB000120008602068416809062ED501684907BE
:100CC0002BD5A16AC90603D4A16A41F40051A162DF
:100CD0008168C1F30231072909D04168490515D45B
:100CE0008168C1F34241072910D1217B71B9416864
:100CF00021F080014160A06A20F48050A062A06AC7
:100D0000C00503D4A06A40F00100A0622046FFF7AE
:100D100021FF21686FF00C000860206841684906D7
:100D20000DD50068C0070AD0A06A40F48030A062E8
:100D3000204600F093F821686FF00100086010BDB4
:100D40002DE9F0414FF0000704003D467ED0A06A37
:100D5000002628B9E66284F82460204600F080F876
:100D60002046FFF725FEA16AC90600D420B1A06A7B
:100D700040F01000A06269E0A16A21F4885141F0BE
:100D80000201A1626268E169237B0A4347EA4301E9
:100D90000A43A1684FF48077B94209D0012907D0EE
:100DA0005FF0000194F814C0BCF1010F02D00AE01A
:100DB0003946F7E7F3B1A36A43F02003A362E36A7D
:100DC00043F00103E3622368D3F804C02CF4694CB8
:100DD0004CEA010CC3F804C021688B68DFF870C0CE
:100DE00003EA0C0313438B60A168B9420BD00129BD
:100DF00009D00CE0DFF85CC0A3690CEB43330B4374
:100E000043F40061DFE7218A0D05A5F5801521680F
:100E1000CB6A23F470032B43CB62216889680E4BA5
:100E20001940914208D1E662A16A21F0020141F025
:100E30000101A162BDE8F081A06A20F0020040F04B
:100E40001000A062E06A40F00100E0620120F1E7DA
:100E5000FDF7E1FF00E0FFFFFE0E1FFF70470000FF
:100E600070B586B00025064600950195029503955C
:100E700000681E49884236D11D49886940F40070D7
:100E80008861886900F400700490886940F004006B
:100E900088618869694600F0040004900120009090
:100EA00003200190134800F051FA144C1248C4E991
:100EB00000058020C4E9025080002061800060614C
:100EC0002020C4E90605204600F0BAF908B1FFF772
:100ED0003FFE3462002211461220666200F098FB49
:100EE000122000F087FB06B070BD00000024014016
:100EF0000010024000080140080002408C00002061
:100F00002DE9F047894604463B4900683B4F0E1DDA
:100F10009046884201D0B84207D1306810F4702F53
:100F200003D001252846BDE8F08794F82400012865
:100F30000CD0012084F824002046FFF79DFD050019
:100F40004FF0000004D084F82400EBE70220EAE729
:100F5000A16A40F60162914341F48071A162216867
:100F6000B94218D1326812F4702F14D0A16A41F43A
:100F70008011A1623168490505D5A16A21F40051AB
:100F800041F48051A162A16AC9040AD5E16A21F045
:100F90000601E16206E0A26A22F48012A2624968B8
:100FA000E9E7E06284F82400216A15488862216A32
:100FB0001448C862216A1448086321686FF002006F
:100FC00008602068816841F480718160216843462F
:100FD0004A464C31206A00F061F920688168C1F30B
:100FE00042410729816803D041F48011816099E76B
:100FF00041F4A001FAE7000000240140002801406C
:10100000070A00086F0A0008550A000810B590F892
:1010100021100022022905D00421816380F82020BC
:10102000012010BD01680B6823F00E030B600168FE
:101030000B6823F001030B6090F84030C46B012172
:1010400001FA03F3636080F8211080F82020104635
:1010500010BD000010B590F821100024022903D023
:101060000421816301243DE001680A6822F00E0238
:101070000A6001680A6822F001020A601A4A0168DF
:10108000914201D1012121E0174A1432914201D14C
:1010900010211BE0144A2832914201D1891515E034
:1010A000114A3C32914201D189140FE00E4A50326C
:1010B000914202D14FF4803108E00B4A64329142F0
:1010C00002D14FF4801101E04FF08071064A083AD6
:1010D0005160012180F82110002180F82010416B1F
:1010E00001B18847204610BD080002402DE9F05F9D
:1010F000C16B0C6801680B68D0F840C0042202FA8A
:101100000CF2494DDFF824A1494E4A4FDFF828B1CF
:10111000DFF828E122422CD05A072AD50A68920625
:1011200003D40A6822F004020A600168A94201D1CE
:10113000042219E0514501D1402215E0B14202D10B
:101140004FF4806210E0B94202D14FF480420BE0CC
:10115000594502D14FF4802206E0714502D14FF487
:10116000800201E04FF080622F4908394A60C16A6D
:101170003BE04FF0020808FA0CF818EA040F4FF0B1
:1011800000094FF0010235D05FEA837832D50B6851
:101190009B0605D40B6823F00A030B6080F821201E
:1011A0000168A94201D1022219E0514501D1202252
:1011B00015E0B14202D14FF4007210E0B94202D101
:1011C0004FF400520BE0594502D14FF4003206E0D3
:1011D000714502D14FF4001201E04FF00072124944
:1011E00008394A6080F82090816A00291AD0BDE849
:1011F000F05F0847082505FA0CF5254212D01B07B9
:1012000010D50B6823F00E030B6090F84010C36BF1
:1012100002FA01F15960826380F8212080F8209061
:10122000016BE2E7BDE8F09F080002401C000240AD
:101230003000024044000240580002406C0002406E
:1012400030B528B308C8134914221944B1FBF2F190
:101250008900C16310498163022141771A6843F60E
:10126000F0718A43D0E900142143D0E902452C43B0
:101270002143046921434469214384692143114383
:10128000196000214163012242770177084630BD91
:10129000012030BDF8FFFDBF0000024070B50446DC
:1012A00090F82000002501280CD0012084F82000AF
:1012B00094F821600020012E06D084F82000022539
:1012C000284670BD022070BD022684F82160A0630C
:1012D0002068066826F0010606602046FFF71EFC1F
:1012E000E06A00282068016802D041F00E0106E0A3
:1012F00021F0040101602068016841F00A010160E9
:101300002068016841F001010160D9E770B5044629
:1013100000F012F90546601C02D00448007804442D
:1013200000F00AF9401BA042FAD370BD080000206B
:1013300070470000044910B50A68024202D00860F4
:10134000FFF7F6FF10BD0000140401402DE9F84F2F
:10135000DFF8B891002409F1040A0AF1040B2346CE
:101360000F270BF1040EC9E00125A5402A40AA422F
:101370007DD1674ED1F804C0ACEB0608B44532D03D
:1013800014DCBCF1030F3AD009DCBCF1000F2AD009
:10139000BCF1010F1CD0BCF1020F31D11DE0BCF13A
:1013A000110F17D0BCF1120F2AD119E0B8F5881F20
:1013B00019D006DCB8F5803F15D0B8F5801F1FD1D5
:1013C00011E0B8F5001F0ED0B8F5041F18D10AE0DF
:1013D000CB6815E0CB681B1D12E0CB6808330FE02B
:1013E000CB680C330CE08B682BB1012B4FF008035A
:1013F00003D0456104E0042302E0056100E000231E
:10140000FF2A01D8064601E000F104064FEA8405F0
:1014100001D9A5F12005D6F8008007FA05FC28EAD5
:101420000C0803FA05F548EA0508C6F800804D687F
:10143000ED0062D5374DAE6946F00106AE61AD698B
:1014400024F0030605F001050095334D06EB050C6D
:10145000DCF80850A607360F07FA06F825EA080553
:10146000DFF8B880404503D14FF0000817E044E0B2
:10147000DFF8AC80404502D14FF001080FE0DFF803
:10148000A480404502D14FF0020808E0DFF89880C0
:10149000404502D14FF0030801E04FF0040808FA7C
:1014A00006F848EA0508CCF808804D68D9F80060CD
:1014B000ED034D4601D5164300E096432E604D687E
:1014C000DAF80060AD03554601D5164300E09643B7
:1014D0002E604D68DBF80060ED025D4601D51643D5
:1014E00000E096432E604D68DEF80060AD02754660
:1014F00001D5164300E096432E60641C0D682A4611
:10150000E5407FF431AFBDE8F88F000000040140F2
:1015100000001110001002400000014000080140CE
:10152000000C014000100140001401400AB10161AB
:1015300070470904FBE7000001488068704700001D
:1015400008000020024881680278114481607047D9
:1015500008000020074810B5016841F01001016043
:10156000032000F075F8002000F006F800F024F8E1
:10157000002010BD0020024070B50D4D04464FF410
:101580007A712878B1FBF0F00A490968B1FBF0F0F4
:1015900000F062FB48B9102C07D200222146501EF1
:1015A00000F036F800206C6070BD012070BD0000B6
:1015B00008000020140000200C4808B5816941F0A3
:1015C00001018161816901F001010091C16941F06E
:1015D0008051C161C06900F08050009004484168AA
:1015E00021F0E06141F00071416008BD001002404F
:1015F00000000140002809DB00F01F02012191409A
:101600004009800000F1E020C0F8001170470000A0
:10161000F0B40E4B1B680C46C3F30223C3F107055D
:10162000042D00D90425191D072901D2002300E04B
:10163000DB1E012606FA05F1491E214099409E4015
:10164000761E16403143F0BC00F089BF0CED00E07F
:10165000064900F0070208684FF6FF03184040EA09
:101660000220034A10430860704700000CED00E0C0
:101670000000FA052DE9F84305460078354CC0070F
:1016800054D0E0690026C00008D4E06940F08050E2
:10169000E061E069012600F0805000902E4801686A
:1016A000C90512D40168804641F480710160FFF7DA
:1016B00043FF074605E000BFFFF73EFFC01B64285D
:1016C00023D8D8F80000C005F6D5206A10F4407081
:1016D00021D0A98801F4407181421CD0206A1F49A1
:1016E000012220F440700A6000220A602062C007D4
:1016F00011D0FFF721FF074641F2883808E000BF0C
:10170000FFF71AFFC11B414502D90320BDE8F8834A
:10171000206A8007F4D5206A696820F44070084385
:1017200020621EB1E06920F08050E06128788007D7
:1017300005D56068A96820F44040084360602878B7
:10174000C00605D56068E96820F480000843606041
:101750000020DBE7001002400070004040044242DD
:101760002DE9F0470F46050061D0434E306800F088
:101770000700B84209D2306820F0070038433060D3
:10178000306800F00700B84251D128683B4C81070F
:1017900012D5400703D5606840F4E06060602878A7
:1017A000000703D5606840F4605060606068A96815
:1017B00020F0F000084360602878C00728D06868EF
:1017C000012810D02168022810D0890700292EDABC
:1017D000616821F0030101436160FFF7ADFE8046BF
:1017E00041F288390DE021688903EFE78901EDE7CF
:1017F000FFF7A2FEA0EB0801494502D90320BDE88E
:10180000F0876068696800F00C00B0EB810FEFD1E1
:10181000306800F00700B8420BD9306820F00700AC
:1018200038433060306800F00700B84201D0012032
:10183000E5E72878400705D56068E96820F4E060AE
:10184000084360602878000706D56068296920F49D
:10185000605040EAC100606000F038F86168084AF2
:10186000C1F30311515CC84006490860064800688E
:10187000FFF782FE0020C2E7002002400010024075
:10188000462D0008140000200C00002004480549E3
:1018900000684968044AC1F30221515CC84070479E
:1018A0001400002000100240562D0008044805498D
:1018B00000684968044AC1F3C221515CC8407047BE
:1018C0001400002000100240562D000812A185B01F
:1018D0000FC98DE80F0014A0144A006804905168E5
:1018E000134801F00C03042B10D0082B0ED1C1F3C8
:1018F0008343C9031DF803000AD5516804AAC1F344
:101900004041515C0A4A5043B0FBF1F005B07047CA
:1019100008494843FAE700000203040506070809DE
:101920000A0B0C0D0E0F10100102000000100240F7
:1019300000127A0000093D002DE9F84F040070D034
:101940002078C04DC00749D06868C0F381000128E5
:1019500007D06868C0F38100022809D16868C00315
:1019600006D52868800339D560680028E7D035E0BF
:101970006068B0F5803F0BD010B1B0F5A02F11D04A
:10198000286820F480302860286820F4802002E055
:10199000286840F480302860606890B1FFF7CCFD83
:1019A00006460AE0286840F480202860F0E700BF7F
:1019B000FFF7C2FD801B642873D828688003F7D521
:1019C0000CE0FFF7B9FD064605E000BFFFF7B4FDE8
:1019D000801B6428F0D828688003F7D420789A4EBA
:1019E00080074FF001094FF0000839D5686810F002
:1019F0000C0F07D06868C0F38100022809D168681D
:101A0000C00306D42868800714D52069012808D1AE
:101A100010E02069B0B1C6F80090FFF78DFD0746D1
:101A200005E00AE1FFF788FDC01B0228C4D828683A
:101A30008007F7D52868616920F0F80040EAC10006
:101A400028600DE0C6F80080FFF776FD074604E049
:101A5000FFF772FDC01B022823D828688007F7D43F
:101A6000207800072CD57948A169D9B1C0F8009039
:101A7000FFF762FD074604E0FFF75EFDC01B02288A
:101A80000FD8686A8007F7D571484FF4FA5100689B
:101A9000B0FBF1F0009000BF0098411E0091FAD217
:101AA0000EE080E0C0F80080FFF746FD074604E046
:101AB000FFF742FDC01B022875D8686A8007F7D47B
:101AC0002078400760D5E8690027C00008D4E8699D
:101AD00040F08050E861E869012700F080500090F4
:101AE0005C480168C90513D40168834641F48071DC
:101AF0000160FFF721FD824606E000BFFFF71CFDF5
:101B0000A0EB0A0064284ED8DBF80000C005F5D52C
:101B1000E06801280AD008B1052813D0286A20F00F
:101B200001002862286A20F0040002E0286A40F0E0
:101B300001002862E06841F2883B98B1FFF7FCFCA5
:101B400082460BE0286A40F004002862EEE700BFFE
:101B5000FFF7F2FCA0EB0A0159455AD8286A800722
:101B6000F6D50CE0FFF7E8FC824605E0FFF7E4FC61
:101B7000A0EB0A0159454CD8286A8007F6D41FB15A
:101B8000E86920F08050E861E06988B36968C1F3D2
:101B90008101022944D00228C6F8608004D0FFF7F2
:101BA000CBFC044638E034E0FFF7C6FC074604E00F
:101BB000FFF7C2FCC01B02282BD828688001F7D48D
:101BC000206AB0F5803F05D16868A16820F4003034
:101BD00008436860D4E908010843696821F4741176
:101BE00008436860C6F86090FFF7A6FC044606E06C
:101BF00025E000BFFFF7A0FC001B022809D82868D9
:101C00008001F7D51BE000BFFFF796FC001B022800
:101C100002D90320BDE8F88F28688001F4D40EE0D3
:101C20000128F7D06868226A00F48031914204D11B
:101C3000616A00F47010884201D00120EAE70020B8
:101C4000E8E70000001002400000424280044242E7
:101C5000140000200070004010B5401EB0F1807FDD
:101C600001D3012010BD4FF0E02460610F21601707
:101C700000F075FC0020A06107202061002010BD4D
:101C800070477047F8B5026804461068D168536918
:101C900010F00F0F4FF0000553D003F0010601F4D0
:101CA000907737435FD0C20705D0CA0503D5226CB1
:101CB00042F001022264420705D5DA0703D0226C04
:101CC00042F002022264820705D5DA0703D0226CB3
:101CD00042F004022264020707D501F020023243D9
:101CE00003D0226C42F008022264226C002A34D015
:101CF000800604D5880602D5204600F03AFB20680D
:101D00004069216CC0F38010090700D430B320462D
:101D100000F00EFB2068416949061BD5416921F09E
:101D200040014161A06BA8B158494163A06BFFF726
:101D300091F9002811D0A06B416B01B0BDE8F040D3
:101D4000084783060FD58B060DD52046BDE8F84021
:101D500000F00FBB2046FFF794FFF8BD2046FFF7C9
:101D600090FF2564F8BD266B2023012E52D1C606B4
:101D700050D5CE064ED51068506800905069400688
:101D80002AD5A16B086840680004000CEAD0A68D33
:101D90008642E7D9E0858869202818D0D06820F4E9
:101DA0008070D0602068416921F0010141612068A4
:101DB000416921F04001416184F83E30256320688B
:101DC000C16821F01001C160A06BFFF71FF9A08D61
:101DD000E18D401A81B219E0A08DE18D401A81B2E7
:101DE000E08D0028BED00029BCD0D06820F49070CF
:101DF000D0602068426922F00102426184F83E30DE
:101E000025632068C26822F01002C2602046FFF7F6
:101E100037FFF8BD05062BD50D0629D594F83D00F2
:101E20002128F6D1A068B0F5805F01D12069B0B15A
:101E3000206A411C2162216800784860E08C401EC5
:101E40000004000CE084E4D12068C16821F0800126
:101E5000C1602068C16841F04001C160F8BD206ADE
:101E60000088C0F308005060206A801C2062E5E70B
:101E70004006F3D54806F1D5D168204621F040014F
:101E8000D16084F83D3000F005F9F8BD2B22000840
:101E900070B5040004D094F83D00002510B106E0B0
:101EA000012070BD84F83C50204600F023F8242027
:101EB00084F83D002068C16821F40051C1602046CB
:101EC00000F0B2FA2068016921F4904101612068B4
:101ED000416921F02A0141612068C16841F4005143
:101EE000C1602564202084F83D0084F83E00002075
:101EF00070BD0000F0B585B0002406460094019442
:101F00000294039400682649884247D12548C16954
:101F100041F40031C161C16901F40031049181696A
:101F200041F0040181618069694600F00400049079
:101F30000C2000900220019003901B48FFF706FA46
:101F40001B4D1A488027C5E90004C5E902472C61EA
:101F50006C61AC612846EC61FFF772F908B1FEF7DD
:101F6000F7FDB5636E621148124D143001C51020A3
:101F700091C5104845F810496C61AC61EC61FFF700
:101F80005FF908B1FEF7E4FD7563002211462620D3
:101F90006E62FFF73DFB2620FFF72CFB05B0F0BD7E
:101FA0000044004000100240000801406C00024064
:101FB000D00000201401002090F83E30202B0ED1DC
:101FC00059B152B190F83C30012B08D0012380F870
:101FD0003C300023036300F083BA012070470220E5
:101FE0007047000010B5012207490848FFF7E4FFD9
:101FF0000548401CFEF73AFB034982B2BDE8104099
:10200000491C024800F006B80000002048000020EB
:102010007047000070B5044690F83D00202830D18C
:1020200069B362B394F83C0001282AD0012084F8F7
:102030003C002162A284E28400252564212084F8EA
:102040003D00636B10489862636B1048D862636B05
:102050000F481863606B134645632668606B321D3A
:10206000FFF71CF921686FF04000086084F83C50CD
:102070002068416941F080014161002070BD01206C
:1020800070BD022070BD0000F9220008272300085F
:102090003B22000870477047FEE70000FEB50024B1
:1020A00017480094019415490294016089158160D4
:1020B000012505730475022606614FF46021446012
:1020C000C161FEF73DFE08B172B6FEE7072000943D
:1020D000CDE9015069460A48FEF73EFD08B172B6E7
:1020E000FEE71020CDE9000669460548FEF734FDFD
:1020F000002801D072B6FEE7FEBD000000240140BA
:102100001800002030B585B00024244800940194C4
:1021100002940394816941F010018161816901F0A9
:1021200010010491816941F020018161816901F010
:1021300020010491816941F004018161816901F00C
:1021400004010491816941F0080181618069144DA5
:1021500000F008000490002220212846FFF7E6F94D
:10216000681400900F48CDE9010469460E48FFF756
:10217000EDF8202000900120CDE901040220039019
:1021800069462846FFF7E2F8002211462820FFF7AB
:102190003FFA2820FFF72EFA05B030BD00100240AC
:1021A000000801400000111000100140FEE7FEE7AA
:1021B00070477047FFF7C6B930B593B0282168461D
:1021C000FEF773FA14210AA8FEF76FFA0024012023
:1021D0000F940225049000951020059010941194FE
:1021E0001294CDE9075468460994FFF7A5FB08B19E
:1021F00072B6FEE70F20CDE90A054FF48060CDE905
:102200000C4000210AA80E94FFF7AAFA08B172B692
:10221000FEE70FA80F951194FFF72CFA002801D0C4
:1022200072B6FEE713B030BD704710B5406A0021AA
:10223000C185C184FFF725FD10BD70B5446A2068D3
:10224000406994F83D10C0F3C0100025212904D145
:1022500018B1E584204600F083F82068406994F8BE
:102260003E10C0F38010222904D118B1E585204624
:1022700000F05EF8206C40F0100020642046FFF76C
:1022800000FD70BD10B50146406A096809688906FD
:102290001BD40021C1850168CA6822F48072CA601B
:1022A00001684A6922F001024A6101684A6922F024
:1022B00040024A61202180F83E10016B012904D1BF
:1022C0000168CA6822F01002CA60016B012902D0BD
:1022D000FFF788FE10BD818DFFF7D2FC10BD10B551
:1022E000406A016B012902D0FFF792FE10BD818D7B
:1022F0004908FFF7C5FC10BD10B50146406A0968E2
:10230000096889060CD40021C18401684A6922F059
:1023100080024A610068C16841F04001C16010BD9F
:10232000FFF7B8FE10BD10B5406AFFF7B4FE10BD50
:102330000168CA6822F49072CA6001684A6922F092
:1023400001024A61016B012904D10168CA6822F0C7
:102350001002CA60202180F83E10002101637047FE
:102360000168CA6822F0C002CA60202180F83D10CE
:10237000704708B590F83E10222901D0022008BD10
:1023800082684FF480539A4201D1016921B1816A78
:102390009A421BD04AB10AE00268816A5268C2F3CD
:1023A00008020A80816A891C08E0026972B1026829
:1023B000526802F07F020A70816A491C8162C18DF5
:1023C000491E0904090CC18503D019E0026852684E
:1023D000F1E70168CA6822F02002CA600168CA6891
:1023E00022F48072CA6001684A6922F001024A61DF
:1023F000202180F83E10016B012903D0FFF7F2FD88
:10240000002008BD002101630168CA6822F01002A3
:10241000CA6001680A68D20602D50A684968009154
:10242000818DFFF72DFCEBE770B50446006801696C
:10243000E26821F44051114301612169A068084319
:10244000616908432168CA6841F20C639A430243F8
:10245000CA6020684169A26921F440711143416159
:102460001E492068884202D1FFF720FA01E0FFF7F9
:102470000DFA00EBC00101EB0012606864218000DE
:10248000B2FBF0F3B3FBF1F36FF018067343B2FB4A
:10249000F0F5B2FBF0F605EB8305322303EB0515EF
:1024A000B5FBF1F5B6FBF1F605F0F00505EB061509
:1024B000B2FBF0F6B2FBF0F0B0FBF1F06FF01802F7
:1024C000504306EB800003EB0010B0FBF1F02168F5
:1024D00000F00F002844886070BD00000038014003
:1024E00038B58162828500251346044605642220A2
:1024F00084F83E00A26B13489062A26B1248D0622F
:10250000A26B12481063A06B0A4645632168A06B5A
:10251000091DFEF7C3FE206801684168009184F838
:102520003C50C16841F48071C1602068416941F04C
:10253000010141612068416941F040014161002091
:1025400038BD000085220008DF2200083B22000879
:102550000148FFF797BB000048000020FEE709078D
:10256000090E002804DB00F1E02080F80014704719
:1025700000F00F0000F1E02080F8141D70473038A3
:102580000A2801D201207047002070478AB0FEF768
:10259000E1FFFFF711FEFFF7B5FD4E48416941F03D
:1025A000010141614069002200F0010000901146E4
:1025B0000B20FFF72DF80B20FFF71CF80022114627
:1025C0001020FFF725F81020FFF714F8002211461D
:1025D0001120FFF71DF81120FFF70CF8FFF75EFD43
:1025E0003E483D490C2201604FF4E1314160002139
:1025F0008160C160C0E904128161C161FFF748FCDC
:1026000008B172B6FEE73548022201A93038FEF75C
:1026100077FC012232493148FFF7CEFC31A1334E1D
:10262000D1E90001DFF8C890DFF8C8A02C4F6FF0A7
:102630000B084FF4FA7BCDE90501029800F0BEF9D2
:10264000414600F042FB314600F0CCF901464846D5
:1026500000F094FA314600F0D3F8514600F068F8E3
:102660003C7805460023E00703D0284600F08AF9AD
:102670000346A00706D52049284600F059F800F087
:1026800081F9034660070DD51C49284600F0AAF9D8
:102690001B4900F0B5F84FF0844100F049F800F014
:1026A00071F90346200700D5029BE00600D5019B87
:1026B00005AA0B2107A8FDF7ABFD07A8FDF7D6FF7C
:1026C00082B207A90548FFF7A5FC5846FEF71EFE93
:1026D000B3E7000000100240004400404800002022
:1026E00000000020253130690000000033335340E2
:1026F0001F85AB3F0000C8410080884300001041A7
:102700000000A04010B500290AD00878002807D0A2
:1027100005487844FEF7FEF8002801D0002010BDDF
:102720000248784410BD0000B2060000AA0600006E
:1027300090EA010F48BF81F0004100F12682421A61
:102740003CBF801A89184FEAD0524FF07F4C1CEAE8
:10275000410FA2EBD15318BF9CEA026F00F03B80FF
:102760004FF0004C4CEA00204CEA012121FA03FC16
:1027700010EB0C0C1ED202F1FF325FEA1C2040EB82
:10278000C25038BF70471CF07F0F4FEA400C18BF93
:10279000BCF17F4F38BF7047C3F12003994008BF99
:1027A00020F00100BCF17F4F38BF7047A0F1C0405E
:1027B00000F0DFB94FEA3C00000A40EBC25028BFEE
:1027C0001CF0FF0F4FEA400CE6D018BFBCF17F4F62
:1027D00038BF7047EAE79CEA026F05D010EA5C0F49
:1027E00008BF00F00040704710B500F07CF900BF52
:1027F00064FBBE3E014800F036BA00BF0000C07F57
:102800004FF47F0C1CEAD0121EBF1CEAD11392EACF
:102810000C0F93EA0C0F00F0858090EA010F48BF7F
:1028200042F4807240F4000C41F400002CF07F412F
:1028300020F07F4000B58142A2EB03020FF2081C9A
:10284000ACEB504EC0F100009EF800E04FEA4E0E97
:1028500000FB0EFC38BF49004FEA2C1C02F5FA02BF
:102860000CFB0EF34FEACE1E4FEA112C4FEAC121AA
:102870000EEB635E42EB22420EFB0CFC4FEA1C5354
:1028800000FB03114FEA112C4FEA01310EFB0CFC47
:102890004FEADC4C00FB0C11C14228BF09184CEB7D
:1028A00003335DF804EB10EB410143EBC250B2F58A
:1028B0007C0F38BF704729D512F0F00F1CBF00F114
:1028C000C04000F000407047008182838485868785
:1028D00088898B8C8D8E8F919293959697999A9CDF
:1028E0009D9FA0A2A3A5A7A8AAACAEB0B2B3B5B74E
:1028F000B9BCBEC0C2C5C7C9CCCED1D4D7D9DCDF24
:10290000E2E6E9ECF0F3F7FAFE0000004FEA400CD3
:102910000CF1807CBCF17E4F28BF7047B0F1C04005
:1029200000F027B990EA010F0CEAD11348BF42F436
:102930008072624538BF634507D213F47F0F16D00B
:1029400080EA010000F00040704710B500F0CBF8BD
:10295000097EFC3E00F005B880EA010000F000406E
:10296000704780EA010000F0004000F002B912F464
:102970007F0F04BF0248704780EA010000F0F9B8F9
:102980000000C07F41000B0ED3F19E0208D950F425
:1029900000034FEA032323FA02F048BF4042704786
:1029A00010B500F0A0F800BF4992248000207047C5
:1029B0006FF0004282EA200070470000B0FA80F316
:1029C00010FA03F2C3F19D030AD0D90501EB1220DE
:1029D000530638BF704700F1010008BF20F0010026
:1029E000704700004FF47F0C1CEAD0121EBF1CEA97
:1029F000D11392EA0C0F93EA0C0F00F0478090EA93
:102A0000010F48BF42F480724FF0004C4CEA0020A6
:102A10004CEA012102EB0302A0FB0113A2F5000224
:102A2000002918BF43F001035B0028BF4FEA3303BE
:102A300042EB22425FEA132C4CEBC2502EBFBCEBA0
:102A4000436FB2F57C0F70474FEA036CBCF1004F47
:102A500008BF20F00100B2F57C0F38BF70470BD5DE
:102A600082F0FF0212F5803FC8BF704700F1C040FE
:102A7000D8BF00F00040704700F5000C5FEA4C0C36
:102A800048BF7047B0F1C04000F073B890EA010F42
:102A90000CEAD11348BF42F48072624538BF6345E7
:102AA00004D280EA010000F00040704710B500F049
:102AB0001AF800BF8900013E00F007B800F009B81D
:102AC0005FEA410C5FEA1C6C08D080EA010000F06C
:102AD00050B85FEA400C5FEA1C6CF6D14FF0004042
:102AE000A0F5800070470EF1020E2EF0030E5EF886
:102AF000044B244204D44FEA4102B2F17F4F11D873
:102B00004FEA4003B3F17F4F0CD80ED14FEAD07C8F
:102B1000B2F17F4F0CEB4C0C0CF1020C08BF4CEBEC
:102B2000D17C04E04FF0080C01E04FEAD17C0CEBC3
:102B30004C0324FA03F404F00704B4F1040C06D2A5
:102B40000EEB840CBDE810404CF0010C6047DFE850
:102B50000CF0070802024FF00040A0F5800010BD05
:102B60000846420018BFD2F1807288BF00F00040D2
:102B700010BDFF2141EAD050C005704790EA010F17
:102B800048BF81F000413FF5DAAD421A04D882F027
:102B90000042A0EB020011444FEAD0524FF07F4CAC
:102BA0001CEA410FA2EBD15318BF9CEA026F4AD036
:102BB0004FF0004C4CEA00204CEA012121FA03FCC2
:102BC000B0EB0C0C0FD412F0FE0F36D05FEA4C00C5
:102BD0001DD5001240EBC25038BF70471CF03F0FAC
:102BE00018BF70470BE0A2F101025FEA1C2040EB26
:102BF000C25038BF70471CF07F0F18BF7047C3F139
:102C00002003994014BF401E20F001007047800847
:102C10004FEA122308BF7047B0FA80FCA2EB0C0207
:102C2000CCF1280C60FA0CF093EA122F04BF00EBF1
:102C3000C25070474FEAC3707047130A5FEADC1056
:102C400008BF7047F6E79CEA026F04D010EA5C0FF9
:102C500008BF0020704710B5FFF745FF40DFF63E84
:102C600081F0004070470CF00F03092B08BF0820CB
:102C700000F051800A2B0BD0082B18BF704708BFFB
:102C80001CF0400F0AD04FF000004FF000017047D9
:102C90001CF0400F18BF4FF0004070471CF0100FA1
:102CA00008D020F0704300F07F4242EAD3014FEA9F
:102CB0004370704700F0604021F07F4242EA00021A
:102CC00001F07F4040EA727070474FF0FF0212EA55
:102CD000D0521CBF92F0FF038B42C2BFD14200EB27
:102CE000C1507047002A0AD0002B0BD0002900F0F9
:102CF0000040A4BF40F0FE4040F40000704700F0E8
:102D00000040704743024FF00B0C18BF4CF0806C32
:102D10007FF470AD70471CF4801F11D01CF4E02FBD
:102D200003D06FEACC31490070474FF04050EFF3C9
:102D3000008222F0704242EA000282F3008870476B
:102D40004FF000007047000000000000000001028A
:102D50000304060708090000000001020304000044
:102D600000000000000000003031323334353637C7
:102D700038394142434445464030580030313233BF
:102D800034353637383961626364656640307800BF
:102D90000400000800000000000000020001000024
:102DA00010000000D42E00080000002018000000D1
:102DB00028010008EC2E000818000020A0070000E1
:102DC000440100081001000043000000F8FFFFFF6D
:102DD000004040404040404040404141414141402E
:102DE00040404040404040404040404040404040E3
:102DF0004005020202020202020202020202020272
:102E00000220202020202020202020020202020276
:102E100002029090909090901010101010101010CE
:102E200010101010101010101010101002020202DA
:102E3000020288888888888808080808080808081E
:102E4000080808080808080808080808020202021A
:102E50004000000000000000000000000000000032
:102E60000000000000000000000000000000000062
:102E70000000000000000000000000000000000052
:102E80000000000000000000000000000000000042
:102E90000000000000000000000000000000000032
:102EA0000000000000000000000000000000000022
:102EB0000000000000000000000000000000000012
:102EC0000000000000000000000000000000000002
:102ED000000000000061636B0A00000001000000B8
:0C2EE00010000000000000000024F400BE
:04000005080000ED02
:00000001FF
