:020000040800F2
:10000000880700209101000821280008192800080D
:100010001D2800081D060008052900080000000032
:100020000000000000000000000000002928000877
:100030002D06000800000000252800082D280008D3
:10004000AB010008AB010008AB010008AB010008E0
:10005000AB010008AB010008AB0100083106000845
:10006000AB010008AB010008AB0100082106000845
:10007000AB010008AB010008AB010008AB010008B0
:10008000AB010008AB01000891040008AB010008B7
:10009000AB010008AB010008AB010008AB01000890
:1000A000AB010008AB010008AB010008AB01000880
:1000B000AB010008AB010008AB010008AB01000870
:1000C000AB010008AB010008AB010008AB01000860
:1000D000AB010008AB010008F9280008AB010008DB
:1000E000AB010008AB010008AB01000800F002F80A
:1000F00000F03FF80AA090E8000C82448344AAF183
:100100000107DA4501D100F034F8AFF2090EBAE880
:100110000F0013F0010F18BFFB1A43F0010318473B
:10012000882A0000A82A0000103A24BF78C878C1A5
:10013000FAD8520724BF30C830C144BF04680C60ED
:10014000704700000023002400250026103A28BF35
:1001500078C1FBD8520728BF30C148BF0B60704739
:10016000642900F07D80002070471FB51FBD10B5C9
:1001700010BD00F052F91146FFF7F7FF02F0C4FB83
:1001800000F070F903B4FFF7F2FF03BC00F078F958
:100190000948804709480047FEE7FEE7FEE7FEE71B
:1001A000FEE7FEE7FEE7FEE7FEE7FEE70448054957
:1001B000054A064B7047000031280008ED00000892
:1001C0008801002088070020880300208803002081
:1001D0000FB41CB5074B06AA7B44694600900598EE
:1001E00000F003F90020694600F012F91CBC5DF82C
:1001F00014FB0000350200002DE9F0410E460446D4
:10020000002020622046E168884730B3252805D0C9
:10021000D4E901219047206A401CF2E7E1682046BA
:1002200000278847050018D0A5F14100192802D8F9
:1002300020354FF400673246294620462760FFF7F5
:100240008FFF40B1012804D0F61D26F007060836BE
:10025000D8E7361DD6E72846DAE7206ABDE8F08100
:100260002DE9F0410646002410687529314616A58F
:1002700010D0AFF30080002802DA404213A507E057
:1002800031688A0701D512A502E0490704D511A5F6
:10029000012401E0AFF3008000210A2206F12407C7
:1002A00009E0B0FBF2FCB0FBF2F302FB1C003030C3
:1002B00078541846491C0028F3D123462A46304674
:1002C000BDE8F04100F032B8000000002D00000051
:1002D0002B000000200000004FF0000200B5134684
:1002E00094469646203922BFA0E80C50A0E80C5056
:1002F000B1F12001BFF4F7AF090728BFA0E80C5007
:1003000048BF0CC05DF804EB890028BF40F8042BFF
:1003100008BF704748BF20F8022B11F0804F18BF6C
:1003200000F8012B70477047704770472DE9F04780
:100330000D4699469246044600F124080168880655
:1003400004D5E06921F01001216000E00120A842FD
:1003500001DD471B00E00027A1697A1902EB0900C3
:10036000081AA0612078C00602D42046AFF30080AE
:10037000002608E0D4E901211AF806009047206A17
:10038000401C761C20624E45F4DB2078C0060AD55E
:100390002046AFF3008006E0D4E9012130209047E9
:1003A000206A401C2062381EA7F10107F4DC07E038
:1003B000D4E9012118F805009047206A401C20620A
:1003C000281EA5F10105F3DC2046AFF3008020785C
:1003D000000602D50220BDE8F0870120FBE70000FF
:1003E00001694A1C02610878704700B58FB0CDE9F9
:1003F00001310021059105497944CDE903101146E9
:100400006846FFF7F9FE0FB000BD0000E5FFFFFFF3
:100410000A6802F8010B0A607047754600F02CF874
:10042000AE4605006946534620F00700854618B0E1
:1004300020B5FFF7BBFEBDE820404FF000064FF0AF
:1004400000074FF000084FF0000BAC46ACE8C009C5
:10045000ACE8C009ACE8C009ACE8C00921F007016C
:100460008D46704710B50446AFF300802046BDE8C6
:100470001040FFF787BE00000048704710000020C2
:1004800001491820ABBEFEE72600020070470000BD
:1004900040F28000C2F2000000F044BAB0B5044659
:1004A00000688168C90709D0816821F00101816075
:1004B00000F034FF21688968C90701D10020B0BD70
:1004C000054602E08068C007F8D000F027FF411B16
:1004D00020680329F6D38168C907F3D0A06A40F0E9
:1004E0001000A062E06A40F00100E0620120B0BDAF
:1004F0000146406A826A12F0500F03D0006A026B14
:10050000084610470168826A42F400728262896874
:1005100001F46021B1F5602F01D1017B11B100F030
:10052000F1B900BF816A21F480718162816AC904D6
:1005300048BF00F0E7B9816A41F00101816200F033
:10054000E1B90000406A816A41F040018162C16AFC
:1005500041F00401C16200F0E3B90000406A00F01C
:10056000DDB90000B0B582B00446002001902168DA
:100570008A68D2074FD1886840F00100886040F255
:100580000800C2F2000000684DF68361C4F21B311E
:10059000A0FB0101880C01900198A0B101980138DD
:1005A0000190019878B1019801380190019850B1FB
:1005B000019801380190019828B101980138019003
:1005C00001980028EAD100F0A9FE21688968C907CE
:1005D0001CD1054603E000BF8068C0071AD100F0B7
:1005E0009DFE411B20680329F6D38168C907F3D11A
:1005F000A06A40F01000A062E06A40F00100E062F2
:10060000002084F82400012002B0B0BD002002B018
:10061000B0BD00BF002002B0B0BD0000FEE700008A
:1006200040F2B000C2F2000000F008BC70470000C9
:1006300080B5022000F05CFD40F27000C2F20000C4
:100640000178B1FA81F14909017080BDEFF31080A2
:1006500072B600BFFEE7000070B582B0044600200D
:10066000019094F82400012804D10225284602B004
:1006700070BD00BF012084F824002046FFF70EFF64
:10068000054600286CD1A06A41F20211884302306D
:10069000A06240F20800C2F200000668022000F0EA
:1006A000EFFEB6FBF0F0400001900198A8B100BF4A
:1006B000019801380190019878B1019801380190B2
:1006C000019850B1019801380190019828B1019822
:1006D0000138019001980028EAD12046FFF742FF37
:1006E0002068816841F00801816000F017FE2168F0
:1006F0008A6812070ED4886840F00400886000F011
:100700000DFE21688968490714D401206FF00301A8
:1007100022E000BF064602E088680007EBD500F043
:10072000FDFD801B21680B28F6D388680007F3D5F0
:100730000EE000BF064602E080684007E5D500F005
:10074000EDFD811B20680B29F6D381684907F3D59D
:10075000012510206FF01201A26A11400843A06227
:10076000002084F82400284602B070BD70470000C5
:1007700010B581B00022009290F82420012A03D104
:100780000221084601B010BD4B680122062B80F8FB
:10079000242015D8026803EB8303A3F1050E1F2361
:1007A000D2F834C003FA0EF40B682CEA040C03FAF6
:1007B0000EF444EA0C045463092B17D937E000BF48
:1007C00002680C2B20D803EB8303A3F123041F231F
:1007D000D2F830C003FA04FE0B682CEA0E0C03FAC0
:1007E00004F444EA0C041463092B20D8D2F810C096
:1007F00003EB4303072489689C402CEA04049940D6
:1008000021431161002136E003EB8303A3F141048E
:100810001F23D2F82CC003FA04FE0B682CEA0E0C3E
:1008200003FA04F444EA0C04D462092BDED903EB86
:100830004304D2F80CC0A4F11E0E0724896804FA00
:100840000EF42CEA040401FA0EF1214323F0010412
:10085000102CD1600ED142F20841C4F20101A1F185
:100860000804A2420ED0816A41F020018162012178
:1008700001E000BF0021002280F82420084601B0DA
:1008800010BD00BF0A68120230D40A68102B42F46F
:1008900000020A602CD140F20801C2F2000109688E
:1008A0004DF68362C4F21B32A1FB0212910C01EBE4
:1008B0008101490000910099E1B10099013900914D
:1008C0000099C9B10099013900910099B1B100991D
:1008D00001390091009999B100990139009100996D
:1008E00000294FF00001E8D1C5E700BF0021C2E7B1
:1008F0000021C0E70021BEE70021BCE70021BAE7E4
:100900000021B8E740F27000C2F2000040683421D4
:100910000001C4F200010860704700007047000049
:100920007047000010B5044600684168890644BF5E
:1009300001685FEA81710BD44168090644BF016810
:100940005FEA41712AD4416849065BD410BD00BFFB
:10095000A16AC90603D4A16A41F40071A162816849
:1009600001F46021B1F5602F10D1217B71B941688C
:1009700021F020014160A06A20F48070A062A06A8A
:10098000C00403D4A06A40F00100A0622046FFF733
:10099000B9FF20686FF012010160CDE7A16AC906B6
:1009A00003D4A16A41F40051A162816801F4E041DD
:1009B000B1F5E04F10D1416821F080014160A06A9B
:1009C00020F48050A062A06AC00511D4A06A40F053
:1009D0000100A0620CE000BF4168490508D48168AD
:1009E00001F46021B1F5602F02D1217B0029E2D012
:1009F0002046FFF7BBFE20686FF00C0101604168E4
:100A00004906A3D50068C00708BF10BDA06A40F41E
:100A10008030A062204600F0B3F820686FF001013A
:100A2000016010BDB0B5002800F0A8800446806ABF
:100A300020B121688868C0070BD114E00020E06273
:100A400084F82400204600F09DF821688868C007DB
:100A500009D0886820F00100886000F05FFC216800
:100A60008A68D20726D1A06AC0063AD4A06A41F2A9
:100A7000021290430230A062E069D4E9013240EAF8
:100A8000030C531EB3FA83F35D091346B2F5807F5E
:100A900018BF2B02207D257B01284CEA450030D170
:100AA00035B3A56A45F02005A562E56A45F0010564
:100AB000E56226E0054602E08868C007D3D000F072
:100AC0002DFC401B21680328F6D38868C007F3D0AB
:100AD000A06A40F01000A062E06A40F00100E0620D
:100AE000A06AA06A40F01000A0620120B0BD00BF63
:100AF000D4F818C04EF60005CFF6FF7505EB4C355F
:100B00002B434D68B2F5807F25F4694543EA050320
:100B10004B608B684FF2FD75CFF6E17503EA050374
:100B200043EA00038B6001D0012A07D12269002328
:100B3000CFF6F07303EB025201E000BF0022CB6A54
:100B400023F470031A43CA62896840F6FE62CFF646
:100B50001F721140814207D10020E062A16A012288
:100B600062F30101A162B0BDA06A40F0100020F064
:100B70000200A062E06A40F00100E0620120B0BD26
:100B80007047000070B586B0044640F60000C4F21D
:100B90000100216800F5E052002691420596049676
:100BA00002D006B070BD00BF41F21801C4F20201CC
:100BB0000A6842F400720A600A6802F40072019244
:100BC000019A0A6842F004020A60096801F004010F
:100BD00001910199012102910321039102A900F0E1
:100BE00093FA40F2B0050820C2F20005C4F20200F8
:100BF0004FF48072C5E9000605F1100080214FF422
:100C000080634CC02846C5E90261EE6100F0E4F95A
:100C1000002818BFFFF71AFD1220002100222562CC
:100C20006C6200F0F1FB122000F0DEFB06B070BD3C
:100C300070B515460446006842F60002C4F201028F
:100C400090420E4605D042F20041C4F201018842B2
:100C500009D142F20440C4F20100006810F4702F80
:100C60001CBF012070BD94F82400012804BF02209D
:100C700070BD012084F824002046FFF773FC18B1F2
:100C8000002184F8241070BD42F204402168A26A59
:100C9000C4F2010040F601739A4300F57F7302F538
:100CA00080729942A26243D0A06A20F48010A062B0
:100CB0004868400504D5A06A012262F30D30A062A5
:100CC000A26A0020D2044FF0000244BFE26A22F080
:100CD0000602E26284F82400206A40F2F142C0F683
:100CE000000240F25D5340F2455C00F1280EC0F670
:100CF0000003C0F6000C8EE80C106FF002020A60D0
:100D00008A682B4642F480728A604C31324600F089
:100D10009FF92068816801F460228168B2F5602F34
:100D20000CBF41F4A00141F480118160002070BD2E
:100D3000026812F4702FB7D0A26A42F48012A26245
:100D400000684005BCD5B6E7014690F821000228AE
:100D500016D10868D1E90FC3026822F00E020260C2
:100D6000026822F001020260012000FA03F2CCF8CE
:100D7000042081F821000020002281F82020704703
:100D8000042088630120002281F8202070470000A1
:100D900080B590F82110022924D10268116821F051
:100DA0000E0111602F211368C4F202018A4240F241
:100DB0000401C4F2020123F00103136016DD3023A5
:100DC000C4F202039A421DD04423C4F202039A42A1
:100DD0001CD05823C4F202039A421DD14FF4803331
:100DE00022E000BF04218163012080BD0823C4F2FA
:100DF00002039A420ED01C23C4F202039A420BD182
:100E0000102311E04FF480730EE000BF4FF48053C5
:100E10000AE000BF012307E001F1680C4FF0807386
:100E2000624508BF4FF480130B60416B4FF4807232
:100E3000028401B18847002080BD000010B5D0E9D0
:100E40000FCE0168DCF800300A6823FA0EF35C0765
:100E50002AD512F0040427D00A68920603D40A683F
:100E600022F004020A602F22C4F20202914240F2F0
:100E70000402C4F2020259DD3023C4F20203994293
:100E800070D04423C4F20203994271D05823C4F2B3
:100E90000203994278D14FF480231360C16A00297C
:100EA00040F097806EE000BF9C0727D512F0020447
:100EB00024D00A68920606D40A6822F00A020A6060
:100EC000012280F821202F22C4F20202914240F236
:100ED0000402C4F2020239DD3023C4F20203994253
:100EE0005ED04423C4F2020399425DD05823C4F279
:100EF000020399425ED14FF4003363E01B0741D5F2
:100F000012F0080208BF10BD0A6822F00E020A6043
:100F1000012101FA0EF2CCF804208163016B4FF439
:100F200080720029028454D12CE000BF0823C4F24F
:100F30000203994222D01C23C4F20203994223D116
:100F400040231360C16A002943D11BE00823C4F287
:100F5000020399422CD01C23C4F20203994229D1E6
:100F600020232FE04FF480631360C16A89BB09E03E
:100F70004FF480431360C16A59BB03E0042313603C
:100F8000C16A31BB10BD00BF02F168044FF080633D
:100F9000A14208BF4FF480031360C16AC9B9F1E7E9
:100FA0004FF400730EE000BF4FF400530AE000BF9F
:100FB000022307E002F168044FF00073A14208BF6A
:100FC0004FF400131360816A0022002980F820206A
:100FD000D8D0BDE810400847002804BF0120704762
:100FE0002DE9F04101684FF6F872CBF6FD724CF630
:100FF000CD430A44CCF6CC43A2FB03236FF0030796
:1010000007EA93030027C4F2020700F1040E00F17F
:101010001008C0E90F739EE8045098E870010B684F
:1010200043F6F077BB431A4342EA0C0242EA0E024F
:1010300022432A43324342EA08020A6000214FF465
:10104000807281630284BDE8F04108467047000069
:10105000F0B590F820C0BCF1010F32D090F821C05B
:101060004FF0010EBCF1010F80F820E026D14FF0C7
:10107000020C80F821C04FF0000CC0F838C0D0E955
:1010800000C4C56AC66BDCF80070102C27F001079D
:10109000CCF80070006C0EFA00F070600846CCF8D6
:1010A000043004BF10460A46CCF80800CCF80C20E7
:1010B000DCF8000045B140F00E000DE0002180F8A2
:1010C00020100220F0BD00BF20F00400CCF800008A
:1010D000DCF8000040F00A00CCF80000DCF800006A
:1010E00040F00100CCF800000020F0BD7047000087
:1010F00040F21441C4F201010A68024214BF0860C0
:101100007047FFF7F3BF00002DE9F04F82B041F2C6
:101110000042C4F201020E680423904208BF032378
:10112000002E009300F0F68040F20C4E4FF6FF7C4C
:10113000C4F2010E00220124C1F2100C4FF0000A8B
:101140004FF0000943E000BF012502F00C040F2717
:10115000A7402BEA070705FA04F43C4343F826406E
:10116000D1F804B040F20045C4F201055FEACB3388
:101170002B6854BF23EA080343EA08032B606B681B
:101180005FEA8B3454BF23EA080343EA08036B6029
:101190005FEACB24AB6854BF23EA080343EA0803A1
:1011A0005FEA8B24AB60DEF800304FF0010454BFDF
:1011B00023EA080343EA0803CEF800300E680AF178
:1011C000010A36FA0AF302F1040200F0A38004FADD
:1011D0000AF816EA080FF1D04B68634512DC122BAF
:1011E00056D8DFE803F0350B45495555555555554B
:1011F000555555555555554D510000BFD1F80C90DA
:1012000046E000BF4FF6FF77C1F22107BB420FDC7B
:101210000027C1F21107BB421AD00027C1F2120702
:10122000BB4215D00027C1F22107BB4210D02FE0EE
:101230000027C1F22207BB420AD00027C1F23107C2
:10124000BB4205D00027C1F23207BB4220D100BF0C
:101250008B684BB1012B14BFC0F81480C0F810800C
:101260004FF0080914E000BF4FF0040910E000BF80
:10127000CB6803F108090BE04FF0000908E000BF5C
:10128000CB6803F1040903E0CB6803F10C0900BF4C
:1012900013460546BAF1080F24BF203B04352E68DB
:1012A0000F279F40BE4309FA03F333432B60CB79EA
:1012B000DB067FF583AF41F21804C4F20204236811
:1012C0004FEA9A0643F001032360236840F60004C6
:1012D00003F001030193019B40F20043C4F20103B8
:1012E000A3F57E7353F826B0C4F20104A0420FD0D8
:1012F00040F60044C4F20104A0423FF425AF41F29D
:101300000004C4F20104009DA04208BF02251CE7AE
:1013100000251AE702B0BDE8F08F000040F280100F
:10132000C2F200000068704740F2000040F28011F5
:10133000C2F20000C2F2000100780A68104408609E
:101340007047000080B542F20000C4F2020001685C
:1013500041F010010160032000F082F80F2000F03E
:1013600005F800F027F8002080BD000070B540F2BD
:101370000006C2F2000640F208013278C2F2000113
:101380004FF47A730968B3FBF2F20446B1FBF2F151
:10139000084600F055FC0F2C4FF0010508D838B96D
:1013A0004FF0FF3021460022002500F02DF8746038
:1013B000284670BD82B041F21800C4F202000168F4
:1013C00041F001010160016801F001010191019901
:1013D000416841F080514160406800F080500090C9
:1013E000009802B070470000002848BF704700F026
:1013F0001F01012202FA01F14EF200124009CEF261
:10140000000242F82010704710B54EF60C5CCEF288
:10141000000CDCF80030C3F3022E8EF00704042C1D
:1014200028BF0424BEF103034FF0FF3E0EFA04F47C
:1014300038BF0023A14399400EFA03F39A431143A6
:1014400000F00F02043A624409010C3200F16043DB
:10145000B0F1FF3FC8BF03F56442117010BD00003A
:101460004EF60C51CEF200010A684FF6FF031A4007
:1014700060F30A2242F0806040F0FD70086070471F
:1014800080B5012818D0022836D0102832D141F278
:101490000401C4F202010A6851F8040CC00129D504
:1014A000C2F383402DA3185CD2033DD440F6001252
:1014B000C0F23D02504343E041F20400C4F2020096
:1014C000C16940F202320A40B2F5817F04BF4FF495
:1014D000004080BD01F44071B1F5407F1CD0B1F5F2
:1014E000007F07D1006A49F64041800701EAE070B9
:1014F00080BD00BF002080BD00F0B4F941F20401BE
:10150000C4F2020109680222C1F3813102EB4101F8
:10151000B0FBF1F080BD00BF50F8040C4FF2244145
:10152000800301EAE07080BD0A6810A3C2F3404264
:101530009A5C41F20023C0F27A03B3FBF2F250430B
:101540000968490248BF80BD4AF6AB214000CAF68F
:10155000AA21A0FB0101480880BD00BF02030405C9
:10156000060708090A0B0C0D0E0F101001020000EF
:101570002DE9F04182B00446007841F21C06C00714
:10158000C4F202064AD0306810F0805808D13068A2
:1015900040F080503060306800F080500190019839
:1015A00047F20007C4F200073868C00512D4386853
:1015B00040F480703860FFF7B1FE05463868C0051A
:1015C00008D4FFF7ABFE401B6428F7D9032002B014
:1015D000BDE8F081706810F4407012D0616801F4C9
:1015E000407188420DD0706840F24042C4F24222FD
:1015F000012320F4407113600023C0071360716061
:101600002AD17068616820F440700843B8F1000F77
:10161000706003D1306820F080503060206881070E
:1016200007D556F8181CA26821F44041114346F82A
:10163000181CC00604D4002002B0BDE8F08100BF31
:1016400056F8180CE16820F48000084346F8180C9E
:10165000002002B0BDE8F081FFF760FE054641F2D0
:10166000883700BF70688007CBD4FFF757FE401B58
:10167000B8424FF00300F5D9EBE700002DE9F04345
:1016800081B0002800F0858042F20008C4F2020810
:101690000446D8F800000D4600F0070088420CD23E
:1016A000D8F8000020F007002843C8F80000D8F858
:1016B000000000F00700A8426BD1206841F2040945
:1016C0008107C4F2020917D5410705D5D9F80010E2
:1016D00041F4E061C9F80010010705D5D9F8001000
:1016E00041F46051C9F80010D9F80010A26821F047
:1016F000F0011143C9F80010C00741D1D8F800002B
:1017000000F00700A8420CD9D8F8000020F007002C
:101710002843C8F80000D8F8000000F00700A842ED
:1017200037D12068410707D5D9F80010E26821F4C5
:10173000E0611143C9F80010000708D5D9F800008E
:10174000216920F4605040EAC100C9F80000D9F8CE
:10175000002002F00C00082841F20020C0F27A00BC
:1017600050D142F69633C2F38341C0F60003595C70
:10177000D2033BD440F60010C0F23D00484341E0A4
:10178000606802280AD001282AD159F8041C89036C
:1017900008D4012001B0BDE8F08300BF59F8041C53
:1017A0008901F6D5D9F8001021F003010843C9F8E2
:1017B0000000FFF7B3FD064641F28837D9F8000074
:1017C000616800F00C00B0EB810F97D0FFF7A6FD29
:1017D000801BB842F2D9032001B0BDE8F08300BFFE
:1017E00059F8041C8907D4D5DCE700BFD9F80020DC
:1017F00042F67C33C2F34042C0F600039A5C484391
:10180000B0FBF2F0D9F8001042F67E32C1F30311BA
:10181000C0F60002515C40F2080220FA01F140F2E9
:101820000400C2F200000068C2F200021160FFF77B
:101830009DFD002001B0BDE8F083000040F20800EB
:1018400041F20401C2F20000C4F20201006809681A
:1018500042F68E32C1F30221C0F60002515CC8404C
:101860007047000040F2080041F20401C2F200009B
:10187000C4F202010068096842F68E32C1F3C22147
:10188000C0F60002515CC840704700002DE9F041ED
:1018900082B0002868D00446007841F20006C007F4
:1018A000C4F2020625D0706800F00C0004281BD09A
:1018B000706800F00C00082802D17068C00313D4CF
:1018C0006068002800F06881B0F5A02F00F07C81EE
:1018D000B0F5803F00F07C81306820F480303060CB
:1018E000306820F4802076E13068800301D560689C
:1018F000D0B32078800718D5706810F00C0F07D08F
:10190000706800F00C0008286ED17068C0036BD4BA
:101910003068800702D52069012825D130686169C7
:1019200020F0F80040EAC1003060207800071FD4A2
:101930002078400732D4E56995B1706800F00C005A
:10194000082840F08F80012D0ED07068216A00F4C5
:1019500080328A4208D1616A00F47010884203D153
:10196000002002B0BDE8F081012002B0BDE8F081A6
:10197000A069002862D00020C4F242200121C0F8F2
:101980008014FFF7CBFC0546706A800700F18C805D
:10199000FFF7C4FC401B0228F6D92AE1F06910F0D9
:1019A000805808D1F06940F08050F061F06900F093
:1019B00080500090009847F20007C4F20007386892
:1019C000C00529D4386840F480703860FFF7A6FC61
:1019D000054600BF3868C0051ED4FFF79FFC401BBA
:1019E0006428F7D905E100BF2069002840F2000013
:1019F000C4F2422000F0828001210160FFF78EFCDA
:101A0000054600BF306880073FF588AFFFF786FCCA
:101A1000401B0228F6D9ECE0E068002800F0808046
:101A2000052800F09780012800F09880306A20F0A7
:101A300001003062306A20F0040092E00020C4F21D
:101A400042200021C0F88014FFF768FC054600BF63
:101A5000706A80077FF56CAFFFF760FC401B0228BF
:101A6000F6D9C6E00027C4F2422700203866FFF707
:101A700055FC022D05460BD13068800140F1BE8037
:101A8000FFF74CFC401B02284FF00300F4D968E735
:101A9000306880017FF564AFFFF740FC401B0228EF
:101AA0004FF00300F4D95CE740F20800C2F20000F6
:101AB000006844F6D351C1F26201A0FB0101480A5B
:101AC000019000BF00BF0198411E002801913FF422
:101AD0002FAF00BF0198411E002801913FF428AFAD
:101AE00000BF0198411E002801913FF421AF00BFC3
:101AF0000198411E00280191E4D119E700210160FD
:101B0000FFF70CFC054600BF306880077FF50DAF7E
:101B1000FFF704FC401B02284FF00300F4D920E734
:101B2000306A20F001003062306A20F00400306238
:101B3000FFF7F4FB054641F2883700BF306A8007A3
:101B400020D5FFF7EBFB401BB8424FF00300F5D95F
:101B500007E700BF306A40F004003062306A40F0AE
:101B600001003062FFF7DAFB054641F2883700BF1B
:101B7000306A800706D4FFF7D1FB401BB842F7D983
:101B800037E000BFB8F1000F7FF4D5AEF06920F068
:101B90008050F061CFE600BF306820F480303060C4
:101BA000306820F480203060FFF7B8FB054600BFA6
:101BB000306880037FF59DAEFFF7B0FB401B6428C3
:101BC0004FF00300F4D9CCE6306840F48020306058
:101BD000306840F480303060FFF7A0FB054600BF5E
:101BE000306880033FF585AEFFF798FB401B642803
:101BF000F6D9032002B0BDE8F08100BF206AB0F53D
:101C0000803F05D17168A26821F4003111437160F1
:101C10007168626A21F474111043084370600120F6
:101C20003866FFF77BFB0446306880013FF598AECD
:101C3000FFF774FB001B02284FF00300F4D990E675
:101C4000411E0020B0EB116F1CBF012070474EF207
:101C50001002CEF2000251604EF62351CEF2000186
:101C6000F0230B70072190601160704710B590F859
:101C70003C20012A4FF0020233D080F83D20026858
:101C8000D2F804E0D2F808C00C682EF070032343A9
:101C900040F2FF74C4F20004A24253600ADCB2F1C5
:101CA000804F13D040F20043C4F200039A420DD09B
:101CB00011E000BF42F60043C4F201039A4205D08E
:101CC00040F60003C4F200039A4204D149682CF0A4
:101CD0008003194391600121002280F83D1080F8B3
:101CE0003C20104610BD0000002804BF01207047B2
:101CF00010B5044690F83D0028B9002084F83C0057
:101D0000204600F067F8022084F83D00206840F289
:101D1000FF730268C4F2000342F6004C9842C4F21A
:101D2000010C15DCB0F1804F1AD040F20041C4F232
:101D30000001884214D0984218DCB0F1804F1DD0C9
:101D400040F20041C4F20001884217D01AE000BFFF
:101D5000604505D040F60001C4F200018842EAD196
:101D6000A16822F070020A439842E6DD604505D082
:101D700040F60001C4F20001884203D1216922F437
:101D800040720A43A36922F08001D4F804E0E268BB
:101D9000194360450160C262C0F828E002D1616960
:101DA000CCF8301001214161002084F8461084F8FD
:101DB0003E1084F83F1084F8401084F8411084F8F5
:101DC000421084F8431084F8441084F8451084F8D5
:101DD0003D1010BD81B00068B0F1804F02D001B05D
:101DE000704700BF41F21C00C4F20200016841F0DC
:101DF00001010160006800F001000090009801B04E
:101E00007047000080B590F83C20012A4FF0020294
:101E100000F0BF8080F83D20D0F800C04FF6777208
:101E2000DCF8083023EA0202CCF808200B683F2BCC
:101E30001CDD5F2B20DD602B50D0B3F5005F6DD033
:101E4000702B40F0A080D1E901E3C968DCF80820DC
:101E500043EA0E0322F47F4243EA01211143CCF806
:101E60000810DCF8081041F077018AE01F2B29DC0C
:101E700063B3102B2AD086E0402B63D0502B40F068
:101E80008280D1F804E0C968DCF82030DCF820203A
:101E900022F00102CCF82020DCF8182022F0F00219
:101EA00042EA011123F00A0242EA0E02CCF81810AD
:101EB000CCF82020DCF8081041F0570121F0200177
:101EC0005FE000BF202B01D0302B5CD1DCF8081084
:101ED00021F07001194341F0070152E0D1F804E00C
:101EE000C968DCF8203023F01003CCF82030DCF88F
:101EF0001830DCF8202023F4704322F0A00243EADB
:101F0000013142EA0E12CCF81810CCF82020DCF88F
:101F1000081041F0670121F0100132E0D1E901E33E
:101F2000C968DCF8082043EA0E0322F47F4243EA42
:101F300001211143CCF80810DCF8081041F480416D
:101F40001FE000BFD1F804E0C968DCF82030DCF8FD
:101F5000202022F00102CCF82020DCF8182022F00A
:101F6000F00242EA011123F00A0242EA0E02CCF822
:101F70001810CCF82020DCF8081041F0470121F0BF
:101F80003001CCF808100121002280F83D1080F8C3
:101F90003C20104680BD000080B586B0006800215E
:101FA000B0F1804F049101D006B080BD41F218001D
:101FB000C4F20200016841F004010160006802A956
:101FC00000F00400019001984FF4004002900220BC
:101FD0000390059040F60000C4F20100FFF794F86A
:101FE0000420C4F2010001684FF6FF42CFF6FF0261
:101FF000114041F0E06141F48071016006B080BDA4
:102000002DE9F04390F83C30012B04BF0220BDE8DD
:10201000F0834FEAB202032A00F2E580DFE802F023
:10202000023A76B0036842F600461A6AC4F2010624
:1020300022F001021A621D6A1A465C6852F818CF33
:10204000B3428E68D1F800E025F0020545EA0605A6
:102050000CD1CE68D1E9057824F4407425F00C0544
:1020600026F004063C43354344EA08042CF0730789
:1020700047EA0E075C609F614F6809695F631D62F4
:102080009F6947F008079F619F6927F004079F61D8
:10209000A6E000BF036842F600461A6AC4F20106D1
:1020A00022F010021A621D6A1A46D3F804C052F8D0
:1020B000184FB3428E68D1F800E025F0200545EABC
:1020C00006150FD1CE68D1E905986FF0400707EAF1
:1020D00006162CF4406725F0C00547EA890735430A
:1020E00047EA880C24F4E64444EA0E27C3F804C007
:1020F0009F614F6809699F631D629F6947F400678C
:102100009F619F6927F480679F6168E0036842F6DA
:1021100000461A6AC4F2010622F480721A621D6A2D
:102120001A46D3F804C052F81CEFB3428E680C680C
:1021300025F4007545EA06250FD1CE68D1E905984A
:10214000360240F2FF47BE432CF4405725F4406569
:1021500047EA0917354347EA081C2EF0730727435F
:10216000C3F804C0DF614F680969DF631D62DF697E
:1021700047F00807DF61DF6927F00407DF612FE020
:10218000036842F600471A6AC4F2010722F480523B
:102190001A621A46D3F820C05D6852F81C4FD1F875
:1021A00000E08E68BB4204D14F6925F4804545EAC2
:1021B00087152CF4005747EA063724F4E64646EA2A
:1021C0000E265D60DE614E6809691E641F62DF696C
:1021D00047F40067DF61DF6927F48067DF61090288
:1021E000136819431160002180F83C100846BDE8CF
:1021F000F0830000002804BF0120704710B504469A
:1022000090F83D0028B9002084F83C00204600F0FA
:1022100067F8022084F83D00206840F2FF730268EE
:10222000C4F2000342F6004C9842C4F2010C15DCE3
:10223000B0F1804F1AD040F20041C4F20001884250
:1022400014D0984218DCB0F1804F1DD040F200410C
:10225000C4F20001884217D01AE000BF604505D0E3
:1022600040F60001C4F200018842EAD1A16822F0E0
:1022700070020A439842E6DD604505D040F6000151
:10228000C4F20001884203D1216922F440720A435A
:10229000A36922F08001D4F804E0E26819436045A4
:1022A0000160C262C0F828E002D16169CCF8301048
:1022B00001214161002084F8461084F83E1084F822
:1022C0003F1084F8401084F8411084F8421084F8DC
:1022D000431084F8441084F8451084F83D1010BD74
:1022E0007047000041B1082910D0042914BF00F143
:1022F000410200F13F020BE090F83E20012A1CBF92
:1023000001207047022280F83E2013E000F14002D5
:102310001278012A1CBF012070470222082907D029
:10232000042914BF80F8412080F83F2002E000BF5C
:1023300080F84020006801F01F010122036A8A40F2
:1023400023EA02010162036A42F64441C4F2010138
:102350001A43A1F14403984202620FD040F2FF7188
:10236000C4F20001884213DCB0F1804F1CD040F26F
:102370000041C4F20001884216D01CE00A6842F411
:1023800000420A6040F2FF71C4F200018842EBDDB6
:1023900042F60041C4F20101884205D040F6000136
:1023A000C4F20001884206D1816801F007010629C4
:1023B00004BF00207047016841F001010160002066
:1023C000704700007047000070470000B0B582B051
:1023D000026805461068D368546900F02F0120296F
:1023E00003F0200106D129B1284602B0BDE8B04073
:1023F00000F026BA5FEA007C1EBF04F0010E03F471
:10240000907414EB0E0455D1296B012905D110F0FD
:10241000100118BF13F0100136D1010622D513F0B8
:1024200080011FD095F83D00212841D1A868B0F562
:10243000805F03D12869002800F0F680286A411CDB
:10244000296200785060E88C01380104E8842FD1BB
:10245000D06820F08000D060D06840F04000D060AC
:1024600002B0B0BD400623D513F0400020D0D068A4
:10247000202120F04000D060284685F83D1002B0B1
:10248000BDE8B04000F0AEB90020019010680190A6
:102490005068019001985069400613D4A88DE98DC9
:1024A000EB8D002B1CBF401A5FEA004140F0A48076
:1024B00002B0B0BDC40718BF13F480732CD143071A
:1024C00030D436E0A86B01684B689CB2002CEFD08A
:1024D000A98D8C42ECD2EB858369202B17D0D16873
:1024E00021F48071D160516921F00101516151697C
:1024F00021F040015161202185F83E10002129631F
:10250000D16821F01001D160FEF71EFCA98DE88D85
:10251000081A81B2284682E02B6C43F001032B6439
:10252000430706D5BEF1000F03D02B6C43F0020326
:102530002B64830706D5BEF1000F03D02B6C43F04C
:1025400004032B64BCF1000F06D551EA0E0303D03F
:102550002B6C43F008032B642B6C002BA8D010F0DD
:10256000200018BF002903D0284600F069F92A6826
:102570005069296C00F0400001F0080140182DD08E
:10258000D06820F49070D060506920F00100506154
:10259000286B012803D1D06820F01000D0602020E3
:1025A00085F83E0000202863506940061ED550691A
:1025B00020F040005061A86BC0B142F63501C0F672
:1025C00000014163FEF7E4FB00283FF471AFA86B04
:1025D000416B02B0BDE8B040084700BF2846FFF796
:1025E000F3FE0020286402B0B0BD00BF284602B050
:1025F000BDE8B040FFF7E8BED16821F49071D1602A
:10260000516921F001015161202185F83E1000211E
:102610002963D16821F0100381B22846D36002B04B
:10262000BDE8B040FFF7CEBE286A30F8021B6FF35A
:102630005F215160286206E7002804BF012070472F
:1026400010B5044690F83D0028B9002084F83C00FD
:10265000204600F05FF8242084F83D002068D4E98B
:102660000212C36823F40053C360036923F4405388
:102670001A430261D4E904231143C268194341F2A9
:102680000C639A431143C1604169A26921F440710E
:10269000114343F60002C4F201029042416103D0AB
:1026A000FFF7CCF802E000BFFFF7DCF86268192101
:1026B00048439100B0FBF1F048F21F51C5F2EB1115
:1026C000A0FB01235A096FF0630302FB03003223CE
:1026D00003EB0010A0FB0101F02303EA5113206873
:1026E00003EB0212C1F3431111448160016921F42B
:1026F00090410161416921F02A014161C16841F4C1
:102700000051C16000202021206484F83D1084F82D
:102710003E1010BD70B586B040F60004C4F201044E
:102720000068A4F5444100268842049602D006B011
:1027300070BD00BF41F21800C4F20200416802AD52
:1027400041F400314160416801F400310191019987
:10275000016841F0040101600068294600F00400AE
:10276000019001980420029002200390032005901C
:102770002046FEF7C9FC0820CDE90206204629467E
:102780000496FEF7C1FC262000210022FEF73CFE45
:102790002620FEF729FE06B070BD0000704700003D
:1027A000034690F83D0020280AD100294FF001008F
:1027B00018BF002A00D1704793F83C00012801D1CE
:1027C000022070471962002021219A84DA8418645B
:1027D00083F83D10196883F83C00CA6842F0800213
:1027E000CA60704710B540F27004C2F2000420784D
:1027F00028B9626804F1080006A1FDF7E9FC40F27F
:102800003C1004F10801C2F200000522BDE81040AE
:10281000FFF7C6BF25640000FEE70000FEE70000EA
:10282000FEE700007047000070470000FEF77CBD27
:1028300070470000406A0021C185C184FFF7C4BD14
:1028400081B090F83E10222920D18368B3F5805FD3
:1028500008D10169002941D000F128010A68036804
:102860005B680AE0014651F8282F13B90369002B71
:10287000F5D003685B6803F07F0313700A680132C8
:102880000A60C18D01390A04C18501D001B07047C9
:102890000168CA6822F02002CA60CA6822F4807205
:1028A000CA604A6922F001024A61202280F83E2073
:1028B000026B012A1CD100220263CB6823F01003B3
:1028C000CB600B68DB0605D500920A680092496868
:1028D00000910099818D01B0FFF774BD0168826A93
:1028E00049686FF35F2122F8021B8262C9E700BFCB
:1028F00001B0FFF753BF000040F23C10C2F20000ED
:10290000FFF764BDFEE7000094B0FEF71BFD0AACC4
:10291000201D2421FDF7E0FC02200A9001200E90EA
:10292000102000250F9020460395CDE90155119503
:10293000FEF7ACFF20B1EFF3108072B6FEE700BFE8
:102940000F20CDE9050505A80021CDE9075509951A
:10295000FEF794FE20B1EFF3108072B6FEE700BFE1
:1029600002270024684600970294FEF701FE28B172
:10297000EFF3108072B600BFFEE700BF41F2180609
:102980000D94C4F20206306844F2004540F0200085
:1029900030603068C4F2000500F020000590059812
:1029A00030680AA940F004003060306800F004008C
:1029B000059005980020C1F21100CDE90B0405F542
:1029C00044400A97FEF7A0FB072000210022FEF7F3
:1029D0001BFD0720FEF708FD56F8040C002140F00F
:1029E000010046F8040C56F8040C002200F0010027
:1029F0000A900A980B20FEF707FD0B20FEF7F4FC67
:102A000040F27006C2F2000605F56041304640F81B
:102A1000101F047304754FF46021C0E901440124C0
:102A2000C1610461FDF7FEFF20B1EFF3108072B6C3
:102A3000FEE700BF0027CDE90A7406F110040AA9D9
:102A400020460C97FDF794FE20B1EFF3108072B68C
:102A5000FEE700BF40F2F400C2F200004FF08041F8
:102A60004FF6FF72C0E9001780210897CDE906777D
:102A7000CDE90077CDE90F77CDE90D77C0E9027296
:102A800007618161FFF730F920B1EFF3108072B672
:102A9000FEE700BF4FF48050059040F2F400C2F210
:102AA000000005A9FFF7AEF920B1EFF3108072B670
:102AB000FEE700BF40F2F400C2F20000FFF79AFB0D
:102AC00020B1EFF3108072B6FEE700BF40F2F400D1
:102AD000C2F200006946FFF7C9F828B1EFF3108091
:102AE00072B600BFFEE700BF60200A9040F2F4001B
:102AF0000027C2F200000AA90022CDE90B770E9749
:102B0000FFF77EFA20B1EFF3108072B6FEE700BF48
:102B100040F2F400C2F20000FFF73EFA40F23C102F
:102B2000C2F200004FF416510C22C0E90051C0E976
:102B30000277C0E90472C0E90677FFF77DFD18B19E
:102B4000EFF3108072B6FEE740F2F400C2F200002C
:102B50000021FFF7C7FB2046FDF77EFD40F23C1049
:102B600006F10801C2F200000522FFF719FE351D2B
:102B7000204629460122FEF75BF8F9E70102000032
:102B8000000000000000010203040607080900001D
:102B900000000102030402030405060708090A0BEA
:102BA0000C0D0E0F10100000C82B000800000020B4
:102BB0001000000028010008D82B00081000002099
:102BC0007807000044010008010000001000000028
:082BD0000024F40000000000E5
:04000005080000ED02
:00000001FF
